:100000000C94AB070C9426260C94FB250C94D0255D
:100010000C94A5250C947A250C944F250C9424253A
:100020000C94F9240C94DC070C94DC070C94DC078A
:100030000C94DC070C94DC070C94DC070C94DC07B4
:100040000C94DC070C94DC070C94DC070C94DC07A4
:100050000C94B1260C94DC070C94DC070C94AF24B0
:100060000C94DC070C947B260C9451260C94DC0732
:100070000C94DC070C94DC070C94DC070C94DC0774
:100080000C94DC070C94DC070C94DC070C94DC0764
:100090000C94DC070C94DC070C94DC070C94DC0754
:1000A0000C94DC070C94DC070C94DC070C94DC0744
:1000B0000C94DC070C94DC070C94DC070C94DC0734
:1000C0000C94DC070C94DC070C94DC070C94DC0724
:1000D0000C94DC070C94DC070C94DC070C94DC0714
:1000E0000C94DC070C94261D0C94421D0C94750F87
:1000F0000C94FC070C942E090C9439200C94283E87
:100100000C94600A0C944B090C943C080C94440B1E
:100110000C949D0A0C9441080C94F70A0C944D1011
:100120000C9406080C94D91B0C948E0A0C94A90903
:100130000C94610A0C9431140C94251D0C947E09C6
:100140000C9461090C941B080C9491160C94551D89
:100150000C9402080C94DA260C94AD240C94021E24
:100160000C940A200C9417080C9425080C94950BF9
:100170000C944E1D0C9437080C9433080C94110801
:100180000C947C090C947E160C943D080C949109F7
:100190000C9429080C94C7120C94A2090C9485099C
:1001A0000C94B10A0C94361D0C94BF0A0C94B2192D
:1001B0000C942F080C940E080C9421080C94E01851
:1001C0000C94011E0C943A090C940A08005EBCE2DF
:1001D000613FDD83C29C7E20A3FD1F41009D23BEA5
:1001E00046DB65F88C11AF32CA57E9740000000095
:1001F000003E5B4F5B3E3E6B4F6B3E1C3E7C3E1CAD
:10020000183C7E3C181C577D571C1C5E7F5E1C00F2
:10021000183C1800FFE7C3E7FF0018241800FFE7A9
:10022000DBE7FF30483A060E2629792926407F056C
:100230000507407F05253F5A3CE73C5A7F3E1C1C82
:1002400008081C1C3E7F14227F22145F5F005F5F42
:1002500006097F017F006689956A6060606060942E
:10026000A2FFA29408047E040810207E2010080833
:100270002A1C08081C2A08081E101010100C1E0C3E
:100280001E0C30383E3830060E3E0E0600000000D0
:100290000000005F00000007000700147F147F14B7
:1002A000242A7F2A122313086462364956205000FC
:1002B00008070300001C2241000041221C002A1CE8
:1002C0007F1C2A08083E08080080703000080808D3
:1002D0000808000060600020100804023E514945F3
:1002E0003E00427F400072494949462141494D3311
:1002F0001814127F1027454545393C4A4949314178
:10030000211109073649494936464949291E000045
:10031000140000004034000000081422411414149A
:100320001414004122140802015909063E415D5986
:100330004E7C1211127C7F494949363E414141228F
:100340007F4141413E7F494949417F090909013EB9
:10035000414151737F0808087F00417F41002040E0
:10036000413F017F081422417F404040407F021CF2
:10037000027F7F0408107F3E4141413E7F09090909
:10038000063E4151215E7F091929462649494932D5
:1003900003017F01033F4040403F1F2040201F3F9B
:1003A0004038403F63140814630304780403615920
:1003B000494D43007F414141020408102000414162
:1003C000417F04020102044040404040000307080E
:1003D0000020545478407F2844443838444444280A
:1003E000384444287F385454541800087E090218B1
:1003F000A4A49C787F0804047800447D4000204039
:10040000403D007F1028440000417F40007C04787C
:1004100004787C080404783844444438FC182424C4
:100420001818242418FC7C08040408485454542444
:1004300004043F44243C4040207C1C2040201C3CC1
:100440004030403C44281028444C9090907C4464B8
:10045000544C44000836410000007700000041364B
:10046000080002010204023C2623263C1EA1A161D1
:10047000123A4040207A3854545559215555794103
:100480002254547842215554784020545579400CD8
:100490001E527212395555555939545454593955BB
:1004A0005454580000457C410002457D42000145FE
:1004B0007C407D1211127DF0282528F07C54554592
:1004C000002054547C547C0A097F493249494932FE
:1004D0003A4444443A324A4848303A4141217A3A0F
:1004E00042402078009DA0A07D3D4242423D3D40DB
:1004F00040403D3C24FF2424487E4943662B2FFC8A
:100500002F2BFF0929F620C0887E09032054547937
:10051000410000447D413048484A32384040227A08
:10052000007A0A0A727D0D19317D2629292F282685
:100530002929292630484D4020380808080808088D
:100540000808382F10C8ACBA2F102834FA00007BE6
:10055000000008142A142222142A140855005500F9
:1005600055AA55AA55AAFF55FF55FF000000FF00E8
:10057000101010FF00141414FF001010FF00FF10E3
:1005800010F010F0141414FC001414F700FF000015
:10059000FF00FF1414F404FC141417101F10101F94
:1005A000101F1414141F00101010F0000000001F82
:1005B000101010101F10101010F010000000FF108D
:1005C0001010101010101010FF10000000FF140089
:1005D00000FF00FF00001F10170000FC04F41414BB
:1005E0001710171414F404F40000FF00F714141487
:1005F00014141414F700F7141414171410101F1007
:100600001F141414F4141010F010F000001F101F29
:100610000000001F14000000FC140000F010F01097
:1006200010FF10FF141414FF141010101F0000000E
:1006300000F010FFFFFFFFFFF0F0F0F0F0FFFFFF12
:100640000000000000FFFF0F0F0F0F0F3844443869
:1006500044FC4A4A4A347E02020606027E027E02B8
:1006600063554941633844443C04407E201E2006C3
:10067000027E020299A5E7A5991C2A492A1C4C7200
:1006800001724C304A4D4D303048784830BC625A87
:10069000463D3E494949007E0101017E2A2A2A2A17
:1006A0002A44445F444440514A444040444A5140F3
:1006B0000000FF0103E080FF000008086B6B0836B4
:1006C00012362436060F090F060000181800000025
:1006D0001010003040FF0101001F01011E00191D14
:1006E0001712003C3C3C3C000000000011007F96CB
:1006F000290001007F9628003A0155C0021010C160
:100700000141C50400228040360168B00100B102F9
:10071000B011B40102B60302023BB701C63A01555B
:10072000F704A9512C82B701C6E808408A000029C5
:1007300019A533C0020D0DC1024300C20100C5045A
:1007400000480048B40100B60302023BE00F0F214D
:100750001C0B0E08499838091103141000E10F0F03
:100760002F2B0C0E06477637071104231E00B0010D
:1007700000B30402000000B40100D003074218D106
:1007800003000710D2020102D3020102D4020102C7
:10079000C005123B000211C103101088C50103C639
:1007A0000102C80C003236450616377577540C0026
:1007B000CC0100F603010100CF03008130ED046499
:1007C000031281E803851078CB05392C003402F739
:1007D0000120EA020000B00100B102001BB40100D8
:1007E000C00121C10111C5023F3CC701B536014816
:1007F000F20100260101E00F0F26240B0E0954A878
:10080000460C17090F0700E10F00191B0410072AF7
:10081000473903060630380F360100B80101C00120
:100820000EB00100C10410100202C0060035000025
:100830000102C50104D2020104CA0100EA0180B923
:1008400003FF83577F967F96B60125C0065050015F
:100850003C1E08B4070240002A2A0D787F01F20BE3
:100860001616030808080810041616FD03110235B1
:10087000B2050C0C003333B70135BB012BC00104AA
:10088000C20201FFC30111C40120C6010FD002A49E
:10089000A1E00ED000050E150D37434709151216BD
:1008A00019E10ED000050D0C062D44400E1C181643
:1008B000193A01557F0A06000700B1020012B4017F
:1008C00002B60400202700CA0101CB0103C00113B6
:1008D0007F14C501CCC60100C70104C80103CC01C7
:1008E00006CD011CF9021515F3030A020AF60301ED
:1008F0001000FA00FB00E2031E0254E001017F0A2F
:10090000E001037F0A01007F64E60303FFFFB007F5
:100910002400031F01DF00B40803A0002E30000FE5
:1009200000B607020D0010100008BA010FB8020748
:1009300001F001007F01280011007F642900BE063C
:1009400006F001F00000D0010DB00103E2013FC04C
:100950000122E20100B00100C0010AB00100000064
:100960000000000000000000000000000000FFFF89
:100970000F0000040062080008080003000C0103D7
:100980000B5A02030609030317100403002305038F
:100990000017060309630703090C08030C10090379
:1009A0003222100016001100010112000000130095
:1009B000010000013003010137020301000D800234
:1009C00000610201B0C1FFFF32000100000102001E
:1009D000000103003010090001000C00000090002D
:1009E00000800F000000100200001102EF00120250
:1009F000000013028F010005000001050000020540
:100A00005F000104010004040000FFFF3200070042
:100A10000001FFFF320000020000010200000000A0
:100A20000000000000000000000000000100A40021
:100A30000100FFFF0A0060000027080008083000DE
:100A4000140231001537320004063300160E34004C
:100A500011223500001536000785370007143800CD
:100A6000031439002000900015001000100411003C
:100A70003702290046002A00460007000000120045
:100A8000890113000011FFFF96001200B901010057
:100A900000010200000203003010090001000A00FA
:100AA00000000D0000000E003000610001006A002F
:100AB0000000800000008100000082005F009200C2
:100AC000000193000107FFFF500007000001E5004F
:100AD000F078010000010200000203003010040061
:100AE00000000500000008000702090000000A00DD
:100AF00000000C0000000D0000000F0000001000BE
:100B000000001100070012000000130000000700A1
:100B10000100FFFFC8001000901611002702FFFF20
:100B2000320012000D00FFFF3200130000122900F6
:100B30000A002B000D00FFFF320020000000210002
:100B400000003000000031000404320003003500D2
:100B5000050436000808370007043800030339008D
:100B600007073C0004053D000808600000276100FD
:100B700001006A0000008000000081000000820087
:100B80000000830000008400000085000000900049
:100B900010009200000007003301E5000080000013
:100BA00001000100000102000007030030100400F2
:100BB000000008000202090000000A0000000C000A
:100BC00000000D0000000F000000100000001100E8
:100BD00007001200000013000000FFFF32001000A9
:100BE000B01711000700FFFF0A0012003A01FFFFD3
:100BF0000A001300001A29000C00FFFF0A00300051
:100C00000000310005053200040035000600360002
:100C100007073700050138000200390007073C00CC
:100C200004073D000708600000A7610001006A009A
:100C30000000210000002000000080000000810072
:100C40000000820000008300000084000000850096
:100C50000000900010009200000093000300950037
:100C60001001970000009800000007007301FFFFCB
:100C700032000100000102000007030030100800EC
:100C80000203090000000A00080010000000110023
:100C900005001200000013000000FFFF64001000B8
:100CA000B012FFFF320011000700FFFF32001200F8
:100CB0008C001300001729002000FFFF32003000D5
:100CC0000000310006013200010135000601360046
:100CD00003023700000038000707390004023C0017
:100CE00006013D000301600000A7610001009000C3
:100CF000300007003301FFFF3200150030009A007A
:100D0000100011002000100028341200020013000F
:100D10003810FFFF280012001200FFFF280010000B
:100D2000203413004530FFFF460030000000310042
:100D300002043200070333000403340004003500CA
:100D40000104360007073700050338001006390094
:100D5000100601000001020000030300301008002B
:100D600008080A00080060000027610001009000E8
:100D70003E019200000193000001A0000030A3009A
:100D800010000700010007002100070023000700F2
:100D900033000700330111001A0012002131130043
:100DA0006C001400494210000008FFFF0A00110007
:100DB0001A01FFFF0A0011001A03FFFF0A001100C9
:100DC0001A07FFFF0A0011001A0FFFFF0A001100A7
:100DD0003A0FFFFF1E00010028010200000103007E
:100DE000301007001210080003030B0000110C0064
:100DF00000000F00011815002000500001015100F3
:100E00000306520008045300000054000506550074
:100E1000060456000303570003035800100059004E
:100E2000001007001200FFFF280007001300070052
:100E3000170000002100240027002A002D003000A8
:100E4000330001010000040107010A0100000A0B40
:100E500002090C0D0E080703040100000000000049
:100E60000000000000000000000000000000000082
:100E7000000000000000000012111000000000003F
:100E80000000000000000000000000000000000062
:100E90000000000020002300260029002C002F0065
:100EA00032000001000003010601090101021020C7
:100EB0002008081020401020408002010201080490
:100EC0000201010204081020408080402010080424
:100ED000020180040201804020100804020108047D
:100EE00002010102040810204080010204081020C1
:100EF000408000002200250028002B002E00310039
:100F0000340002010000050108010B01050505057B
:100F1000070508080808020202020A0A0808040471
:100F2000040401010101010101010303030303039F
:100F30000303040707070C0C0C0C0C0C0C0C02022E
:100F4000020206060606060606060B0B0B0B0B0B2B
:100F50000B0BDA26283E11241FBECFEFD1E2DEBFF5
:100F6000CDBF00E00CBF14E0A0E0B2E0E4EEF4E896
:100F700000E00BBF02C007900D92A431B107D9F772
:100F80002AE0A4E1B4E001C01D92AB32B207E1F760
:100F900017E0CAEAD7E000E006C021970109802FD8
:100FA000FE010E94A53EC93AD10780E00807A9F7D3
:100FB0000E94912B0C9460420C940000815082316D
:100FC00008F05AC0E82FF0E08827E651F84F8F4F1D
:100FD0000C94A53E0A080E08FC07020806083C0807
:100FE000110817081B082108250829082F083308AD
:100FF0003C0837083D084108809180008F77809336
:1010000080000895809180008F7DF9CF80918000CD
:10101000877FF5CF84B58F7784BD089584B58F7DA4
:10102000FBCF8091B0008F778093B00008958091BE
:10103000B0008F7DF9CF809190008F7780939000E2
:101040000895809190008F7DF9CF80919000877FE7
:10105000F5CF8091A0008F778093A00008958091B4
:10106000A0008F7DF9CF8091A000877FF5CF809180
:1010700020018F77809320010895809120018F7D3A
:10108000F9CF80912001877FF5CFCF93DF93282F71
:1010900030E0F901E45BF14F8491F901E455F14F3F
:1010A000D491F901E45FF04FC491CC23A1F08111F8
:1010B0000E94DE07EC2FF0E0EE0FFF1FEE56F14F1F
:1010C000A591B491EC91ED2381E090E009F480E0EA
:1010D000DF91CF91089580E090E0FACF1F93CF93F6
:1010E000DF93282F30E0F901E45BF14F8491F9019F
:1010F000E455F14FD491F901E45FF04FC491CC2352
:10110000A9F0162F81110E94DE07EC2FF0E0EE0F00
:10111000FF1FEE50F14FA591B4918FB7F894EC9169
:10112000111108C0D095DE23DC938FBFDF91CF91E2
:101130001F910895DE2BF8CFCF93DF93EC018091C0
:10114000D4059091D505029749F4C130D10509F431
:101150003DC07CF560E0209709F439C08091D4054A
:101160009091D505049749F4C130D10509F45EC0CA
:101170000CF039C0209709F444C08091D4059091B7
:10118000D505059709F0E7C0CA30D10508F0E3C0DE
:10119000FE018827E153F74F8F4F0C94A53E2E098F
:1011A0003A094B0961097C097E0985099109A2095F
:1011B000A909C230D105A9F060E0C330D10571F6AC
:1011C0008091D8050E946E0860E006C061E08091C1
:1011D000D8050E946E0861E08091DA050E946E08D1
:1011E000BDCF61E0EDCFC230D10539F1C330D105BB
:1011F00009F0C3CF61E08091D8050E946E0860E0DD
:1012000022C061E08091D8050E946E0860E0809164
:10121000DA050E946E0861E08091DC050E946E088C
:1012200060E08091DE050E946E08A7CF60E08091AB
:10123000D8050E946E0861E0EACF60E08091D80591
:101240000E946E0861E08091DA050E946E0860E0FD
:101250008091DC050E946E0861E0E3CF60E0809140
:10126000D8050E946E0861E08091DA050E946E0840
:1012700061E00BC060E08091D8050E946E0861E0DB
:101280008091DA050E946E0860E08091DC050E9482
:101290006E0860E010C060E08091D8050E946E0882
:1012A00061E08091DA050E946E0860E08091DC05C3
:1012B0000E946E0861E08091DE050E946E0861E088
:1012C00015C060E08091D8050E946E0861E08091B1
:1012D000DA050E946E0860E08091DC050E946E08CD
:1012E00061E08091DE050E946E0860E08091E0057B
:1012F000DF91CF910C946E0861E0E4CF61E08091C2
:10130000D8050E946E0860E0E2CF61E08091D805C8
:101310000E946E0860E08091DA050E946E0861E02C
:10132000DBCF61E08091D8050E946E0860E080917B
:10133000DA050E946E0861E08091DC050E946E086B
:1013400060E0CFCF61E08091D8050E946E0860E038
:101350008BCF60E0F8CFDF91CF910895CF93DF93EB
:1013600090E0FC01E455F14F2491845F904FFC0123
:1013700084918823D1F090E0880F991FFC01EE5CE6
:10138000F14FA591B491FC01EE50F14FC591D4916C
:1013900061110EC09FB7F8948C91E22FE0958E23D7
:1013A0008C932881E223E8839FBFDF91CF9108953A
:1013B0008FB7F894EC91E22BEC938FBFF6CF863386
:1013C00008F0865320917B00982F9870277F922BEE
:1013D00090937B008770806480937C0080917A007A
:1013E000806480937A0080917A0086FDFCCF8091A2
:1013F00078009091790008953FB7F8948091200487
:1014000090912104A0912204B091230426B5A89BB9
:1014100005C02F3F19F00196A11DB11D3FBFBA2F86
:10142000A92F982F8827BC01CD01620F711D811D46
:10143000911D42E0660F771F881F991F4A95D1F7CB
:1014400008958F929F92AF92BF92CF92DF92EF92C8
:10145000FF926B017C010E94FC094B015C01C114ED
:10146000D104E104F104B9F00E94FC09681979097A
:101470008A099B09683E73408105910580F321E04C
:10148000C21AD108E108F10888EE880E83E0981EA0
:10149000A11CB11CE4CFFF90EF90DF90CF90BF90E4
:1014A000AF909F908F9008952FB7F89460911C048F
:1014B00070911D0480911E0490911F042FBF089508
:1014C0000895AF92BF92CF92DF92EF92FF920F9367
:1014D0001F93CF93DF936C017B018B01040F151FCA
:1014E000EB015E01AE18BF08C017D10759F0699132
:1014F000D601ED91FC910190F081E02DC601199586
:10150000892B79F7C501DF91CF911F910F91FF9042
:10151000EF90DF90CF90BF90AF900895FC01538D76
:10152000448D252F30E0842F90E0821B930B5417BD
:1015300010F0CF96089501970895FC01918D828D4A
:10154000981761F0A28DAE0FBF2FB11D5D968C91E3
:10155000928D9F5F9F73928F90E008958FEF9FEF22
:101560000895FC01918D828D981731F0828DE80FDE
:10157000F11D858D90E008958FEF9FEF0895FC0198
:10158000918D228D892F90E0805C9F4F821B910965
:101590008F739927089585E294E00E94BF0A21E0A5
:1015A000892B09F420E0822F0895FC01A48DA80F57
:1015B000B92FB11DA35ABF4F2C91848D90E0019695
:1015C0008F739927848FA689B7892C93A089B189B5
:1015D0008C91837080648C93938D848D981306C056
:1015E0000288F389E02D80818F7D80830895EF92BA
:1015F000FF920F931F93CF93DF93EC0181E0888FCD
:101600009B8D8C8D98131AC0E889F989808185FF9C
:1016100015C09FB7F894EE89FF896083E889F9893E
:1016200080818370806480839FBF81E090E0DF9140
:10163000CF911F910F91FF90EF900895F62E0B8D93
:1016400010E00F5F1F4F0F731127E02E8C8D8E114E
:101650000CC00FB607FCFACFE889F989808185FFB5
:10166000F5CFCE010E94D50AF1CFEB8DEC0FFD2F07
:10167000F11DE35AFF4FF0829FB7F8940B8FEA8970
:10168000FB8980818062CFCFCF93DF93EC01888D7F
:101690008823B9F0AA89BB89E889F9898C9185FDED
:1016A00003C0808186FD0DC00FB607FCF7CF8C917B
:1016B00085FFF2CF808185FFEDCFCE010E94D50A54
:1016C000E9CFDF91CF91089580E090E0892B29F058
:1016D0000E94CB0A81110E94000080E090E0892BDB
:1016E00049F080E090E0892B29F00E9400008111F0
:1016F0000E94000080E090E0892B49F080E090E0BB
:10170000892B29F00E94000081110E94000080E0D6
:1017100090E0892B49F080E090E0892B29F00E942D
:10172000000081110C940000089508950F931F93F9
:10173000CF93DF93EC018B01FE018491319664918C
:1017400022968F3799F470E090E080E00E94210AA1
:1017500060E070E06E5F7F4F061B170B10161106DE
:101760005CF3DF91CF911F910F9108958B988A9828
:1017700090910201977890930201A5989EB1977C71
:101780009EB94091020190E09C0155E0220F331F69
:101790005A95E1F72076242B209302014EB19C014B
:1017A000220F331F220F331F2073242B2EB944B373
:1017B0009C01220F331F2072242B24BB4EB19C01AD
:1017C00035952795359527952870242B2EB920918E
:1017D0000201A3E095958795AA95E1F78871822B80
:1017E000809302018998899A50E040E0461708F0FA
:1017F00045C0FE01E40FF51FE4918A9A8091020131
:10180000877880930201A5988EB1877C8EB97091FC
:1018100002018E2F90E09C01E5E0220F331FEA9534
:10182000E1F72076272B209302017EB19C01220F45
:10183000331F220F331F2073272B2EB974B39C0143
:10184000220F331F2072272B24BB7EB19C013595BC
:101850002795359527952870272B2EB9E091020101
:1018600023E0959587952A95E1F788718E2B8093D3
:1018700002018998899A4F5F5F4FB8CFC60FD11D7B
:101880008B9A67CF8B988A982091020127782093B2
:101890000201A5982EB1277C2EB970910201292F43
:1018A00030E0F901A5E0EE0FFF1FAA95E1F7E07621
:1018B000E72BE09302017EB1F901EE0FFF1FEE0F5F
:1018C000FF1FE073E72BEEB974B3F901EE0FFF1FB2
:1018D000E072E72BE4BB7EB1F901F595E795F5954C
:1018E000E795E870E72BEEB970910201E3E03595DA
:1018F0002795EA95E1F72871272B20930201899813
:10190000899A20910201277820930201A5982EB18F
:10191000277C2EB9709102019C01F5E0880F991F78
:10192000FA95E1F78076872B809302017EB1C90199
:10193000880F991F880F991F8073872B8EB974B3F6
:10194000C901880F991F8072872B84BB7EB1C901A2
:1019500095958795959587958870872B8EB98091F9
:101960000201F3E035952795FA95E1F72871282BC8
:10197000209302018998899A8A9AFA01615008F4A1
:101980003EC0819190910201977890930201A598B1
:101990009EB1977C9EB94091020190E09C0155E078
:1019A000220F331F5A95E1F72076242B2093020152
:1019B0004EB19C01220F331F220F331F2073242BA3
:1019C0002EB944B39C01220F331F2072242B24BB59
:1019D0004EB19C0135952795359527952870242B78
:1019E0002EB92091020133E0959587953A95E1F75C
:1019F0008871822B809302018998899ABFCF8B9A34
:101A000008958B988A98E2E0F1E02081277820837E
:101A1000A5982EB1277C2EB9A081292F30E0A901ED
:101A2000B5E0440F551FBA95E1F740764A2B408345
:101A3000AEB1A901440F551F440F551F40734A2BE7
:101A40004EB9A4B3A901440F551F40724A2B44BBA1
:101A5000AEB1A901559547955595479548704A2BC4
:101A60004EB9408153E0359527955A95E1F7287195
:101A7000242B20838998899A208127782083A59810
:101A80002EB1277C2EB940819C01A5E0880F991FBB
:101A9000AA95E1F78076842B80834EB1C901880F27
:101AA000991F880F991F8073842B8EB944B3C90185
:101AB000880F991F8072842B84BB4EB1C901959504
:101AC0008795959587958870842B8EB98081B3E032
:101AD00035952795BA95E1F72871282B20838998A9
:101AE000899A8A9A808187788083A5988EB1877C2D
:101AF0008EB94081872F90E09C0155E0220F331F63
:101B00005A95E1F72076242B20834EB19C01220FB9
:101B1000331F220F331F2073242B2EB944B39C0193
:101B2000220F331F2072242B24BB4EB19C0135950C
:101B30002795359527952870242B2EB92081A3E071
:101B400095958795AA95E1F78871822B808389986E
:101B5000899A808187788083A5988EB1877C8EB999
:101B60004081CB019B01B5E0220F331FBA95E1F70D
:101B70002076242B20834EB19B01220F331F220F8E
:101B8000331F2073242B2EB944B39B01220F331F24
:101B90002072242B24BB4EB19C0135952795359599
:101BA00027952870242B2EB92081A3E09595879541
:101BB000AA95E1F78871822B80838998899A8B9AFC
:101BC000089581E080932404E1E0F1E0808188675A
:101BD00080839D9A8DB188638DB9809A819A829A0B
:101BE000839A849A8B9A889A899A8C9A62E370E095
:101BF00080E090E00E94210A8C9864E670E080E02A
:101C000090E00E94210A8C9A64E670E080E090E007
:101C10000E94210A70E060E080EB90E00C94010DDE
:101C2000EF92FF920F931F93CF93DF93EC01E62E79
:101C300080912404811102C00E94E10D8B988A9842
:101C400080910201877880930201A5988EB1877CEC
:101C50008EB980910201809302018EB18EB984B356
:101C600084BB8EB18EB98091020180930201899864
:101C7000899A80910201877880930201A5988EB19C
:101C8000877C8EB920910201CE0115E0880F991F43
:101C90001A95E1F78076822B809302012EB1CE0156
:101CA000880F991F880F991F8073822B8EB924B3D8
:101CB000CE01880F991F8072822B84BB2EB1CE017A
:101CC00095958795959587958870822B8EB980918B
:101CD000020153E0D595C7955A95E1F7C871C82B15
:101CE000C09302018998899A8A9A80910101877824
:101CF000809301019D988DB1877C8DB961E070E082
:101D000080E090E00E94210A61E070E080E090E0D5
:101D10000E94210A889A889888988898D091000112
:101D20001CB102B3CCB1F0900001889A61E070E080
:101D300080E090E00E94210A889A88988898889884
:101D4000409100015CB1E2B39CB1F0910001889A2E
:101D5000EA946FEFE612D8CF889A8B9A80910101AE
:101D60008867809301019D9A8DB188638DB984E065
:101D7000C89F900111242072332788E0F89EB0019B
:101D80001124607C7727262B602F70E0759567956E
:101D900060717727262B612F70E075956795759593
:101DA00067956C707727262B6D2F70E0B5E07595E1
:101DB0006795BA95E1F763707727262B64E0969FC5
:101DC000C0011124807298E0F99FB0011124607C59
:101DD000862BE695E0718E2B569556955C70852B7B
:101DE00050E0C5E055954795CA95E1F74370842BBF
:101DF000922FDF91CF911F910F91FF90EF90089557
:101E00000F931F93CF93DF938C0160E00E94100E1D
:101E1000EC0161E0C8010E94100E8C01BE0190E04F
:101E200080E0CB017727662730E020E0602B712B24
:101E3000822B932BDF91CF911F910F910895FF92E9
:101E40000F931F93CF93DF938C0160E00E94100EDD
:101E5000EC0161E0C8010E94100EF82E62E0C8019A
:101E60000E94100EAE0170E060E0742F66275527C7
:101E7000442700E030E020E0402B5F29622B732BE9
:101E8000292F30E0C901B0E0A0E08A019B01082BB6
:101E9000192B2A2B3B2BC901B801DF91CF911F9140
:101EA0000F91FF9008950F931F93CF93DF93EC0151
:101EB0008B01FE0185919491FE01329624966591E5
:101EC00074918F3F980771F490E080E00E94210A9E
:101ED000045011091016110664F3DF91CF911F9180
:101EE0000F9108950E94010DF3CFFC01262F358D2F
:101EF000868D82958170982F9627692F70E072A346
:101F000061A330FF0CC0821307C080E290E050E074
:101F100040E060E00C94420C81E290E0F8CF878DC5
:101F200090A1833927E7920741F058F4843521E0E6
:101F3000920791F080329445C1F4626081E094E0B0
:101F400012C0863223E99207C1F3893025EB92074C
:101F5000A1F38532924949F4660F771F660F771F08
:101F6000636187E090E00C94010D81E690E0FBCF87
:101F70008F929F92AF92BF92CF92DF92EF92FF9299
:101F80000F931F93CF93DF9300D01F92CDB7DEB78F
:101F90007C014B015A016901FC01878D90A18632B9
:101FA000954151F4F701868980FF06C0C801841B62
:101FB000950B81F50F5F1F4FF701858D80FF31C0B5
:101FC00085A599828A82DB82CC82AE014F5F5F4F0A
:101FD00064E090E00E94420CF70181A9B982AA82D4
:101FE0001B830C83AE014F5F5F4F64E090E00E9463
:101FF000420C0F900F900F900F90DF91CF911F9197
:102000000F91FF90EF90DF90CF90BF90AF909F9097
:102010008F9008952617370779F6C80ED91E8A01C2
:10202000CBCFB40187A190A50E94010DB501F701A6
:1020300081A592A50E94010DC814D90419F40A15AE
:102040001B05B9F2F701858D85FF08C0868980FFE1
:102050001EC0102F0027A02AB12A8501B401F70164
:1020600085A596A50E94010DB501F70181A992A948
:102070000E94010DB601F70187A590A90E94010DEC
:10208000B801F70183A994A90E94010DB2CFDC2CFD
:10209000CC248C289D286401E1CF2F923F924F924F
:1020A0005F926F927F928F929F92AF92BF92CF92E8
:1020B000DF92EF92FF920F931F93CF93DF9300D0A5
:1020C0001F921F92CDB7DEB79D838C83809117043A
:1020D000882349F0C701880F991F8E739927E1EC77
:1020E000EE22E82AF92A37FF05C0620F731F3195E7
:1020F00021953109260F371F77FF02C070E060E09D
:10210000EC81FD8180859185281739070CF4C90180
:102110006C01C61AD70A17FF05C0400F511F119551
:1021200001951109040F151F57FF02C050E040E050
:10213000EC81FD8122853385021713070CF4980189
:102140005901A41AB50A8901015011099C012150B5
:1021500031098C819D810E94B80F8B988A98EC81FF
:10216000FD8153A544A580910201877880930201E7
:10217000A5988EB1877C8EB960910201842F90E082
:102180009C01A5E0220F331FAA95E1F72076262BAC
:10219000209302016EB19C01220F331F220F331FC7
:1021A0002073262B2EB964B39C01220F331F20729B
:1021B000262B24BB6EB19C01359527953595279527
:1021C0002870262B2EB92091020133E09595879532
:1021D0003A95E1F78871822B809302018998899A58
:1021E00080910201877880930201A5988EB1877C47
:1021F0008EB960910201852F942F9C0145E0220F3A
:10220000331F4A95E1F72076262B209302014EB129
:102210009C01220F331F220F331F2073242B2EB952
:1022200044B39C01220F331F2072242B24BB4EB1D8
:102230009C0135952795359527952870242B2EB927
:1022400020910201E3E095958795EA95E1F7887181
:10225000822B809302018998899A8A9ACA14DB0496
:102260002CF09A2D8B2D5601C92ED82E2F2D30E013
:10227000890185E0000F111F8A95E1F70076C901F9
:10228000880F991F880F991F182F1073C901880F85
:10229000991FB82FB072C901959587959595879527
:1022A000982F987073E0359527957A95E1F7822FEE
:1022B0008871A701E5E0440F551FEA95E1F74076E4
:1022C0009701220F331F220F331F522F5073B70174
:1022D000660F771F6072970135952795359527957D
:1022E000722F78709701E3E035952795EA95E1F72D
:1022F000A22FA8712F2D287F30E04901880C991C4E
:10230000880C991CF82DF073F9834901880C991CED
:10231000E82DE072EA834901959487949594879417
:10232000F82DF870FB83E3E035952795EA95E1F702
:10233000E22FE8712E2E9701F3E036952795FA9556
:10234000E1F72C7F30E04901880C991C880C991C1E
:10235000F82DF0733F2E2901440C551CE42DE0723A
:102360004E2E49019594879495948794F82DF87092
:102370005F2EF3E035952795FA95E1F7E22FE871A6
:102380006E2EEE0CEE0CEE0CF12C9701220F331F8B
:10239000220F331FF22FF0737F2E9701220F331F6E
:1023A0002072F701F595E795F595E795E870F3E06C
:1023B000F594E794FA95E1F73E2D3871E32E1C145D
:1023C0001D040CF0ABC0309118044501332309F40F
:1023D00063C030910201377830930201A5983EB175
:1023E000377C3EB930910201309302013EB1F98150
:1023F0003F2B3EB934B3FA813F2B34BB3EB1FB8156
:102400003F2B3EB930910201322930930201899865
:10241000899A30910201377830930201A5983EB134
:10242000377C3EB930910201309302013EB133292D
:102430003EB934B3342934BB3EB135293EB930916D
:1024400002013629309302018998899A309102015C
:10245000377830930201A5983EB1377C3EB9309170
:102460000201309302013EB137293EB934B3322B19
:1024700034BB3EB13E2B3EB9309102013E29309330
:1024800002018998899A31E0831A910809F0A1CF55
:10249000F1E0CF1AD10893CF309102013778309311
:1024A0000201A5983EB1377C3EB930910201302B34
:1024B000309302013EB1312B3EB934B33B2B34BBD8
:1024C0003EB1392B3EB930910201382B30930201D5
:1024D0008998899A30910201377830930201A59842
:1024E0003EB1377C3EB930910201342B309302016A
:1024F0003EB1352B3EB934B3362B34BB3EB1372B0E
:102500003EB9309102013A2B309302018998899AA1
:10251000F1E08F1A910809F0BFCFBACF8B9AEC8106
:10252000FD81858D80FF0AC0878D90A186329541FF
:10253000B1F4EC81FD81868980FF11C0EC81FD81C1
:1025400002851385015011092085318521503109FB
:1025500050E040E070E060E0CF010E94B80F0F90C3
:102560000F900F900F900F90DF91CF911F910F91CF
:10257000FF90EF90DF90CF90BF90AF909F908F90A3
:102580007F906F905F904F903F902F900895EF92C3
:10259000FF920F931F93CF93DF937C01E90177FDA7
:1025A0004DC157FD4BC1FC018085918568177907A6
:1025B0000CF044C182859385481759070CF03EC141
:1025C00080911704882341F0C901880F991F8E73E9
:1025D0009927C17CC82BD92B8A019B01C7010E9476
:1025E000B80F80911804882309F42FC18B988A981A
:1025F000F70143A554A580910201877880930201D9
:10260000A5988EB1877C8EB960910201852F90E0EC
:102610009C0175E0220F331F7A95E1F72076262B77
:10262000209302016EB19C01220F331F220F331F32
:102630002073262B2EB964B39C01220F331F207206
:10264000262B24BB6EB19C01359527953595279592
:102650002870262B2EB920910201B3E0959587951D
:10266000BA95E1F78871822B809302018998899A43
:1026700080910201877880930201A5988EB1877CB2
:102680008EB960910201CA019C0115E0220F331F2F
:102690001A95E1F72076262B209302014EB19C017A
:1026A000220F331F220F331F2073242B2EB944B364
:1026B0009C01220F331F2072242B24BB4EB19C019E
:1026C00035952795359527952870242B2EB920917F
:1026D000020173E0959587957A95E1F78871822BD1
:1026E000809302018998899A8A9A80910201877859
:1026F00080930201A5988EB1877C8EB9209102014A
:102700008D2F887F90E0209302014EB19C01220F13
:10271000331F220F331F2073242B2EB944B39C0187
:10272000220F331F2072242B24BB4EB19C01359500
:102730002795359527952870242B2EB920910201D5
:10274000B3E095958795BA95E1F78871822B8093D0
:1027500002018998899A8091020187788093020109
:10276000A5988EB1877C8EB920910201CE01D3E06D
:1027700096958795DA95E1F78C7F90E0209302019A
:102780004EB19C01220F331F220F331F2073242BC5
:102790002EB944B39C01220F331F2072242B24BB7B
:1027A0004EB19C0135952795359527952870242B9A
:1027B0002EB92091020163E0959587956A95E1F71E
:1027C0008871822B809302018998899A80910201F5
:1027D000877880930201A5988EB1877C8EB980910D
:1027E0000201CC0FCC0FCC0FD0E0809302012EB1B0
:1027F000CE01880F991F880F991F8073822B8EB985
:1028000024B3CE01880F991F8072822B84BB2EB116
:10281000CE0195958795959587958870822B8EB971
:1028200080910201A3E0D595C795AA95E1F7C871FB
:10283000C82BC09302018998899A8B9ADF91CF9116
:102840001F910F91FF90EF900895BE01F70183A5AE
:1028500094A5DF91CF911F910F91FF90EF900C9471
:10286000010DEF92FF920F931F93CF93DF9300D050
:1028700000D000D01F92CDB7DEB77C01862F8370C9
:10288000F701868B962F917060FFE3C02681378118
:10289000F70131872087992309F4DEC0248135812F
:1028A000F70133872287823009F4DBC0833009F4D3
:1028B000DAC0813009F4D3C088E48A87F701858DB6
:1028C000968D90FF03C02A8520582A8791FF04C067
:1028D0002A8530E423272A8793FF04C02A8538E01D
:1028E00023272A87F701278D30A180FF00C12431DB
:1028F000F8E63F0709F0B9C09A85892F88728A8760
:102900001F82892F85958074282F2260892F90E05F
:102910009595879580729927822B88878BE3898785
:10292000AE01495F5F4F63E086EB90E00E94420C8E
:102930002AE230E0F70130A727A38BE290E092A7CC
:1029400081A74CE250E054A743A736A725A730AB98
:1029500027A792AB81AB94AB83ABAE01465F5F4FD1
:1029600061E086E390E00E94420C8A8590E0F701E6
:1029700094A383A3F701868980FF1CC0858D968D63
:1029800092FD18C087A190A521A532A530A727A345
:1029900092A781A785A596A521A932A936A725A723
:1029A00092AB81AB87A590A923A934A930AB27A707
:1029B00094AB83ABF7010285138501501109208583
:1029C00031852150310950E040E070E060E0C701FE
:1029D0000E94B80FF70166817781878D90A120E072
:1029E0008732F3E99F0709F420E2F701358D30FFC4
:1029F00039C119821A827B836C831D822E83AE01BA
:102A00004F5F5F4F66E083E390E00E94420C1982C3
:102A10001A82AE014F5F5F4F62E087E390E00E9451
:102A2000420CF701858D80FF07C050E040E060E078
:102A300083E190E00E94420C2A960FB6F894DEBF24
:102A40000FBECDBFDF91CF911F910F91FF90EF90FF
:102A50000895248135811CCF2681378121CF88E2DA
:102A60002CCF88E92ACF88EF28CF273243E93407D3
:102A700089F41F8281E388878A8585958595859568
:102A8000859588708987AE01495F5F4F63E080EC70
:102A900090E04CCF233689E1380749F02138E4E94A
:102AA0003E0729F02131F5E13F0709F041CF8A8542
:102AB00087FF02C081608A878A8586FF02C08260A4
:102AC0008A878A858F73233649E1340731F02138AC
:102AD00084E9380721F48A858F728A8729CF2131CA
:102AE000354109F025CF8A858F7E806CF6CF6A85C7
:102AF000862F062E000C990B2339F7E73F0751F07C
:102B0000A8F52435E1E03E0709F45CC02032F4E585
:102B10003F07A1F540E052E0F70150A747A341E08D
:102B200052E052A741A742E052E054A743A740E138
:102B300052E056A745A741E152E050AB47A742E11A
:102B400052E052AB41AB43E152E054AB43AB882778
:102B500090782632F3E93F0721F02032344509F01E
:102B600071C067FD846060E071E36EC0263243E9A6
:102B7000340781F22930E5EB3E0761F220E230E0D4
:102B8000F70130A727A321E230E032A721A722E2F4
:102B900030E034A723A720E530E036A725A721E5BC
:102BA00030E030AB27A722E530E032AB21AB23E5A4
:102BB00030E034AB23ABBC0166277078776280E6E7
:102BC00090E046C027E330E0F70136A725A726E3CB
:102BD00030E030AB27A729E330E032AB21AB28E36C
:102BE00030E034AB23AB20E230E030A727A321E272
:102BF00030E032A721A722E230E034A723A7F4E097
:102C00006F9FB001112466277170882792708862C7
:102C1000682B792B81E090E00E94010D8A85682F56
:102C200070E075956795759567956870772783FD52
:102C300070616063F70174A363A383E090E00E9476
:102C4000010D98CE60E072E6682B792B80E094E06D
:102C50000E94010D6A85F4E06F9FB0011124662780
:102C60007170D8CF8339F7E79F07D9F1F0F480323C
:102C700044E59407B1F18338E7E79E0731F18435E5
:102C80009140F1F46150710981E390E00E94010DDF
:102C900070E060E082E390E00E94010D70E060E08F
:102CA00083E390E00E94010DC7CE863223E99207AC
:102CB000C1F0893045EB9407A1F08532924911F3B8
:102CC000F70161A172A1626003C0F70161A172A165
:102CD00081E690E00E94010D70E060E08AE690E0FD
:102CE000E1CFF70161A172A1626081E094E00E94EE
:102CF000010D70E060E084E094E0D4CFEF92FF92A9
:102D00000F931F93DC01ED91FC9100A0F1A1E02D48
:102D1000780101E010E019951F910F91FF90EF905D
:102D20000895EF92FF920F931F93DC01ED91FC91B8
:102D300000A0F1A1E02D7801890121E030E0199592
:102D40001F910F91FF90EF9008950895FC0163701B
:102D5000668B8481958126813781613039F06330BB
:102D600029F09187808733872287089531872087CC
:102D70009387828708952F923F924F925F926F922E
:102D80007F928F929F92AF92BF92CF92DF92EF92FB
:102D9000FF920F931F93CF93DF93CDB7DEB76A9760
:102DA0000FB6F894DEBF0FBECDBF9A8F898F7A839E
:102DB00069834A01D22E18870F833701BC2CDC01AE
:102DC00059962D913C915A972115310509F015C15D
:102DD00018968D919C911997681779070CF0D7C1B7
:102DE0001A968D919C91481759070CF0D0C14C2C24
:102DF000512CB6E0CB9E600D711D11247C876B8732
:102E0000161617060CF0C3C1EA2DF0E0FA87E98721
:102E100093E0EE0FFF1F9A95E1F7F88BEF87CF0154
:102E2000840F951F181619060CF0B1C1A98DBA8D23
:102E300058968C91811104C0BFEABD1508F4D39453
:102E4000A98DBA8DED91FC9111970284F385E02D47
:102E5000CD011995B5E0DB9EC0011124E981FA810D
:102E6000FC83EB83312C212C9C0124513E4F388F65
:102E70002F8B4A2D50E05E8B4D8BEF89F88DE20D44
:102E8000F31D44919E828D82D12CC12C69817A815F
:102E9000620D731D7A8B698B842F90E09C8B8B8BDA
:102EA000E98DFA8DA081B18140FF82C0F1E0BF12AF
:102EB0006FC0AF126DC01C96ED91FC912F813885CB
:102EC000A4014C0D5D1D69897A89898D9A8D1995AA
:102ED000EB89FC89F595E7954E2F5FEFC51AD50A6A
:102EE0006D817E818D899E89680F791F7E836D83B8
:102EF00098E0C916D10481F6AFEF2A1A3A0AEB819D
:102F0000FC81E40DF51DFC83EB83F5E02F16310405
:102F100009F0B3CF2F81388526153705B9F0A98D73
:102F2000BA8DED91FC91B1E0BB1257C0AB1255C008
:102F300069817A816B5F7F4F0088F189E02D830181
:102F400028E030E0A401898D9A8D1995A98DBA8D5C
:102F5000ED91FC9111970688F789E02DCD016A96D5
:102F60000FB6F894DEBF0FBECDBFDF91CF911F919A
:102F70000F91FF90EF90DF90CF90BF90AF909F9018
:102F80008F907F906F905F904F903F902F9019940B
:102F90001E96ED91FC91EF80F88409851A859201C7
:102FA0004D815E816B817C81898D9A8D199590CF41
:102FB0002F8138852615370509F48ACF31E0B31201
:102FC00007C0A31205C01C96ED91FC91930178CF28
:102FD0001E96ED91FC917301E0CF6B857C856419A1
:102FE00075090684F785E02D73010F851889920114
:102FF000A401898D9A8D1995A9CFF90134969491E0
:10300000329745915491D91AB7E0DB9E400D511D7E
:103010001124F901259134913C8B2B8BFA012590D9
:103020003490FA013296749031963491398B3296FD
:1030300064903196449041E04C1518F04A1508F020
:103040007FC0662D062C000C770B7C836B83842D50
:10305000042C000C990B9E838D83A98DBA8DED9164
:10306000FC9111970284F385E02DCD011995512C27
:10307000D12CC12CEA2DF0E0FA87E9872B2D30E026
:103080003C872B87A401440D511D47FC5A95588F4E
:103090004F8B69817A81660D711D67FC7A957E87F9
:1030A0006D877989C71608F051CF2C2D30E04D81FE
:1030B0005E81420F531FA985BA854A9FC0014B9F6D
:1030C000900D5A9F900D1124FC01E80DF91DF88B0D
:1030D000EF87852D612C4F89588D420F531F5E8BD2
:1030E0004D8B671408F050C044244394480E8770F9
:1030F00041F4C1010196EB89FC89E20DF31DD490E6
:103100001C01D7FE19C0A98DBA8DED91FC91662DD9
:1031100070E0B1E0BB1219C0AB1217C02D853E851F
:10312000620F731F0484F585E02D2F8138854D894A
:103130005E89898D9A8D1995DD0C6394842DD1CF8C
:103140001E821D821C821B8288CF4B815C81640F92
:10315000751FAB85BC856A9FC0016B9F900D7A9FE0
:10316000900D112469817A81680F791F0684F78593
:10317000E02DEF80F88409851A859D014F855889D7
:10318000898D9A8D1995D8CF570CC3948ACF6A969A
:103190000FB6F894DEBF0FBECDBFDF91CF911F9168
:1031A0000F91FF90EF90DF90CF90BF90AF909F90E6
:1031B0008F907F906F905F904F903F902F900895E9
:1031C0008F929F92AF92CF92EF92FF920F931F93A5
:1031D000CF93DF93EC01262F898D9A8D009709F00C
:1031E00051C06A30D1F41D861C868D8948E0849FC9
:1031F000900111248E859F85820F931F9F878E8754
:1032000081E090E0DF91CF911F910F91FF90EF90BF
:10321000CF90AF909F908F9008956D3089F3CC88B8
:10322000AD888F898823C1F08C859D8536E0C39E4B
:10323000800D911D1124488559854817590764F45C
:103240004E855F851D861C8638E0A39EC001112433
:10325000840F951F9F878E87EA88FB8808891989C4
:103260004E855F856C857D85CE010E94BB162C89BD
:103270008C859D8546E0249F800D911D11249D879E
:103280008C87BECF6A3069F41D861C86FC01389697
:10329000E4912D898E859F85E29F800D911D1124DB
:1032A000ADCF6D3009F4ACCFFC0134963491631787
:1032B00008F4A6CF3296E491E61708F4A1CFFC01FA
:1032C000329685909490462F431B342F47E0349FCD
:1032D000800C911C1124F401329634913196E491C2
:1032E0003323A9F1EE2399F1CC88F4013596E491CA
:1032F000AD884F89442301F10E2E000CFF0BE30F24
:10330000F11DCE9EA001CF9E500D11246C857D85B0
:10331000460F571F68857985641775076CF44E85CD
:103320005F851D861C86FC013896E491AE9E400D9B
:10333000511D11245F874E87EA88FB880889198907
:103340004E855F856C857D85CE010E94BB16F4019C
:103350003496E4912C898C859D85E29F800D911D8A
:1033600011248DCF6F927F928F929F92AF92BF92D6
:10337000CF92DF92EF92FF920F931F93CF93DF9341
:10338000EC016B015A0139014801E881F98102849D
:10339000F385E02D1995E881F9810288F389E02D04
:1033A00087019301A501B601CE011995A501480D2C
:1033B000591D41505109E881F9810288F389E02DB6
:1033C0009301B601CE011995E881F9810088F18950
:1033D000E02D9401A501B601CE011995C60CD71CAC
:1033E000B60161507109E881F9810088F189E02D09
:1033F0009401A501CE011995E881F9810688F78924
:10340000E02DCE01DF91CF911F910F91FF90EF90B2
:10341000DF90CF90BF90AF909F908F907F906F90F4
:1034200019942F923F924F925F926F927F928F9258
:103430009F92AF92BF92CF92DF92EF92FF920F9343
:103440001F93CF93DF93CDB7DEB72D970FB6F894C8
:10345000DEBF0FBECDBF5C011B0158874F833D8788
:103460002C870987FC82EB82360181E090E06C01B9
:10347000C21AD30AC9019195819591099C01220F25
:10348000331F3A832983C70101969E838D83F12CD4
:10349000E12C44244394512CDA011196BB87AA876E
:1034A0002C853D85E216F3060CF070C08C849D845B
:1034B000D7FC0BC0490131E0831A910889819A81B8
:1034C00002969A838983C80ED91E9FEFE91AF90ADA
:1034D000A2E04A0E511CC40CD51C8E149F0444F467
:1034E0002C853D8528153905F1F49D868C86D8CF2D
:1034F0009401220F331F4F81588548195909D5016E
:10350000ED91FC91B9858D819E81280F391F00882E
:10351000F189E02D8301B101B13009F56E0D7F1DF8
:10352000C5011995DDCF9985913019F59201225089
:103530003109AB81BC812A0F3B1F6C857D85620DF3
:10354000731DD501ED91FC910088F189E02D830177
:103550004A855B854E195F09C5011995C6CF6E195D
:103560007F09C5011995AC85BD85A815B90509F474
:10357000BCCF9201225031098B819C81280F391FC9
:10358000B101AC85BD856A1B7B0BDBCF2D960FB6D9
:10359000F894DEBF0FBECDBFDF91CF911F910F9189
:1035A000FF90EF90DF90CF90BF90AF909F908F9063
:1035B0007F906F905F904F903F902F9008952F9243
:1035C0003F924F925F926F927F928F929F92AF92B3
:1035D000BF92CF92DF92EF92FF920F931F93CF9300
:1035E000DF9300D000D0CDB7DEB79E838D834B0133
:1035F0003A016901802F21E030E029014C185D0873
:10360000222433242C183D08220C331CB12CA12C6D
:1036100001E010E0982F94709983A82FA270AA83DC
:10362000B82FB870BB8381708C83AC14BD040CF0D0
:10363000A7C057FC08C081E0C81AD10892E0290E43
:10364000311C420C531CAFEFAA1ABA0A0E5F1F4F6F
:10365000400E511EB981BB2311F1AD81BE81ED91A8
:10366000FC9111970484F585E02D9701A601460D84
:10367000571DB4016A0D7B1DCD011995AD81BE8129
:10368000ED91FC9111970484F585E02D9701A3013C
:103690004A0D5B1DB601680D791DCD011995BA81E2
:1036A000BB2311F1AD81BE81ED91FC911197048492
:1036B000F585E02D9701A3014C195D09B4016A0D50
:1036C0007B1DCD011995AD81BE81ED91FC911197C6
:1036D0000484F585E02D9701A3014A195B09B60121
:1036E000680D791DCD011995BB81BB2311F1AD8109
:1036F000BE81ED91FC9111970484F585E02D970131
:10370000A3014A0D5B1DB4016C197D09CD0119950A
:10371000AD81BE81ED91FC9111970484F585E02D7A
:103720009701A601460D571DB4016A197B09CD0109
:103730001995BC81BB2309F478CFAD81BE81ED9191
:10374000FC9111970484F585E02D9701A3014A1996
:103750005B09B4016C197D09CD011995AD81BE815C
:10376000ED91FC9111970484F585E02D9701A3015B
:103770004C195D09B4016A197B09CD01199555CF22
:1037800026960FB6F894DEBF0FBECDBFDF91CF9166
:103790001F910F91FF90EF90DF90CF90BF90AF906F
:1037A0009F908F907F906F905F904F903F902F9061
:1037B00008956F927F928F929F92AF92BF92CF9215
:1037C000DF92EF92FF920F931F93CF93DF935C01F1
:1037D000EB016A01490138018701DC01ED91FC919F
:1037E0006217730719F5641675062CF0962D872D50
:1037F0003A01C92ED82E9601261937092F5F3F4F5F
:10380000048CF58DE02DA301BE01C5011995DF9152
:10381000CF911F910F91FF90EF90DF90CF90BF90CD
:10382000AF909F908F907F906F90089546155705A9
:1038300091F42617370724F0892D4B01C22FD82F7A
:103840009E01281939092F5F3F4F068CF78DE02D17
:10385000A601B401DACF0284F385E02D1995D501D4
:10386000ED91FC910488F589E02D83019401A60176
:10387000BE01C5011995D501ED91FC910688F78926
:10388000E02DC501DF91CF911F910F91FF90EF9037
:10389000DF90CF90BF90AF909F908F907F906F9070
:1038A0001994EF92FF920F931F93DC011A960D91DA
:1038B0001C911B9718962D913C911997ED91FC91B5
:1038C00000A0F1A1E02D7B0150E040E070E060E05D
:1038D00019951F910F91FF90EF9008954F925F926D
:1038E0006F927F928F929F92AF92BF92CF92DF9210
:1038F000EF92FF920F931F93CF93DF936C012B01F5
:103900005A0139014801DC01ED91FC910284F385F3
:10391000E02D1995E201640C751CD601ED91FC9126
:10392000C615D7055CF40088F189E02D8701940164
:10393000A501BE01C60119952196EFCF0688F7892A
:10394000E02DC601DF91CF911F910F91FF90EF9075
:10395000DF90CF90BF90AF909F908F907F906F90AF
:103960005F904F9019948F929F92AF92BF92CF9297
:10397000DF92EF92FF920F931F93CF93DF93EC01AF
:103980005B014A016901E881F9810284F385E02D38
:10399000199595012C0D3D1D21503109E881F981C2
:1039A0000488F589E02D78018401A401B501CE01D8
:1039B0001995E881F9810688F789E02DCE01DF911C
:1039C000CF911F910F91FF90EF90DF90CF90BF901C
:1039D000AF909F908F9019948F929F92AF92BF92C9
:1039E000CF92DF92EF92FF920F931F93CF93DF93CB
:1039F000EC015B014A0169017801E881F9810284E7
:103A0000F385E02D1995C80CD91C860101501109C8
:103A1000E881F9810488F589E02D9501A401B501BB
:103A2000CE011995E881F9810688F789E02DCE014C
:103A3000DF91CF911F910F91FF90EF90DF90CF908A
:103A4000BF90AF909F908F9019940895EF92FF923E
:103A50000F931F93DC01ED91FC9100A0F1A1E02DEB
:103A600019951F910F91FF90EF9008950F931F9359
:103A7000DC01ED91FC91068CF78DE02D19951F91DD
:103A80000F9108950F931F93DC01ED91FC91048C2D
:103A9000F58DE02D19951F910F910895DC01ED91A1
:103AA000FC910084F185E02D19942F923F924F9262
:103AB0005F926F927F928F929F92AF92BF92CF92BE
:103AC000DF92EF92FF920F931F93CF93DF9300D07B
:103AD00000D0CDB7DEB73C016A013E832D83FC8266
:103AE000EB825801A41AB50AB7FE03C0B194A194A1
:103AF000B1088D809E80861A970A97FE03C0919424
:103B0000819491088A149B045CF0902F812F0D8181
:103B10001E819D838E839C2D8D2D6B01692F782FA7
:103B20000C151D055CF09D818E817E836D83692F50
:103B3000782F902F812F8601C92ED82E1601201A9A
:103B4000310A2B012D813E81421A530A57FE03C0D0
:103B5000519441945108710137FE03C03FEFE31ABD
:103B6000F30AF594E7948D819E81861797075CF59B
:103B7000A1E0B0E0BA83A983C016D1064CF1D3010D
:103B8000ED91FC910484F585E02D2B813C81A80109
:103B90006D817E818A149B041CF04D815E81B80189
:103BA000C3011995E418F508F7FE0AC02D813E817E
:103BB00089819A81280F391F3E832D83E20CF31CE3
:103BC0000F5F1F4FD9CF2FEF3FEF3A832983D4CF19
:103BD00026960FB6F894DEBF0FBECDBFDF91CF9112
:103BE0001F910F91FF90EF90DF90CF90BF90AF901B
:103BF0009F908F907F906F905F904F903F902F900D
:103C00000895089590E080E00895DC0180E061501F
:103C100090F09D919827E92FEF70F0E0E453FE4F6C
:103C20002491E92FE295EF70F0E0E452FE4FE49129
:103C3000822F8E27ECCF0895FC01138615861486FB
:103C400012861186108617821682158214821382BC
:103C50000895DC012C911196ED91FC91F8948181ED
:103C6000822B81839281322F30959323928387E038
:103C700090E00197F1F781818323818383E290E0D3
:103C80000197F1F790817894EFECF0E03197F1F73C
:103C9000922381E009F480E00895FC019081018085
:103CA000F281E02D292F209560FF14C0F8948281C5
:103CB000822382838181892B8183A3E2B0E01197E3
:103CC000F1F78281982B9283789487ED90E00197A9
:103CD000F1F70895F8948281822382838181892B70
:103CE0008183AFEFB0E01197F1F78281982B928337
:103CF00078948FE090E0EBCFDF92EF92FF920F93FA
:103D00001F93CF93DF93EC01D62EE42E08E010E052
:103D1000FF24F39461E08D2D8F2109F460E0CE0142
:103D20000E944D1EFF0C01501109A1F7E11010C0B7
:103D3000F894E981FA819181888180958923818332
:103D4000E981FA81928188818095892382837894A0
:103D5000DF91CF911F910F91FF90EF90DF90089529
:103D6000EF92FF920F931F93CF93DF938C017B0110
:103D700040E065E50E947C1EE70188E0E80EF11C4A
:103D8000699140E0C8010E947C1ECE15DF05C1F795
:103D9000DF91CF911F910F91FF90EF900895FC015B
:103DA00090810180F281E02DF8948181292F209566
:103DB0008223818378943DE743E050E0315029F13C
:103DC000DA011197F1F780818923C1F3F894828198
:103DD000822382838181892B81837894ABE7B7E04A
:103DE0001197F1F7F894818182238183A3E1B1E0F7
:103DF0001197F1F78081982381E009F080E07894B1
:103E0000E3E6F6E03197F1F7089580E008958F92A8
:103E10009F92AF92BF92CF92DF92EF92FF92CF9399
:103E2000DF9300D01F921F92CDB7DEB78091DD04E3
:103E30009091DE040E94CF1E40E06CEC8091DD0486
:103E40009091DE040E947C1E4091D40464E4809131
:103E5000DD049091DE040E947C1E0E94540A6B01D6
:103E60007C018091D80481111EC081E08983CA82BF
:103E7000DB82EC82FD8229813A814B815C816D81FC
:103E800070E080E090E00F900F900F900F900F90F7
:103E9000DF91CF91FF90EF90DF90CF90BF90AF90E8
:103EA0009F908F9008958091D9048823C1F08091CC
:103EB000D404811114C08091DD049091DE040E942D
:103EC000291E813091F20E94540A6C197D098E09D5
:103ED0009F096E3E72408105910568F3C6CFE0915F
:103EE000D704E9508EEE92E0E33038F4F0E0EE0FC4
:103EF000FF1FEC5BFD4F808191814C01B12CA12C07
:103F00008091D504882329F060E08091D6040E9436
:103F10006E08C501B4010E94210A8091D50488234E
:103F200009F4A3CF61E08091D6040E946E089DCF72
:103F30006F927F928F929F92AF92BF92CF92DF92B9
:103F4000EF92FF920F931F93CF93DF938C01EB01BE
:103F50008091DD049091DE040E94CF1E882309F435
:103F60003FC0B8018091DD049091DE040E94B01E34
:103F700040E06EEB8091DD049091DE040E947C1E97
:103F80007E016E0189E0C80ED11C8E01A090DD0477
:103F9000B090DE0488E0882E912C712C6624639406
:103FA000C5010E94291E81117628660CE1E08E1A57
:103FB0009108B1F7F80171928F01CE16DF0631F743
:103FC0008091DD049091DE040E94CF1E813041F487
:103FD000F70181917F01811105C0E017F107C1F759
:103FE00090E008C068E0CE010E94051E91E028859F
:103FF0002813F6CF892FDF91CF911F910F91FF905A
:10400000EF90DF90CF90BF90AF909F908F907F9078
:104010006F900895CF93DF93C0911404D09115044D
:1040200088810E9445089F838E8389810E94DF09D1
:1040300041E050E02E853F852817390714F050E005
:1040400040E0598748872E813F818A859B852817C4
:10405000390741F08A819B812417350741F0019788
:104060009B838A833B872A87DF91CF9108950196AE
:10407000F7CFEF92FF920F931F93DC011A960D91E9
:104080001C911B9718962D913C911997ED91FC91DD
:1040900000A0F1A1E02D7B0150E040E070E060E085
:1040A00019951F910F91FF90EF900895FB010190DA
:1040B0000020E9F73197AF01461B570BDC01ED916A
:1040C000FC910280F381E02D19948F929F92AF9220
:1040D000BF920F931F93CF93DF93CDB7DEB7A19716
:1040E0000FB6F894DEBF0FBECDBF19A2423008F460
:1040F0004AE08E010F5D1F4F842E912CB12CA12C14
:10410000A50194010E94603EE62FB901CA01EA3080
:1041100004F5E05DD801EE938D01232B242B252B94
:1041200079F790E080E0109729F0BD0185E294E0F6
:104130000E945620A1960FB6F894DEBF0FBECDBFE9
:10414000DF91CF911F910F91BF90AF909F908F9073
:104150000895E95CDFCFCF93DF93BC0185E294E063
:104160000E945620EC0160E972E085E294E00E9432
:1041700056208C0F9D1FDF91CF9108956115710519
:1041800011F00C94562090E080E008952F923F9219
:104190004F925F926F927F928F929F92AF92BF9257
:1041A000CF92DF92EF92FF920F931F93CF93DF9303
:1041B000CDB7DEB72E970FB6F894DEBF0FBECDBFDA
:1041C0009E878D87DC011E962D903C901F971C9634
:1041D000ED91FC911D97FA83E98350962D913C91C6
:1041E00051973A8729871696CD90DC9017971896A5
:1041F000AD90BC90C601CA14DB0408F0C5019695C9
:10420000879596958795AD85BE858D909C901197E5
:10421000E82FF0E0FC83EB8314966D907C9015976B
:1042200012962D913C913E832D83CA14DB042CF40D
:10423000C601D7FE05C0019603C0C501B7FCFBCF80
:10424000959587954B805C80841595050CF42C0121
:10425000D401ED91FC910284F385E02DC401199500
:10426000F201EE0FFF1FF887EF832D813E81240DB1
:10427000351D3C872B8796012E1B3F0BD401ED91FA
:10428000FC910684F785E02D71018501A3016B8502
:104290007C85C4011995EF81F885AE1ABF0AF1E05B
:1042A000AF1AB108640C751C6D817E816C0D7D1D8B
:1042B00064197509615071096101750101E092018C
:1042C000A301C4010E94111A02E09201A3016B85AF
:1042D0007C85C4010E94111AD401ED91FC910688DD
:1042E000F789E02DC4011995ED85FE85C080D18048
:1042F000A084B184268037806480758022813381D8
:104300003E832D832A143B042CF4C10137FE05C0E3
:10431000019603C0C501B7FCFBCF959587958B80AF
:104320009C80881599050CF44C01D601ED91FC9107
:104330000284F385E02DC60119957401EE0CFF1C73
:10434000F101EE19FF09FC83EB834D805E80480C80
:10435000591CD601ED91FC910288F389E02D098169
:104360001A812B813C81A301B201C6011995F50187
:10437000E60DF71DF887EF83AF0141505109D601D3
:10438000ED91FC910288F389E02D09811A812B813E
:104390003C81B201C6011995F501EE19FF097F01B3
:1043A000680C791CD601ED91FC910088F189E02D13
:1043B00009811A819701A3016D817E81C60119953A
:1043C000AD80BE80A20CB31CB50161507109D6014D
:1043D000ED91FC910088F189E02D09811A81970106
:1043E000A301C6011995E980FA8001E09401A301B7
:1043F000B201C6010E94DF1AA818B908B1E0AB1AD1
:10440000B108E980FA8002E09401A301B501C60178
:104410000E94DF1A6F80788468187908E1E06E1ACC
:104420007108E980FA8004E09401A301B501C60196
:104430000E94DF1AE980FA8008E09401A301B2012A
:10444000C6010E94DF1AD601ED91FC910688F7891A
:10445000E02DC6011995AD85BE85ED91FC911197B2
:1044600018968D919C9119979695879514962D91F4
:104470003C911597820F931F1B962C91B4E02B9FB4
:104480008019910911246D857E856E5E7F4FDB0159
:104490000D900020E9F7AD0141505109461B570B23
:1044A000AD85BE8516962D913C911797369527952B
:1044B0001296ED90FC9013972E0D3F1D1A96FC90CE
:1044C00013E0F19ED0011124A49F7001A59FF00C70
:1044D000B49FF00C11242E193F0935872487978744
:1044E0008687AD85BE85ED91FC91119729853A852A
:1044F000338B228B318B208BED91FC9111971B9686
:104500008C911B971A969C91911101C091E0948B0C
:10451000811101C081E0858BAD85BE858D919C9117
:104520002E960FB6F894DEBF0FBECDBFDF91CF91B0
:104530001F910F91FF90EF90DF90CF90BF90AF90C1
:104540009F908F907F906F905F904F903F902F90B3
:104550000C94BE20FF920F931F93CF93DF93F82EFE
:10456000062FC7E0D0E010E061E0802F0E946E08C7
:104570008F2D0E9445080C2E01C0880F0A94EAF77F
:10458000182B60E0802F0E946E08219768F7812F1A
:10459000DF91CF911F910F91FF9008956F927F92BD
:1045A0008F929F92AF92BF92CF92DF92EF92FF9243
:1045B0000F931F93CF93DF93EC01162F00E0C12CD4
:1045C000D12C76018B810E944508892B31F060E067
:1045D00070E0CB010E94210AF5CF6FB6F8946A8192
:1045E0008B810E94AA22982E6A818B810E94AA2226
:1045F000782E6A818B810E94AA22882EB12CA12C50
:104600008C818A151B0469F060F061E08A810E9448
:104610006E0860E08A810E946E088FEFA81AB80ABF
:10462000EFCF6FBE872D90E0B0E0A0E0BA2FA92FAA
:10463000982F8827A9298829990C9908492D50E095
:1046400070E060E0742F662755274427842B952B54
:10465000A62BB72BC80ED91EEA1EFB1E60E070E029
:10466000CB010E94210A0F5F1013ACCF212F30E045
:1046700050E040E0C701B6010E942E3ECA01B901D8
:10468000DF91CF911F910F91FF90EF90DF90CF902E
:10469000BF90AF909F908F907F906F900895BF9242
:1046A000CF92DF92EF92FF920F931F93CF93DF93FE
:1046B000EC01B62EC72E8D85811105C0CE010E945A
:1046C000CF1E81110EC01B861D861C8680E0DF91E7
:1046D000CF911F910F91FF90EF90DF90CF90BF90FF
:1046E000089540E060EFCE010E947C1E01E0E12CC5
:1046F000D12C11E0CE010E94291EF82ECE010E947D
:10470000291E91E0F91218C0813099F51134D8F2C0
:10471000DB86D11002C081E08D878B81882399F2DE
:104720002396EB2DFC2DCF01089629912193E817B4
:10473000F907D9F781E0CBCFEE2DF0E0F8120FC0EA
:104740008B851817A0F4DE01AE0FBF1F13968C9156
:10475000802379F4F12C193008F41C87D12EEC0F4A
:10476000FD1F8381902F9095892383830AC0811335
:10477000F1CFFE01EE0DF11D8381802B8383FF2499
:10478000F3946F2DCE010E944D1E1F5F000F11F498
:10479000E39401E087E08E1508F0ACCFB7CF4F92DD
:1047A0005F926F927F928F929F92AF92BF92CF92C1
:1047B000DF92EF92FF920F931F93CF936B017C01D7
:1047C000742EAC019B010E94FF4063E972E08111ED
:1047D00026C046015701E894B7F82FEF3FEF4FE7A7
:1047E0005FE7C501B4010E94FF4081110CC02FEFAB
:1047F0003FEF4FE75FE7C501B4010E942E3F67E935
:1048000072E0181664F02FEF3FEF4FE75FE4C70147
:10481000B6010E948D401816ACF46BE972E085E297
:1048200094E0CF911F910F91FF90EF90DF90CF9088
:10483000BF90AF909F908F907F906F905F904F90C0
:104840000C9456202FEF3FEF4FE75FECC701B60106
:104850000E942E3F87FDE1CF20E030E0A901C70193
:10486000B6010E942E3F10E000E087FF0AC06DE213
:1048700085E294E00E94F70A8C01F7FAF094F7F8C9
:10488000F094C0E060E070E080E09FE37C1641F0CF
:1048900020E030E040E251E40E94333FCF5FF6CFAA
:1048A000A70196010E94C23E2B013C010E94AC3F31
:1048B0004B015C014AE00E9465207C01E00EF11E84
:1048C000CC23C1F1C501B4010E94DB3F9B01AC01C7
:1048D000C301B2010E94C13E4B015C016EE285E260
:1048E00094E00E94F70AE80EF91EC15018F120E08A
:1048F00030E040E251E4C501B4010E9492402B0136
:104900003C010E94AC3F4B01B12CA12C4AE0C501F7
:10491000B4010E946520E80EF91EC501B4010E9491
:10492000DB3F9B01AC01C301B2010E94C13E4B01C0
:104930005C01DBCFC701CF911F910F91FF90EF90EA
:10494000DF90CF90BF90AF909F908F907F906F90AF
:104950005F904F9008950E9445420C94BC411F9275
:104960000F920FB60F9211242F933F938F939F9323
:10497000AF93BF9380911C0490911D04A0911E04DD
:10498000B0911F0430911B0423E0230F2D3758F5FD
:104990000196A11DB11D20931B0480931C049093CC
:1049A0001D04A0931E04B0931F04809120049091D5
:1049B0002104A0912204B09123040196A11DB11DF0
:1049C0008093200490932104A0932204B0932304A5
:1049D000BF91AF919F918F913F912F910F900FBEFB
:1049E0000F901F90189526E8230F0296A11DB11D68
:1049F000D2CF1F920F920FB60F9211240BB60F92C7
:104A00002F933F934F935F936F937F938F939F93D6
:104A1000AF93BF93EF93FF93E0910E02F0910F02DB
:104A20001995FF91EF91BF91AF919F918F917F91D8
:104A30006F915F914F913F912F910F900BBE0F900F
:104A40000FBE0F901F9018951F920F920FB60F92E6
:104A500011240BB60F922F933F934F935F936F9355
:104A60007F938F939F93AF93BF93EF93FF93E091C7
:104A70000C02F0910D021995FF91EF91BF91AF914A
:104A80009F918F917F916F915F914F913F912F9166
:104A90000F900BBE0F900FBE0F901F9018951F9296
:104AA0000F920FB60F9211240BB60F922F933F93D4
:104AB0004F935F936F937F938F939F93AF93BF9326
:104AC000EF93FF93E0910202F09103021995FF9199
:104AD000EF91BF91AF919F918F917F916F915F9176
:104AE0004F913F912F910F900BBE0F900FBE0F90E3
:104AF0001F9018951F920F920FB60F9211240BB6AC
:104B00000F922F933F934F935F936F937F938F9366
:104B10009F93AF93BF93EF93FF93E0910002F091C7
:104B200001021995FF91EF91BF91AF919F918F91E4
:104B30007F916F915F914F913F912F910F900BBE9D
:104B40000F900FBE0F901F9018951F920F920FB6E7
:104B50000F9211240BB60F922F933F934F935F93B5
:104B60006F937F938F939F93AF93BF93EF93FF9335
:104B7000E0910A02F0910B021995FF91EF91BF911C
:104B8000AF919F918F917F916F915F914F913F91E5
:104B90002F910F900BBE0F900FBE0F901F90189586
:104BA0001F920F920FB60F9211240BB60F922F93F4
:104BB0003F934F935F936F937F938F939F93AF93A5
:104BC000BF93EF93FF93E0910802F09109021995CA
:104BD000FF91EF91BF91AF919F918F917F916F91D5
:104BE0005F914F913F912F910F900BBE0F900FBE91
:104BF0000F901F9018951F920F920FB60F921124CD
:104C00000BB60F922F933F934F935F936F937F93C6
:104C10008F939F93AF93BF93EF93FF93E09106021F
:104C2000F09107021995FF91EF91BF91AF919F917C
:104C30008F917F916F915F914F913F912F910F9045
:104C40000BBE0F900FBE0F901F9018951F920F92E2
:104C50000FB60F9211240BB60F922F933F934F93E1
:104C60005F936F937F938F939F93AF93BF93EF93D4
:104C7000FF93E0910402F09105021995FF91EF91E5
:104C8000BF91AF919F918F917F916F915F914F9164
:104C90003F912F910F900BBE0F900FBE0F901F9062
:104CA00018951F920F920FB60F9211240BB60F9208
:104CB0002F933F934F935F936F937F938F939F9324
:104CC000AF93BF93EF93FF9385E294E00E94D50AE0
:104CD000FF91EF91BF91AF919F918F917F916F91D4
:104CE0005F914F913F912F910F900BBE0F900FBE90
:104CF0000F901F9018951F920F920FB60F921124CC
:104D00000BB60F922F938F939F93EF93FF93E091A6
:104D10003504F09136048081E0913B04F0913C042D
:104D200082FD1DC0908180913E048F5F8F73209122
:104D30003F04821741F0E0913E04F0E0EB5DFB4F51
:104D4000958F80933E04FF91EF919F918F912F91CA
:104D50000F900BBE0F900FBE0F901F901895808183
:104D6000F2CF1F920F920FB60F9211240BB60F9233
:104D70002F933F934F935F936F937F938F939F9363
:104D8000AF93BF93EF93FF93F0E0E0E01995FF91AD
:104D9000EF91BF91AF919F918F917F916F915F91B3
:104DA0004F913F912F910F900BBE0F900FBE0F9020
:104DB0001F9018954F925F926F927F92AF92BF9221
:104DC000CF92DF92EF92FF921F93CF93DF931092D7
:104DD00028041092270488EE93E0A0E0B0E08093CE
:104DE000290490932A04A0932B04B0932C048EE4FE
:104DF00092E0909326048093250485EC90E09093B4
:104E000032048093310484EC90E0909334048093D6
:104E1000330480EC90E0909336048093350481EC69
:104E200090E0909338048093370482EC90E0909364
:104E30003A048093390486EC90E090933C0480938C
:104E40003B0410923E0410923F04109240041092D2
:104E5000410460E087E10E94AE09E3ECFEE0E491EA
:104E6000E093C604E3E2FFE0E491F0E0EE0FFF1F01
:104E7000EE56F14F859194919093C8048093C704A6
:104E800086EC94E00E941C1E1092EA041092E90441
:104E90001092D50486EC94E09093DE048093DD04B8
:104EA0001092DB041092DC041092D40489E0809309
:104EB000D704C1E0C093D804C093D904C093DA04E6
:104EC0000E94540A6093EF047093F0048093F104FD
:104ED0009093F20486E08093F50480E090E0A8E4EB
:104EE000B2E48093F6049093F704A093F804B0938F
:104EF000F9041092FB041092FC041092FD0410922D
:104F0000FE041092FF041092000510920105109209
:104F100002051092030510920405109205051092E7
:104F200006051092070522E635E030930905209327
:104F300008052EE535E030930B0520930A0526E69B
:104F400035E030930D0520930C0510920E0510925C
:104F50000F05109210051092110540E050E06FE728
:104F600073E44093120550931305609314057093F6
:104F7000150510922605109227051092280510920B
:104F8000290510922A0510922B0510922C051092DB
:104F90002D0510922E0510922F05109230051092BB
:104FA0003105C093FA0444E650E060E070E04093BD
:104FB00016055093170560931805709319054091D5
:104FC0005E0550915F0560916005709161054093A9
:104FD0001A0550931B0560931C0570931D052BE06B
:104FE000209332051092330526E030E030933D05E2
:104FF00020933C0510924E0510924F0510925005DB
:10500000109251058093560590935705A09358052B
:10501000B093590580E090E4ACE9B6E480933405A0
:1050200090933505A0933605B093370580E090E462
:10503000ACE1B6E48093380590933905A0933A0526
:10504000B0933B0581E490E090933F0580933E054B
:1050500080E19BEEA9E0B0E080934005909341058C
:10506000A0934205B093430564E070E082E490E0D1
:105070000E9404418093480590934905EC01F12C6E
:10508000E12CB70190E080E00E94DB3F20E030E0BF
:1050900040E85CE30E9492406993799389939993E5
:1050A0008FEFE81AF80AA2E4EA16F10451F780E05B
:1050B00090E0A0EAB1E480935A0590935B05A09339
:1050C0005C05B0935D0518E2EAE6F5E0DF01812FAB
:1050D0001D928A95E9F780E090E0A0E4B0E4809327
:1050E000920590939305A0939405B09395058AE952
:1050F00099E9A9E1B0E48093960590939705A09370
:105100009805B093990510929A0510929B051092FC
:105110009C0510929D0580E090E0A4E3B2E48093AA
:105120009E0590939F05A093A005B093A1051092B2
:10513000A20580E6A82E82E0B82EB092A405A09227
:10514000A3051092A8051092A9051092AA05109225
:10515000AB05C12CD12C90E8E92E9FE3F92EC0922B
:10516000AC05D092AD05E092AE05F092AF05C092CD
:10517000B305D092B405E092B505F092B605109251
:10518000B7051092B8051092B9051092BA051092A1
:10519000BB051092BC051092BD051092BE05109281
:1051A000BF0524E6422E512C612C712C4092C00583
:1051B0005092C1056092C2057092C3050E94540AC4
:1051C0006093C4057093C5058093C6059093C70589
:1051D0008DE08093C80586E28093C90585E28093BF
:1051E000CA051092CB051092D7051092D6051092E1
:1051F000CD051092CC051092E2051092E3051092B5
:10520000E4051092E505C0E0D8E0D093D305C09343
:10521000D2058CE290E09093D9058093D8058EE278
:1052200090E09093DB058093DA058DE290E0909317
:10523000DD058093DC058FE290E09093DF0580939D
:10524000DE0561E08CE20E94AE0961E08091DA0542
:105250000E94AE0961E08091DC050E94AE0961E028
:105260008091DE050E94AE091092E1051092E005E2
:1052700084E090E09093D5058093D405B092E70543
:10528000A092E6051092EB051092EC051092ED0548
:105290001092EE05C092EF05D092F005E092F10574
:1052A000F092F205D093F405C093F305C092F9058E
:1052B000D092FA05E092FB05F092FC051092FD05F4
:1052C0001092FE051092FF05109200068EE690E007
:1052D0009093020680930106109204061092030632
:1052E0001092050610920606109207061092080604
:1052F0004092090650920A0660920B0670920C06C4
:105300000E94540A60930D0670930E0680930F0658
:10531000909310068CE08093150610921806D09397
:10532000F405C093F30581E69BE0A6EBB0E480931F
:10533000F5059093F605A093F705B093F8058CE278
:10534000809311068EE2809312068DE280931306FD
:105350008FE28093140682E28093160683E28093A4
:10536000170689E28093190610931A068AE2809341
:105370001B0685E180931E0684E480931F0610922D
:1053800021061092200681E090E0909323068093FE
:1053900022068CE593E090932D0680932C0684E4FE
:1053A00091E090932F0680932E0685E4809330063B
:1053B00080E090E0A4E8B2E4809331069093320656
:1053C000A0933306B093340680E090E4ACE1B5E4FA
:1053D0008093350690933606A0933706B09338062F
:1053E00089E490E090933A068093390688EC90E047
:1053F00090933C0680933B068AE999E9A9E1B0ECD9
:1054000080933D0690933E06A0933F06B0934006DE
:1054100080E090E0A0E2B0E48093410690934206E1
:10542000A0934306B093440680E090E0A0E6B0EC81
:105430008093450690934606A0934706B09348068E
:1054400080E090E0A0E6B0E48093490690934A069D
:10545000A0934B06B0934C0610924D0610924E0648
:1054600080E090E0A6E1B3E480934F06909350066D
:10547000A0935106B093520680E090E0A6EEB2E40D
:105480008093530690935406A0935506B093560606
:1054900080E090E0A0E2B1E4809357069093580634
:1054A000A0935906B0935A0610925B0610925C06C0
:1054B00010925D0610925E0610926D0610926E06B6
:1054C0000E94540A60936F06709370068093710671
:1054D00090937206109273061092D3061092D20621
:1054E0001092B5061092B406109297061092960686
:1054F000109279061092780610928707109286070C
:10550000109269071092680710924B0710924A0791
:1055100010922D0710922C0710920F0710920E0771
:105520001092F1061092F00610921D0810921C08BD
:105530001092FF071092FE071092E1071092E00709
:105540001092C3071092C2071092A5071092A407E9
:105550001092D1081092D0081092B3081092B2089D
:10556000109295081092940810927708109276087D
:10557000109259081092580810923B0810923A085D
:105580001092C1091092C0091092A3091092A209A9
:105590001092850910928409109267091092660989
:1055A000109249091092480910922B0910922A0969
:1055B00010920D0910920C091092EF081092EE084B
:1055C00089E38093150A88E38093170A89E0809322
:1055D000160A88E08093180A8CE291E090931A0AE8
:1055E0008093190AE4E1FFE0E491F0E0EE0FFF1F81
:1055F000EE50F14F8591949190931C0A80931B0A71
:10560000E5E4FFE0E491F0E0EE0FFF1FEE50F14F14
:105610008591949190931E0A80931D0AE4E4FFE023
:10562000E491F0E0EE0FFF1FEE50F14F8591949161
:105630009093200A80931F0AE5E1FFE0E491F0E0F7
:10564000EE0FFF1FEE50F14F859194919093220A37
:105650008093210AE4EBFEE0E491E093230AE5EE77
:10566000FEE0E491E093250AE4EEFEE0E491E093AD
:10567000240AE5EBFEE0E491E093260A8AE090E05C
:105680009093140A8093130A1092E1091092E00992
:1056900020EF30E03093E3092093E20980E491E0C9
:1056A0009093E5098093E4093093E7092093E60994
:1056B0009093E9098093E8091092F4091092EB099C
:1056C0001092EA091092ED091092EC0981E08093A2
:1056D000F3098093F2092FEF3FEF3093F109209304
:1056E000F0093093EF092093EE098093F5091092A9
:1056F000F6091092F8091092F70988E692E0909363
:10570000DF098093DE09DF91CF911F91FF90EF9029
:10571000DF90CF90BF90AF907F906F905F904F9051
:105720000895CF93DF93CDB7DEB7C055D1090FB63B
:10573000F894DEBF0FBECDBF789484B5826084BD7F
:1057400084B5816084BD85B5826085BD85B5816085
:1057500085BD80916E00816080936E001092810003
:1057600080918100826080938100809181008160BE
:10577000809381008091800081608093800080917F
:10578000B10084608093B1008091B000816080930B
:10579000B00080919100826080939100809191008F
:1057A000816080939100809190008160809390004F
:1057B0008091A10082608093A1008091A10081600E
:1057C0008093A1008091A00081608093A0008091CF
:1057D0002101826080932101809121018160809369
:1057E00021018091200181608093200180917A00C5
:1057F000846080937A0080917A00826080937A003E
:1058000080917A00816080937A0080917A0080682C
:1058100080937A001092C100E0913504F091360433
:1058200082E08083E0913104F09132041082E091B3
:105830003304F091340480E1808310923D04E091C0
:105840003904F0913A0486E08083E0913704F091C6
:105850003804808180618083E0913704F0913804BE
:10586000808188608083E0913704F09138048081E2
:1058700080688083E0913704F091380480818F7DC7
:10588000808368EE73E080E090E00E94210A8FE957
:1058900092E00E94AB2068EB7BE080E090E00E9409
:1058A000210A60E090E080E00E94100E7C018830C8
:1058B00024E5920779F18032944561F189E8E81690
:1058C000F80609F446C160E087E690E00E94100EF9
:1058D00037E4E32E33E8F32E87349744D9F08FEE84
:1058E00090E00E941F0F7B016732734999F081EAB3
:1058F00090E00E94000F23E6E22E29E1F22E6130B3
:10590000E1E67E0739F06F3F7607C1F596E2E92EB2
:1059100095E1F92E0E94E10D1092FA091092F90911
:10592000F092FE09E092FD09F1E3EF16F0E8FF06C0
:1059300009F43BC608F0F1C133E5E31630E2F306A3
:1059400009F48DC608F078C191E1E91695E1F906F0
:1059500009F4D7C208F028C1B9E9EB16F10409F43B
:1059600034C608F00AC180E091E1EA94EF2809F416
:1059700012C11092E3091092E209C0C261152FEF23
:10598000720729F480E2E82E85E1F82EC3CF91EA70
:10599000E92E95E0F92E6115704F09F4BBCF8FEB1E
:1059A00090E00E941F0F7B0187E5E81683E8F80668
:1059B00009F4B0CF91E8E91694E9F90609F4AACF01
:1059C000A1E1EA16A5E1FA0609F4A4CFB0E2EB16CC
:1059D000B5E1FB06B9F2E6E2EE16E5E1FE0609F4F2
:1059E00095CFF1E8EF16F5E1FF0609F493CFE11446
:1059F00024E1F20609F4B2C084ED90E00E94000FA9
:105A00007B016031734509F485CF87ED90E00E94FA
:105A1000000F7B0181E3E81680E8F80609F47ACFED
:105A20008EEF90E00E94000F672F782F892F992723
:105A30007B0193E5E91690E2F90609F46BCF84E067
:105A400090E00E94000F7B01833E39F4672B09F040
:105A50005DC0E12CB3EEFB2E5DCF811157C0611507
:105A6000704809F053C08091160290911702A091DE
:105A7000180289839A83AB83AE014F5F5F4F63E067
:105A800089EB90E00E94420C60E080ED90E00E9483
:105A9000100EF9E9EF2EF12C893909F43BCFA0E97A
:105AA000EA2EFE2C803909F435CF83ED90E00E9478
:105AB000000F672F782F892F99277B016336714953
:105AC00009F428CF83ED90E00E94000F872FE62E87
:105AD000F72E99E2E91692E3F90609F41BCF8359F0
