:100000000C94C9070C94FA070C94FA070C94FA079D
:100010000C94FA070C94FA070C94FA070C94FA075C
:100020000C94FA070C94FA070C94FA070C94FA074C
:100030000C94FA070C94FA070C94FA070C94FA073C
:100040000C94FA070C94FA070C94FA070C94FA072C
:100050000C9446250C94FA070C94FA070C949C24F3
:100060000C94FA070C9410250C94E6240C94FA07CF
:100070000C94FA070C94FA070C94FA070C94FA07FC
:100080000C94FA070C94FA070C94FA070C94FA07EC
:100090000C94FA070C94FA070C94FA070C94FA07DC
:1000A0000C94FA070C94FA070C94FA070C94FA07CC
:1000B0000C94FA070C94FA070C94FA070C94FA07BC
:1000C0000C94FA070C94FA070C94FA070C94FA07AC
:1000D0000C94FA070C94FA070C94FA070C94FA079C
:1000E0000C94FA070C942F080C9447080C94780A87
:1000F0000C9424080C949F3B0C94CA1E0C943B0A4D
:100100000C94C0090C94DD0A0C949A240C945B089E
:100110000C94550A0C94420D0C949A090C94C21636
:100120000C942E0D0C9439080C94D3200C94A60A30
:100130000C94EF1D0C9458150C94F20C0C94EE1DBD
:100140000C9458090C94260E0C94AF090C94510889
:100150000C94D50D0C94E70A0C9455080C94880A5D
:100160000C942C080C947F090C945F080C94640A7E
:100170000C9420080C941F0D0C94431C0C944C09F7
:100180000C94711B0C941A080C94A3090C94BF0ACC
:100190000C94D30A0C9443080C945A0A0C94171E1E
:1001A0000C94880D0C9469090C94B50A0C946E0A91
:1001B0000C949C0A0C940B1E0C94FF1D0C94500D77
:1001C0000C9406120C943F080C94DE120C94800AD6
:1001D0000C949C090C94C7090C940F190C94A21C44
:1001E0000C9428080C94C90A0C945A080C941E1EEE
:1001F0000C944D080C94920A0C94CB1E0C9422196A
:100200000C9435080C946F25005EBCE2613FDD83E1
:10021000C29C7E20A3FD1F41009D23BE46DB65F8E6
:100220008C11AF32CA57E97400000000003E5B4FEA
:100230005B3E3E6B4F6B3E1C3E7C3E1C183C7E3C46
:10024000181C577D571C1C5E7F5E1C00183C180054
:10025000FFE7C3E7FF0018241800FFE7DBE7FF30E4
:10026000483A060E2629792926407F050507407F52
:1002700005253F5A3CE73C5A7F3E1C1C08081C1CC5
:100280003E7F14227F22145F5F005F5F06097F01BB
:100290007F006689956A606060606094A2FFA294A6
:1002A00008047E040810207E201008082A1C080874
:1002B0001C2A08081E101010100C1E0C1E0C3038C2
:1002C0003E3830060E3E0E06000000000000005FC3
:1002D00000000007000700147F147F14242A7F2ADF
:1002E00012231308646236495620500008070300A1
:1002F000001C2241000041221C002A1C7F1C2A08ED
:10030000083E08080080703000080808080800004F
:1003100060600020100804023E5149453E00427FC3
:10032000400072494949462141494D331814127F12
:100330001027454545393C4A4949314121110907B2
:100340003649494936464949291E00001400000033
:100350004034000000081422411414141414004105
:1003600022140802015909063E415D594E7C1211C2
:10037000127C7F494949363E414141227F414141FA
:100380003E7F494949417F090909013E4141517375
:100390007F0808087F00417F41002040413F017FE6
:1003A000081422417F404040407F021C027F7F04AE
:1003B00008107F3E4141413E7F090909063E4151F7
:1003C000215E7F09192946264949493203017F01E7
:1003D000033F4040403F1F2040201F3F4038403FE8
:1003E000631408146303047804036159494D4300FE
:1003F0007F4141410204081020004141417F040235
:1004000001020440404040400003070800205454CB
:1004100078407F28444438384444442838444428A9
:100420007F385454541800087E090218A4A49C78FC
:100430007F0804047800447D40002040403D007F58
:100440001028440000417F40007C047804787C0838
:100450000404783844444438FC182424181824240C
:1004600018FC7C08040408485454542404043F44F1
:10047000243C4040207C1C2040201C3C4030403C20
:1004800044281028444C9090907C4464544C440080
:1004900008364100000077000000413608000201E4
:1004A0000204023C2623263C1EA1A161123A4040D0
:1004B000207A38545455592155557941225454784D
:1004C00042215554784020545579400C1E527212E6
:1004D000395555555939545454593955545458006F
:1004E00000457C410002457D420001457C407D1273
:1004F00011127DF0282528F07C54554500205454D5
:100500007C547C0A097F4932494949323A4444447F
:100510003A324A4848303A4141217A3A42402078BA
:10052000009DA0A07D3D4242423D3D4040403D3CBB
:1005300024FF2424487E4943662B2FFC2F2BFF09E0
:1005400029F620C0887E09032054547941000044D4
:100550007D413048484A32384040227A007A0A0ABF
:10056000727D0D19317D2629292F28262929292632
:1005700030484D4020380808080808080808382F77
:1005800010C8ACBA2F102834FA00007B0000081401
:100590002A142222142A14085500550055AA55AAD7
:1005A00055AAFF55FF55FF000000FF00101010FF77
:1005B00000141414FF001010FF00FF1010F010F0D2
:1005C000141414FC001414F700FF0000FF00FF14C3
:1005D00014F404FC141417101F10101F101F14140F
:1005E000141F00101010F0000000001F1010101059
:1005F0001F10101010F010000000FF10101010104D
:1006000010101010FF10000000FF140000FF00FF8A
:1006100000001F10170000FC04F414141710171426
:1006200014F404F40000FF00F71414141414141448
:10063000F700F7141414171410101F101F141414BB
:10064000F4141010F010F000001F101F0000001F25
:1006500014000000FC140000F010F01010FF10FF58
:10066000141414FF141010101F00000000F010FFED
:10067000FFFFFFFFF0F0F0F0F0FFFFFF00000000D1
:1006800000FFFF0F0F0F0F0F3844443844FC4A4A55
:100690004A347E02020606027E027E02635549410A
:1006A000633844443C04407E201E2006027E020241
:1006B00099A5E7A5991C2A492A1C4C7201724C3055
:1006C0004A4D4D303048784830BC625A463D3E492C
:1006D0004949007E0101017E2A2A2A2A2A44445FD0
:1006E000444440514A444040444A51400000FF01C4
:1006F00003E080FF000008086B6B083612362436D2
:10070000060F090F06000018180000001010003036
:1007100040FF0101001F01011E00191D1712003CBE
:100720003C3C3C000000000011007F9629000100C5
:100730007F9628003A0155C0021010C10141C5043E
:1007400000228040360168B00100B102B011B4014E
:1007500002B60302023BB701C63A0155F704A9519C
:100760002C82B701C6E808408A00002919A533C0C9
:10077000020D0DC1024300C20100C504004800483B
:10078000B40100B60302023BE00F0F211C0B0E0860
:10079000499838091103141000E10F0F2F2B0C0E8C
:1007A00006477637071104231E00B00100B3040288
:1007B000000000B40100D003074218D10300071065
:1007C000D2020102D3020102D4020102C005123B8F
:1007D000000211C103101088C50103C60102C80C34
:1007E000003236450616377577540C00CC0100F6FA
:1007F00003010100CF03008130ED0464031281E89E
:1008000003851078CB05392C003402F70120EA0269
:100810000000B00100B102001BB40100C00121C101
:100820000111C5023F3CC701B5360148F20100265F
:100830000101E00F0F26240B0E0954A8460C1709DE
:100840000F0700E10F00191B0410072A47390306A0
:100850000630380F360100B80101C0010EB00100AA
:10086000C10410100202C006003500000102C501DB
:1008700004D2020104CA0100EA0180B903FF8357D0
:100880007F967F96B60125C0065050013C1E08B4E5
:10089000070240002A2A0D787F01F20B1616030882
:1008A00008080810041616FD03110235B2050C0CD9
:1008B000003333B70135BB012BC00104C20201FF75
:1008C000C30111C40120C6010FD002A4A1E00ED0C3
:1008D00000050E150D3743470915121619E10ED004
:1008E00000050D0C062D44400E1C1816193A015532
:1008F0007F0A06000700B1020012B40102B604002C
:10090000202700CA0101CB0103C001137F14C501D8
:10091000CCC60100C70104C80103CC0106CD011CEF
:10092000F9021515F3030A020AF603011000FA0092
:10093000FB00E2031E0254E001017F0AE001037F95
:100940000A01007F64E60303FFFFB0072400031FD2
:1009500001DF00B40803A0002E30000F00B607022C
:100960000D0010100008BA010FB8020701F00100D5
:100970007F01280011007F642900BE0606F001F007
:100980000000D0010DB00103E2013FC00122E201ED
:1009900000B00100C0010AB001000000000000002A
:1009A00000000000000000000000FFFF0F00000436
:1009B0000062080008080003000C01030B5A020340
:1009C0000609030317100403002305030017060399
:1009D00009630703090C08030C10090332221000F5
:1009E00016001100010112000000130001000001B7
:1009F0003003010137020301000D80020061020192
:100A0000B0C1FFFF3200010000010200000103003D
:100A10003010090001000C000000900000800F0061
:100A20000000100200001102EF0012020000130289
:100A30008F01000500000105000002055F000104B0
:100A4000010004040000FFFF320007000001FFFF67
:100A5000320000020000010200000000000000005F
:100A600000000000000000000100A4000100FFFFE2
:100A70000A00600000270800080830001402310056
:100A80001537320004063300160E340011223500EB
:100A900000153600078537000714380003143900A5
:100AA00020009000150010001004110037022900EA
:100AB00046002A00460007000000120089011300CA
:100AC0000011FFFF96001200B901010000010200B1
:100AD000000203003010090001000A0000000D00B0
:100AE00000000E003000610001006A00000080007C
:100AF00000008100000082005F009200000193006E
:100B00000107FFFF500007000001E500F078010039
:100B10000001020000020300301004000000050084
:100B2000000008000702090000000A0000000C0095
:100B300000000D0000000F00000010000000110078
:100B40000700120000001300000007000100FFFF73
:100B5000C8001000901611002702FFFF320012009B
:100B60000D00FFFF32001300001229000A002B00C5
:100B70000D00FFFF320020000000210000003000C7
:100B80000000310004043200030035000504360083
:100B900008083700070438000303390007073C0042
:100BA00004053D00080860000027610001006A009C
:100BB000000080000000810000008200000083002F
:100BC00000008400000085000000900010009200EA
:100BD000000007003301E500008000000100010073
:100BE00000010200000703003010040000000800AC
:100BF0000202090000000A0000000C0000000D00C5
:100C000000000F000000100000001100070012009B
:100C1000000013000000FFFF32001000B0171100A9
:100C20000700FFFF0A0012003A01FFFF0A0013004D
:100C3000001A29000C00FFFF0A00300000003100FC
:100C400005053200040035000600360007073700AE
:100C5000050138000200390007073C0004073D0089
:100C60000708600000A7610001006A000000210081
:100C700000002000000080000000810000008200D1
:100C80000000830000008400000085000000900048
:100C900010009200000093000300950010019700DF
:100CA00000009800000007007301FFFF3200010000
:100CB00000010200000703003010080002030900D1
:100CC00000000A00080010000000110005001200DA
:100CD000000013000000FFFF64001000B012FFFFCF
:100CE000320011000700FFFF320012008C001300D9
:100CF000001729002000FFFF320030000000310003
:100D000006013200010135000601360003023700FA
:100D1000000038000707390004023C0006013D00CE
:100D20000301600000A7610001009000300007008F
:100D30003301FFFF3200150030009A00100011004F
:100D40002000100028341200020013003810FFFFAA
:100D5000280012001200FFFF2800100020341300AA
:100D60004530FFFF46003000000031000204320031
:100D70000703330004033400040035000104360087
:100D80000707370005033800100639001006010078
:100D900000010200000303003010080008080A00E8
:100DA0000800600000276100010090003E019200F1
:100DB000000193000001A0000030A3001000070014
:100DC000010007002100070023000700330007008F
:100DD000330111001A001200213113006C001400BD
:100DE000494210000008FFFF0A0011001A01FFFF2E
:100DF0000A0011001A03FFFF0A0011001A07FFFF83
:100E00000A0011001A0FFFFF0A0011003A0FFFFF3E
:100E10001E0001002801020000010300301007003D
:100E20001210080003030B0000110C0000000F005B
:100E30000118150020005000010151000306520066
:100E4000080453000000540005065500060456002F
:100E50000303570003035800100059000010070057
:100E60001200FFFF28000700130007001700000012
:100E70002100240027002A002D003000330001014A
:100E80000000040107010A0100000A0B02090C0D11
:100E90000E0807030401000000000000000000002D
:100EA0000000000000000000000000000000000042
:100EB00000000000121110000000000000000000FF
:100EC0000000000000000000000000000000000022
:100ED00020002300260029002C002F0032000001F2
:100EE000000003010601090101021020200808107A
:100EF000204010204080020102010804020101028A
:100F00000408102040808040201008040201800462
:100F100002018040201008040201080402010102BD
:100F200004081020408001020408102040800000C6
:100F30002200250028002B002E0031003400020181
:100F40000000050108010B01050505050705080856
:100F50000808020202020A0A080804040404010143
:100F60000101010101010303030303030303040758
:100F700007070C0C0C0C0C0C0C0C020202020606EF
:100F80000606060606060B0B0B0B0B0B0B0B6F2551
:100F90009F3B11241FBECFEFD1E2DEBFCDBF00E0EB
:100FA0000CBF15E0A0E0B2E0E4EBFFE700E00BBF10
:100FB00002C007900D92A83DB107D9F72BE0A8ED2C
:100FC000B5E001C01D92A43EB207E1F717E0C8ECFE
:100FD000D7E000E006C021970109802FFE010E94A2
:100FE0001C3CC73CD10780E00807A9F70E942C2AC7
:100FF0000C94C83F0C9400008150823108F05AC014
:10100000E82FF0E08827E85FF74F8F4F0C941C3CE7
:1010100028082C081A08200824085A082F08350820
:1010200039083F08430847084D0851085A08550831
:101030005B085F08809180008F778093800008951F
:10104000809180008F7DF9CF80918000877FF5CFE0
:1010500084B58F7784BD089584B58F7DFBCF809153
:10106000B0008F778093B00008958091B0008F7D9D
:10107000F9CF809190008F778093900008958091B0
:1010800090008F7DF9CF80919000877FF5CF809180
:10109000A0008F778093A00008958091A0008F7D9D
:1010A000F9CF8091A000877FF5CF809120018F77C5
:1010B000809320010895809120018F7DF9CF809148
:1010C0002001877FF5CFCF93DF93282F30E0F90100
:1010D000E857F14F8491F901E851F14FD491F901AA
:1010E000E85BF04FC491CC23A1F081110E94FC0772
:1010F000EC2FF0E0EE0FFF1FE253F14FA591B491FA
:10110000EC91ED2381E090E009F480E0DF91CF9154
:10111000089580E090E0FACF1F93CF93DF93282FBC
:1011200030E0F901E857F14F8491F901E851F14FAE
:10113000D491F901E85BF04FC491CC23A9F0162FAC
:1011400081110E94FC07EC2FF0E0EE0FFF1FE25D23
:10115000F04FA591B4918FB7F894EC91111108C09C
:10116000D095DE23DC938FBFDF91CF911F9108953F
:10117000DE2BF8CFCF93DF93EC0180919207909113
:101180009307029749F4C130D10509F43DC07CF5BD
:1011900060E0209709F439C08091920790919307FD
:1011A000049749F4C130D10509F45EC00CF039C090
:1011B000209709F444C08091920790919307059776
:1011C00009F0E7C0CA30D10508F0E3C0FE01882766
:1011D000E351F74F8F4F0C941C3C4C095809690997
:1011E0007F099A099C09A309AF09C009C709C23040
:1011F000D105A9F060E0C330D10571F68091960762
:101200000E948C0860E006C061E0809196070E9411
:101210008C0861E0809198070E948C08BDCF61E046
:10122000EDCFC230D10539F1C330D10509F0C3CFBC
:1012300061E0809196070E948C0860E022C061E026
:10124000809196070E948C0860E0809198070E9428
:101250008C0861E080919A070E948C0860E0809180
:101260009C070E948C08A7CF60E0809196070E949F
:101270008C0861E0EACF60E0809196070E948C08BC
:1012800061E0809198070E948C0860E080919A0745
:101290000E948C0861E0E3CF60E0809196070E9495
:1012A0008C0861E0809198070E948C0861E00BC077
:1012B00060E0809196070E948C0861E08091980719
:1012C0000E948C0860E080919A070E948C0860E080
:1012D00010C060E0809196070E948C0861E08091C8
:1012E00098070E948C0860E080919A070E948C0801
:1012F00061E080919C070E948C0861E015C060E06D
:10130000809196070E948C0861E0809198070E9466
:101310008C0860E080919A070E948C0861E08091BF
:101320009C070E948C0860E080919E07DF91CF911E
:101330000C948C0861E0E4CF61E0809196070E94F4
:101340008C0860E0E2CF61E0809196070E948C08F3
:1013500060E0809198070E948C0861E0DBCF61E03B
:10136000809196070E948C0860E0809198070E9407
:101370008C0861E080919A070E948C0860E0CFCFD2
:1013800061E0809196070E948C0860E08BCF60E05E
:10139000F8CFDF91CF910895CF93DF9390E0FC01D8
:1013A000E851F14F2491885B904FFC018491882390
:1013B000D1F090E0880F991FFC01E259F14FA591FF
:1013C000B491FC01E25DF04FC591D49161110EC062
:1013D0009FB7F8948C91E22FE0958E238C9328810F
:1013E000E223E8839FBFDF91CF9108958FB7F894F0
:1013F000EC91E22BEC938FBFF6CFFF920F931F93EC
:10140000CF93DF93F82E0091DA07C02FD0E0109130
:10141000D90761E0812F0E94CC09209729F460E070
:10142000812F0E948C082BC0CF3FD10511F461E0C1
:10143000F7CFE12FF0E0E857F14FE491E150E231CE
:1014400008F0C5C0F0E08827E75DF54F8F4F0C949A
:101450001C3C3B0A550A5A0A640A6E0AE70A780AD3
:10146000800A880A920A9C0AA60AB50ABF0AE70AF5
:10147000C90AD30ADD0A84B5806884BD07BD80919E
:10148000D707FF2009F4A8C060E00E948C0861E043
:101490008091D8070E948C0881E08093DB07DF9160
:1014A000CF911F910F91FF90089584B5806284BD04
:1014B00008BDE5CF80918000806880938000D09344
:1014C0008900C0938800DBCF809180008062809388
:1014D0008000D0938B00C0938A00D1CF8091800090
:1014E000886080938000D0938D00C0938C00C7CF1C
:1014F0008091B00080688093B0000093B300BFCFAC
:101500008091B00080628093B0000093B400B7CFA8
:1015100080919000806880939000D0939900C09350
:101520009800ADCF80919000806280939000D0931E
:101530009B00C0939A00A3CF809190008860809315
:101540009000D0939D00C0939C0099CF8091A00003
:1015500080688093A0008091A0008F7B8093A00082
:10156000D093A900C093A8008ACF8091A000806288
:101570008093A000D093AB00C093AA0080CF80914D
:10158000A00088608093A000D093AD00C093AC0011
:1015900076CF80912001806880932001D09329012B
:1015A000C09328016CCF809120018062809320013C
:1015B000D0932B01C0932A0162CF809120018860D3
:1015C00080932001D0932D01C0932C0158CFC038B7
:1015D000D1050CF02CCF23CF61E00E948C0860E095
:1015E00057CF863308F0865320917B00982F987050
:1015F000277F922B90937B008770806480937C0080
:1016000080917A00806480937A0080917A0086FDD0
:10161000FCCF809178009091790008958091EE0739
:101620000E94F10ABC01990F880B990B0E94543D4E
:1016300020E030E040E85AE30E94093E20E030E438
:101640004CE955E40E94093E2091F3073091F407DC
:101650004091F5075091F6070E94383C2091EF0722
:101660003091F0074091F1075091F2070E94AA3C97
:101670000895CF92DF92EF92FF920E940E0B6B01C2
:101680007C0180910B088150823010F12091030879
:10169000309104084091050850910608C701B60131
:1016A0000E94043E87FD2BC0209107083091080856
:1016B0004091090850910A08C701B6010E94A53C53
:1016C000881F8827881FFF90EF90DF90CF900895A4
:1016D0002091FB073091FC074091FD075091FE07D8
:1016E000C701B6010E94043E87FD09C02091FF0793
:1016F000309100084091010850910208DDCF80E050
:10170000E2CF8091DC070E9463089093E307809307
:10171000E2078091DD070E94F10A41E050E020914C
:10172000EA073091EB072817390714F050E040E042
:101730005093E5074093E4072091E2073091E307D7
:101740008091E6079091E7072817390761F08091AB
:10175000DE079091DF072417350751F0019790932A
:10176000DF078093DE073093E7072093E6070895AD
:101770000196F5CF3FB7F8948091E2059091E3058B
:10178000A091E405B091E50526B5A89B05C02F3FC3
:1017900019F00196A11DB11D3FBFBA2FA92F982F97
:1017A0008827BC01CD01620F711D811D911D42E092
:1017B000660F771F881F991F4A95D1F708954F929A
:1017C0005F926F927F928F929F92AF92BF92EF92B1
:1017D000FF920F931F93CF93DF93EC0197FF04C009
:1017E000CC27DD27C81BD90B181619060CF061C0D1
:1017F00081E090E090938B0780938A0704E010E0EB
:101800008AE0E82EF12C209709F46FC00E94BA0BF1
:101810008090A0079090A107A090A207B090A30786
:101820002B013C01481859086A087B0880908C07F6
:1018300090908D07A0908E07B0908F0748145904A0
:101840006A047B0400F36093A0077093A107809360
:10185000A2079093A30780919407909195072091F8
:101860008A0730918B072130310559F50196909305
:1018700095078093940720919007309191078217E4
:10188000930721F410929507109294072197809165
:101890009407909195072091920730919307B70193
:1018A0002530310509F0B8010E94083C0E94BA08B1
:1018B000AACF892B09F4A2CF10928B0710928A0726
:1018C0009DCF892B41F4809190079091910790933F
:1018D00095078093940780919407909195070197BD
:1018E0009093950780939407D1CFDF91CF911F916B
:1018F0000F91FF90EF90BF90AF909F908F907F904F
:101900006F905F904F900895CF92DF92EF92FF9289
:10191000C090B307D090B407E090B507F090B60739
:10192000F7FAF094F7F8F0946091BF077091C00750
:10193000665F7F4F072E000C880B990B0E94543D69
:101940009B01AC01C701B6010E94093E0E941C3DEB
:10195000CB010E94DF0B82E08093D607FF90EF90CF
:10196000DF90CF9008958F929F92AF92BF92CF92C7
:10197000DF92EF92FF926B017C010E94BA0B4B0148
:101980005C01C114D104E104F104B9F00E94BA0B66
:10199000681979098A099B09683E73408105910598
:1019A00080F321E0C21AD108E108F10888EE880E20
:1019B00083E0981EA11CB11CE4CFFF90EF90DF9054
:1019C000CF90BF90AF909F908F9008952FB7F894CD
:1019D0006091DE057091DF058091E0059091E10551
:1019E0002FBF0895AF92BF92CF92DF92EF92FF92F6
:1019F0000F931F93CF93DF936C017B018B01040F37
:101A0000151FEB015E01AE18BF08C017D10759F0D2
:101A10006991D601ED91FC910190F081E02DC60114
:101A20001995892B79F7C501DF91CF911F910F91FE
:101A3000FF90EF90DF90CF90BF90AF900895FC01A2
:101A4000538D448D252F30E0842F90E0821B930B23
:101A5000541710F0CF96089501970895FC01918DC9
:101A6000828D981761F0A28DAE0FBF2FB11D5D96CC
:101A70008C91928D9F5F9F73928F90E008958FEF6E
:101A80009FEF0895FC01918D828D981731F0828D22
:101A9000E80FF11D858D90E008958FEF9FEF089579
:101AA000FC01918D228D892F90E0805C9F4F821BDD
:101AB00091098F739927089587EE95E00E94500D44
:101AC00021E0892B09F420E0822F0895FC01A48DE8
:101AD000A80FB92FB11DA35ABF4F2C91848D90E050
:101AE00001968F739927848FA689B7892C93A08933
:101AF000B1898C91837080648C93938D848D9813BD
:101B000006C00288F389E02D80818F7D808308954F
:101B1000EF92FF920F931F93CF93DF93EC0181E03D
:101B2000888F9B8D8C8D98131AC0E889F9898081E4
:101B300085FF15C09FB7F894EE89FF896083E88917
:101B4000F98980818370806480839FBF81E090E009
:101B5000DF91CF911F910F91FF90EF900895F62E96
:101B60000B8D10E00F5F1F4F0F731127E02E8C8D30
:101B70008E110CC00FB607FCFACFE889F989808175
:101B800085FFF5CFCE010E94660DF1CFEB8DEC0FF6
:101B9000FD2FF11DE35AFF4FF0829FB7F8940B8F92
:101BA000EA89FB8980818062CFCFCF93DF93EC01FC
:101BB000888D8823B9F0AA89BB89E889F9898C9135
:101BC00085FD03C0808186FD0DC00FB607FCF7CFF1
:101BD0008C9185FFF2CF808185FFEDCFCE010E94F1
:101BE000660DE9CFDF91CF91089580E090E0892BD9
:101BF00029F00E945C0D81110E94000080E090E0BD
:101C0000892B49F080E090E0892B29F00E940000A8
:101C100081110E94000080E090E0892B49F080E073
:101C200090E0892B29F00E94000081110E940000A1
:101C300080E090E0892B49F080E090E0892B29F04A
:101C40000E94000081110C940000089508950F93E4
:101C50001F93CF93DF93EC018B01FE0184913196AA
:101C6000649122968F3799F470E090E080E00E94B2
:101C7000B30C60E070E06E5F7F4F061B170B101611
:101C800011065CF3DF91CF911F910F9108958B980E
:101C90008A9890910201977890930201A5989EB13D
:101CA000977C9EB94091020190E09C0155E0220F83
:101CB000331F5A95E1F72076242B209302014EB171
:101CC0009C01220F331F220F331F2073242B2EB9A8
:101CD00044B39C01220F331F2072242B24BB4EB12E
:101CE0009C0135952795359527952870242B2EB97D
:101CF00020910201A3E095958795AA95E1F7887157
:101D0000822B809302018998899A50E040E046171F
:101D100008F045C0FE01E40FF51FE4918A9A809116
:101D20000201877880930201A5988EB1877C8EB9D5
:101D3000709102018E2F90E09C01E5E0220F331F8D
:101D4000EA95E1F72076272B209302017EB19C01D2
:101D5000220F331F220F331F2073272B2EB974B38A
:101D60009C01220F331F2072272B24BB7EB19C01C4
:101D700035952795359527952870272B2EB9E09115
:101D8000020123E0959587952A95E1F788718E2BBE
:101D9000809302018998899A4F5F5F4FB8CFC60F31
:101DA000D11D8B9A67CF8B988A9820910201277852
:101DB00020930201A5982EB1277C2EB970910201C3
:101DC000292F30E0F901A5E0EE0FFF1FAA95E1F7FA
:101DD000E076E72BE09302017EB1F901EE0FFF1FE1
:101DE000EE0FFF1FE073E72BEEB974B3F901EE0FAE
:101DF000FF1FE072E72BE4BB7EB1F901F595E79593
:101E0000F595E795E870E72BEEB970910201E3E0F4
:101E100035952795EA95E1F72871272B2093020144
:101E20008998899A20910201277820930201A59828
:101E30002EB1277C2EB9709102019C01F5E0880F2C
:101E4000991FFA95E1F78076872B809302017EB186
:101E5000C901880F991F880F991F8073872B8EB92E
:101E600074B3C901880F991F8072872B84BB7EB120
:101E7000C90195958795959587958870872B8EB91B
:101E800080910201F3E035952795FA95E1F72871E5
:101E9000282B209302018998899A8A9AFA01615025
:101EA00008F43EC0819190910201977890930201CD
:101EB000A5989EB1977C9EB94091020190E09C014B
:101EC00055E0220F331F5A95E1F72076242B2093FB
:101ED00002014EB19C01220F331F220F331F2073CA
:101EE000242B2EB944B39C01220F331F2072242BC4
:101EF00024BB4EB19C0135952795359527952870C3
:101F0000242B2EB92091020133E0959587953A95BF
:101F1000E1F78871822B809302018998899ABFCF5B
:101F20008B9A08958B988A98E2E0F1E020812778D7
:101F30002083A5982EB1277C2EB9A081292F30E0CF
:101F4000A901B5E0440F551FBA95E1F740764A2B39
:101F50004083AEB1A901440F551F440F551F407374
:101F60004A2B4EB9A4B3A901440F551F40724A2B06
:101F700044BBAEB1A9015595479555954795487015
:101F80004A2B4EB9408153E0359527955A95E1F794
:101F90002871242B20838998899A2081277820838F
:101FA000A5982EB1277C2EB940819C01A5E0880F11
:101FB000991FAA95E1F78076842B80834EB1C901E1
:101FC000880F991F880F991F8073842B8EB944B393
:101FD000C901880F991F8072842B84BB4EB1C9013F
:101FE00095958795959587958870842B8EB9808176
:101FF000B3E035952795BA95E1F72871282B208312
:102000008998899A8A9A808187788083A5988EB1E9
:10201000877C8EB94081872F90E09C0155E0220F8C
:10202000331F5A95E1F72076242B20834EB19C0173
:10203000220F331F220F331F2073242B2EB944B3DA
:102040009C01220F331F2072242B24BB4EB19C0114
:1020500035952795359527952870242B2EB9208105
:10206000A3E095958795AA95E1F78871822B8083E7
:102070008998899A808187788083A5988EB1877C9A
:102080008EB94081CB019B01B5E0220F331FBA9579
:10209000E1F72076242B20834EB19B01220F331FC2
:1020A000220F331F2073242B2EB944B39B01220F20
:1020B000331F2072242B24BB4EB19C0135952795EC
:1020C000359527952870242B2EB92081A3E095956E
:1020D0008795AA95E1F78871822B80838998899AE0
:1020E0008B9A089581E08093E605E1E0F1E080813C
:1020F000886780839D9A8DB188638DB9809A819A13
:10210000829A839A849A8B9A889A899A8C9A62E3A3
:1021100070E080E090E00E94B30C8C9864E670E080
:1021200080E090E00E94B30C8C9A64E670E080E05E
:1021300090E00E94B30C70E060E080EB90E00C94C3
:10214000920FEF92FF920F931F93CF93DF93EC01C7
:10215000E62E8091E605811102C00E9472108B98D4
:102160008A9880910201877880930201A5988EB1A8
:10217000877C8EB980910201809302018EB18EB965
:1021800084B384BB8EB18EB9809102018093020129
:102190008998899A80910201877880930201A59895
:1021A0008EB1877C8EB920910201CE0115E0880F97
:1021B000991F1A95E1F78076822B809302012EB148
:1021C000CE01880F991F880F991F8073822B8EB9BB
:1021D00024B3CE01880F991F8072822B84BB2EB14D
:1021E000CE0195958795959587958870822B8EB9A8
:1021F0008091020153E0D595C7955A95E1F7C871D2
:10220000C82BC09302018998899A8A9A809101010A
:102210008778809301019D988DB1877C8DB961E0AD
:1022200070E080E090E00E94B30C61E070E080E03C
:1022300090E00E94B30C889A889888988898D091EA
:1022400000011CB102B3CCB1F0900001889A61E0AA
:1022500070E080E090E00E94B30C889A889888989B
:102260008898409100015CB1E2B39CB1F09100010B
:10227000889AEA946FEFE612D8CF889A8B9A809169
:1022800001018867809301019D9A8DB188638DB9A2
:1022900084E0C89F900111242072332788E0F89EC3
:1022A000B0011124607C7727262B602F70E0759594
:1022B000679560717727262B612F70E0759567957C
:1022C000759567956C707727262B6D2F70E0B5E0BC
:1022D00075956795BA95E1F763707727262B64E0CB
:1022E000969FC0011124807298E0F99FB0011124DB
:1022F000607C862BE695E0718E2B569556955C702A
:10230000852B50E0C5E055954795CA95E1F7437098
:10231000842B922FDF91CF911F910F91FF90EF901F
:1023200008950F931F93CF93DF938C0160E00E9479
:10233000A110EC0161E0C8010E94A1108C01BE0156
:1023400090E080E0CB017727662730E020E0602B2B
:10235000712B822B932BDF91CF911F910F910895B9
:10236000FF920F931F93CF93DF938C0160E00E9445
:10237000A110EC0161E0C8010E94A110F82E62E0FA
:10238000C8010E94A110AE0170E060E0742F6627C2
:102390005527442700E030E020E0402B5F29622BE6
:1023A000732B292F30E0C901B0E0A0E08A019B0126
:1023B000082B192B2A2B3B2BC901B801DF91CF9198
:1023C0001F910F91FF9008950F931F93CF93DF9369
:1023D000EC018B01FE0185919491FE0132962496C9
:1023E000659174918F3F980771F490E080E00E94AE
:1023F000B30C045011091016110664F3DF91CF914C
:102400001F910F9108950E94920FF3CFFC01262F88
:10241000358D868D82958170982F9627692F70E073
:1024200072A361A330FF0CC0821307C080E290E06A
:1024300050E040E060E00C94D30E81E290E0F8CFF1
:10244000878D90A1833927E7920741F058F48435AE
:1024500021E0920791F080329445C1F4626081E0FE
:1024600094E012C0863223E99207C1F3893025EB4C
:102470009207A1F38532924949F4660F771F660FE0
:10248000771F636187E090E00C94920F81E690E003
:10249000FBCF8F929F92AF92BF92CF92DF92EF923B
:1024A000FF920F931F93CF93DF9300D01F92CDB76E
:1024B000DEB77C014B015A016901FC01878D90A1B7
:1024C0008632954151F4F701868980FF06C0C80124
:1024D000841B950B81F50F5F1F4FF701858D80FFE2
:1024E00031C085A599828A82DB82CC82AE014F5FA2
:1024F0005F4F64E090E00E94D30EF70181A9B9829A
:10250000AA821B830C83AE014F5F5F4F64E090E0B3
:102510000E94D30E0F900F900F900F90DF91CF91EC
:102520001F910F91FF90EF90DF90CF90BF90AF90F1
:102530009F908F9008952617370779F6C80ED91EF9
:102540008A01CBCFB40187A190A50E94920FB5015B
:10255000F70181A592A50E94920FC814D90419F41D
:102560000A151B05B9F2F701858D85FF08C086891C
:1025700080FF1EC0102F0027A02AB12A8501B401B8
:10258000F70185A596A50E94920FB501F70181A9D3
:1025900092A90E94920FB601F70187A590A90E9407
:1025A000920FB801F70183A994A90E94920FB2CFAC
:1025B000DC2CCC248C289D286401E1CF2F923F9203
:1025C0004F925F926F927F928F929F92AF92BF9243
:1025D000CF92DF92EF92FF920F931F93CF93DF93EF
:1025E00000D01F921F92CDB7DEB79D838C83809160
:1025F000D805882349F0C701880F991F8E73992742
:10260000E1ECEE22E82AF92A37FF05C0620F731FBA
:10261000319521953109260F371F77FF02C070E0F1
:1026200060E0EC81FD8180859185281739070CF4E5
:10263000C9016C01C61AD70A17FF05C0400F511F08
:10264000119501951109040F151F57FF02C050E0A5
:1026500040E0EC81FD8122853385021713070CF4DD
:1026600098015901A41AB50A8901015011099C0168
:10267000215031098C819D810E9449128B988A9842
:10268000EC81FD8153A544A5809102018778809358
:102690000201A5988EB1877C8EB960910201842FCA
:1026A00090E09C01A5E0220F331FAA95E1F7207668
:1026B000262B209302016EB19C01220F331F220FA3
:1026C000331F2073262B2EB964B39C01220F331FB6
:1026D0002072262B24BB6EB19C013595279535952C
:1026E00027952870262B2EB92091020133E095956D
:1026F00087953A95E1F78871822B8093020189983A
:10270000899A80910201877880930201A5988EB101
:10271000877C8EB960910201852F942F9C0145E042
:10272000220F331F4A95E1F72076262B20930201D2
:102730004EB19C01220F331F220F331F2073242B15
:102740002EB944B39C01220F331F2072242B24BBCB
:102750004EB19C0135952795359527952870242BEA
:102760002EB920910201E3E095958795EA95E1F76E
:102770008871822B809302018998899A8A9ACA1457
:10278000DB042CF09A2D8B2D5601C92ED82E2F2D1F
:1027900030E0890185E0000F111F8A95E1F700768E
:1027A000C901880F991F880F991F182F1073C9012D
:1027B000880F991FB82FB072C90195958795959587
:1027C0008795982F987073E0359527957A95E1F75E
:1027D000822F8871A701E5E0440F551FEA95E1F7C4
:1027E00040769701220F331F220F331F522F507351
:1027F000B701660F771F607297013595279535955C
:102800002795722F78709701E3E035952795EA9523
:10281000E1F7A22FA8712F2D287F30E04901880C05
:10282000991C880C991CF82DF073F9834901880CC8
:10283000991CE82DE072EA83490195948794959458
:102840008794F82DF870FB83E3E035952795EA959A
:10285000E1F7E22FE8712E2E9701F3E036952795E8
:10286000FA95E1F72C7F30E04901880C991C880C1F
:10287000991CF82DF0733F2E2901440C551CE42DB2
:10288000E0724E2E49019594879495948794F82D83
:10289000F8705F2EF3E035952795FA95E1F7E22F72
:1028A000E8716E2EEE0CEE0CEE0CF12C9701220F5F
:1028B000331F220F331FF22FF0737F2E9701220F49
:1028C000331F2072F701F595E795F595E795E870C8
:1028D000F3E0F594E794FA95E1F73E2D3871E32E95
:1028E0001C141D040CF0ABC03091D90545013323F5
:1028F00009F463C030910201377830930201A59842
:102900003EB1377C3EB930910201309302013EB1B5
:10291000F9813F2B3EB934B3FA813F2B34BB3EB132
:10292000FB813F2B3EB930910201322930930201E5
:102930008998899A30910201377830930201A598DD
:102940003EB1377C3EB930910201309302013EB175
:1029500033293EB934B3342934BB3EB135293EB9AD
:10296000309102013629309302018998899A309179
:102970000201377830930201A5983EB1377C3EB909
:1029800030910201309302013EB137293EB934B390
:10299000322B34BB3EB13E2B3EB9309102013E2971
:1029A000309302018998899A31E0831A910809F0DD
:1029B000A1CFF1E0CF1AD10893CF3091020137783F
:1029C00030930201A5983EB1377C3EB930910201A7
:1029D000302B309302013EB1312B3EB934B33B2B47
:1029E00034BB3EB1392B3EB930910201382B3093C4
:1029F00002018998899A3091020137783093020157
:102A0000A5983EB1377C3EB930910201342B30930A
:102A100002013EB1352B3EB934B3362B34BB3EB147
:102A2000372B3EB9309102013A2B3093020189983D
:102A3000899AF1E08F1A910809F0BFCFBACF8B9A2B
:102A4000EC81FD81858D80FF0AC0878D90A1863243
:102A50009541B1F4EC81FD81868980FF11C0EC8144
:102A6000FD81028513850150110920853185215092
:102A7000310950E040E070E060E0CF010E9449126F
:102A80000F900F900F900F900F90DF91CF911F91AB
:102A90000F91FF90EF90DF90CF90BF90AF909F90FD
:102AA0008F907F906F905F904F903F902F90089500
:102AB000EF92FF920F931F93CF93DF937C01E90175
:102AC00077FD4DC157FD4BC1FC018085918568178D
:102AD00079070CF044C182859385481759070CF09B
:102AE0003EC18091D805882341F0C901880F991F04
:102AF0008E739927C17CC82BD92B8A019B01C701F2
:102B00000E9449128091D905882309F42FC18B981E
:102B10008A98F70143A554A5809102018778809394
:102B20000201A5988EB1877C8EB960910201852F34
:102B300090E09C0175E0220F331F7A95E1F7207633
:102B4000262B209302016EB19C01220F331F220F0E
:102B5000331F2073262B2EB964B39C01220F331F21
:102B60002072262B24BB6EB19C0135952795359597
:102B700027952870262B2EB920910201B3E0959558
:102B80008795BA95E1F78871822B80930201899825
:102B9000899A80910201877880930201A5988EB16D
:102BA000877C8EB960910201CA019C0115E0220F59
:102BB000331F1A95E1F72076262B209302014EB1A0
:102BC0009C01220F331F220F331F2073242B2EB999
:102BD00044B39C01220F331F2072242B24BB4EB11F
:102BE0009C0135952795359527952870242B2EB96E
:102BF0002091020173E0959587957A95E1F78871A8
:102C0000822B809302018998899A8A9A8091020185
:102C1000877880930201A5988EB1877C8EB9209128
:102C200002018D2F887F90E0209302014EB19C011C
:102C3000220F331F220F331F2073242B2EB944B3CE
:102C40009C01220F331F2072242B24BB4EB19C0108
:102C500035952795359527952870242B2EB92091E9
:102C60000201B3E095958795BA95E1F78871822BBB
:102C7000809302018998899A8091020187788093D4
:102C80000201A5988EB1877C8EB920910201CE01F8
:102C9000D3E096958795DA95E1F78C7F90E02093C5
:102CA00002014EB19C01220F331F220F331F2073EC
:102CB000242B2EB944B39C01220F331F2072242BE6
:102CC00024BB4EB19C0135952795359527952870E5
:102CD000242B2EB92091020163E0959587956A9582
:102CE000E1F78871822B809302018998899A8091FB
:102CF0000201877880930201A5988EB1877C8EB9F6
:102D000080910201CC0FCC0FCC0FD0E08093020158
:102D10002EB1CE01880F991F880F991F8073822BC7
:102D20008EB924B3CE01880F991F8072822B84BB89
:102D30002EB1CE0195958795959587958870822BB4
:102D40008EB980910201A3E0D595C795AA95E1F7C8
:102D5000C871C82BC09302018998899A8B9ADF9118
:102D6000CF911F910F91FF90EF900895BE01F70151
:102D700083A594A5DF91CF911F910F91FF90EF90C4
:102D80000C94920FEF92FF920F931F93CF93DF93C8
:102D900000D000D000D01F92CDB7DEB77C01862FC7
:102DA0008370F701868B962F917060FFE3C02681B8
:102DB0003781F70131872087992309F4DEC0248108
:102DC0003581F70133872287823009F4DBC08330F5
:102DD00009F4DAC0813009F4D3C088E48A87F701A6
:102DE000858D968D90FF03C02A8520582A8791FFF4
:102DF00004C02A8530E423272A8793FF04C02A854C
:102E000038E023272A87F701278D30A180FF00C1F2
:102E10002431F8E63F0709F0B9C09A85892F8872F6
:102E20008A871F82892F85958074282F2260892F99
:102E300090E09595879580729927822B88878BE300
:102E40008987AE01495F5F4F63E086EB90E00E94A7
:102E5000D30E2AE230E0F70130A727A38BE290E0FF
:102E600092A781A74CE250E054A743A736A725A715
:102E700030AB27A792AB81AB94AB83ABAE01465F7F
:102E80005F4F61E086E390E00E94D30E8A8590E078
:102E9000F70194A383A3F701868980FF1CC0858D69
:102EA000968D92FD18C087A190A521A532A530A7C7
:102EB00027A392A781A785A596A521A932A936A700
:102EC00025A792AB81AB87A590A923A934A930ABE4
:102ED00027A794AB83ABF701028513850150110935
:102EE000208531852150310950E040E070E060E0FC
:102EF000C7010E944912F70166817781878D90A1F1
:102F000020E08732F3E99F0709F420E2F701358DCD
:102F100030FF39C119821A827B836C831D822E8314
:102F2000AE014F5F5F4F66E083E390E00E94D30EF7
:102F300019821A82AE014F5F5F4F62E087E390E033
:102F40000E94D30EF701858D80FF07C050E040E05E
:102F500060E083E190E00E94D30E2A960FB6F894C9
:102F6000DEBF0FBECDBFDF91CF911F910F91FF90BC
:102F7000EF900895248135811CCF2681378121CFA0
:102F800088E22CCF88E92ACF88EF28CF273243E97F
:102F9000340789F41F8281E388878A858595859522
:102FA0008595859588708987AE01495F5F4F63E09D
:102FB00080EC90E04CCF233689E1380749F0213886
:102FC000E4E93E0729F02131F5E13F0709F041CF5F
:102FD0008A8587FF02C081608A878A8586FF02C052
:102FE00082608A878A858F73233649E1340731F0FE
:102FF000213884E9380721F48A858F728A8729CF9E
:103000002131354109F025CF8A858F7E806CF6CF3E
:103010006A85862F062E000C990B2339F7E73F07A8
:1030200051F0A8F52435E1E03E0709F45CC02032F8
:10303000F4E53F07A1F540E052E0F70150A747A3B0
:1030400041E052E052A741A742E052E054A743A713
:1030500040E152E056A745A741E152E050AB47A7F7
:1030600042E152E052AB41AB43E152E054AB43ABDF
:10307000882790782632F3E93F0721F02032344543
:1030800009F071C067FD846060E071E36EC02632B4
:1030900043E9340781F22930E5EB3E0761F220E293
:1030A00030E0F70130A727A321E230E032A721A7C3
:1030B00022E230E034A723A720E530E036A725A799
:1030C00021E530E030AB27A722E530E032AB21AB81
:1030D00023E530E034AB23ABBC0166277078776220
:1030E00080E690E046C027E330E0F70136A725A749
:1030F00026E330E030AB27A729E330E032AB21AB49
:1031000028E330E034AB23AB20E230E030A727A344
:1031100021E230E032A721A722E230E034A723A742
:10312000F4E06F9FB00111246627717088279270B8
:103130008862682B792B81E090E00E94920F8A854B
:10314000682F70E075956795759567956870772716
:1031500083FD70616063F70174A363A383E090E073
:103160000E94920F98CE60E072E6682B792B80E087
:1031700094E00E94920F6A85F4E06F9FB0011124E1
:1031800066277170D8CF8339F7E79F07D9F1F0F43C
:10319000803244E59407B1F18338E7E79E0731F1C7
:1031A00084359140F1F46150710981E390E00E940F
:1031B000920F70E060E082E390E00E94920F70E076
:1031C00060E083E390E00E94920FC7CE863223E94D
:1031D0009207C1F0893045EB9407A1F085329249FE
:1031E00011F3F70161A172A1626003C0F70161A14F
:1031F00072A181E690E00E94920F70E060E08AE6A2
:1032000090E0E1CFF70161A172A1626081E094E0FA
:103210000E94920F70E060E084E094E0D4CFEF92DF
:10322000FF920F931F93DC01ED91FC9100A0F1A19F
:10323000E02D780101E010E019951F910F91FF90AA
:10324000EF900895EF92FF920F931F93DC01ED91A1
:10325000FC9100A0F1A1E02D7801890121E030E08E
:1032600019951F910F91FF90EF9008950895FC011B
:103270006370668B8481958126813781613039F056
:10328000633029F0918780873387228708953187BB
:1032900020879387828708952F923F924F925F9263
:1032A0006F927F928F929F92AF92BF92CF92DF9256
:1032B000EF92FF920F931F93CF93DF93CDB7DEB7BB
:1032C0006A970FB6F894DEBF0FBECDBF9A8F898F75
:1032D0007A8369834A01D22E18870F833701BC2C69
:1032E000DC0159962D913C915A972115310509F031
:1032F00015C118968D919C911997681779070CF054
:10330000D7C11A968D919C91481759070CF0D0C1DE
:103310004C2C512CB6E0CB9E600D711D11247C8786
:103320006B87161617060CF0C3C1EA2DF0E0FA877A
:10333000E98793E0EE0FFF1F9A95E1F7F88BEF878F
:10334000CF01840F951F181619060CF0B1C1A98D75
:10335000BA8D58968C91811104C0BFEABD1508F44E
:10336000D394A98DBA8DED91FC9111970284F385C8
:10337000E02DCD011995B5E0DB9EC0011124E98156
:10338000FA81FC83EB83312C212C9C01285D3D4F7D
:10339000388F2F8B4A2D50E05E8B4D8BEF89F88D47
:1033A000E20DF31D44919E828D82D12CC12C698146
:1033B0007A81620D731D7A8B698B842F90E09C8BD0
:1033C0008B8BE98DFA8DA081B18140FF82C0F1E045
:1033D000BF126FC0AF126DC01C96ED91FC912F8192
:1033E0003885A4014C0D5D1D69897A89898D9A8D76
:1033F0001995EB89FC89F595E7954E2F5FEFC51A76
:10340000D50A6D817E818D899E89680F791F7E83A3
:103410006D8398E0C916D10481F6AFEF2A1A3A0AF3
:10342000EB81FC81E40DF51DFC83EB83F5E02F16A9
:10343000310409F0B3CF2F81388526153705B9F04F
:10344000A98DBA8DED91FC91B1E0BB1257C0AB12C2
:1034500055C069817A816B5F7F4F0088F189E02DCB
:10346000830128E030E0A401898D9A8D1995A98DFA
:10347000BA8DED91FC9111970688F789E02DCD0169
:103480006A960FB6F894DEBF0FBECDBFDF91CF9125
:103490001F910F91FF90EF90DF90CF90BF90AF9072
:1034A0009F908F907F906F905F904F903F902F9064
:1034B00019941E96ED91FC91EF80F88409851A8588
:1034C00092014D815E816B817C81898D9A8D1995E8
:1034D00090CF2F8138852615370509F48ACF31E042
:1034E000B31207C0A31205C01C96ED91FC91930185
:1034F00078CF1E96ED91FC917301E0CF6B857C85B2
:10350000641975090684F785E02D73010F85188904
:103510009201A401898D9A8D1995A9CFF90134964C
:103520009491329745915491D91AB7E0DB9E400DA2
:10353000511D1124F901259134913C8B2B8BFA01FB
:1035400025903490FA013296749031963491398BEB
:10355000329664903196449041E04C1518F04A152B
:1035600008F07FC0662D062C000C770B7C836B83E4
:10357000842D042C000C990B9E838D83A98DBA8D0C
:10358000ED91FC9111970284F385E02DCD01199501
:10359000512CD12CC12CEA2DF0E0FA87E9872B2D94
:1035A00030E03C872B87A401440D511D47FC5A9500
:1035B000588F4F8B69817A81660D711D67FC7A95F2
:1035C0007E876D877989C71608F051CF2C2D30E0A2
:1035D0004D815E81420F531FA985BA854A9FC00164
:1035E0004B9F900D5A9F900D1124FC01E80DF91D81
:1035F000F88BEF87852D612C4F89588D420F531F13
:103600005E8B4D8B671408F050C044244394480EE1
:10361000877041F4C1010196EB89FC89E20DF31D2D
:10362000D4901C01D7FE19C0A98DBA8DED91FC91E3
:10363000662D70E0B1E0BB1219C0AB1217C02D852A
:103640003E85620F731F0484F585E02D2F81388538
:103650004D895E89898D9A8D1995DD0C6394842D31
:10366000D1CF1E821D821C821B8288CF4B815C8140
:10367000640F751FAB85BC856A9FC0016B9F900D61
:103680007A9F900D112469817A81680F791F0684D1
:10369000F785E02DEF80F88409851A859D014F8517
:1036A0005889898D9A8D1995D8CF570CC3948ACF94
:1036B0006A960FB6F894DEBF0FBECDBFDF91CF91F3
:1036C0001F910F91FF90EF90DF90CF90BF90AF9040
:1036D0009F908F907F906F905F904F903F902F9032
:1036E00008958F929F92AF92CF92EF92FF920F9395
:1036F0001F93CF93DF93EC01262F898D9A8D00972E
:1037000009F051C06A30D1F41D861C868D8948E0CD
:10371000849F900111248E859F85820F931F9F8720
:103720008E8781E090E0DF91CF911F910F91FF9004
:10373000EF90CF90AF909F908F9008956D3089F368
:10374000CC88AD888F898823C1F08C859D8536E033
:10375000C39E800D911D112448855985481759072E
:1037600064F44E855F851D861C8638E0A39EC001EB
:103770001124840F951F9F878E87EA88FB8808890C
:1037800019894E855F856C857D85CE010E944C1917
:103790002C898C859D8546E0249F800D911D1124E8
:1037A0009D878C87BECF6A3069F41D861C86FC011C
:1037B0003896E4912D898E859F85E29F800D911D1D
:1037C0001124ADCF6D3009F4ACCFFC0134963491A7
:1037D000631708F4A6CF3296E491E61708F4A1CF58
:1037E000FC01329685909490462F431B342F47E07E
:1037F000349F800C911C1124F4013296349131963F
:10380000E4913323A9F1EE2399F1CC88F4013596A4
:10381000E491AD884F89442301F10E2E000CFF0B7B
:10382000E30FF11DCE9EA001CF9E500D11246C859B
:103830007D85460F571F68857985641775076CF479
:103840004E855F851D861C86FC013896E491AE9EF0
:10385000400D511D11245F874E87EA88FB88088937
:1038600019894E855F856C857D85CE010E944C1936
:10387000F4013496E4912C898C859D85E29F800D1E
:10388000911D11248DCF6F927F928F929F92AF9254
:10389000BF92CF92DF92EF92FF920F931F93CF933D
:1038A000DF93EC016B015A0139014801E881F9818C
:1038B0000284F385E02D1995E881F9810288F38966
:1038C000E02D87019301A501B601CE011995A5014F
:1038D000480D591D41505109E881F9810288F38949
:1038E000E02D9301B601CE011995E881F981008898
:1038F000F189E02D9401A501B601CE011995C60C00
:10390000D71CB60161507109E881F9810088F189FD
:10391000E02D9401A501CE011995E881F981068871
:10392000F789E02DCE01DF91CF911F910F91FF908C
:10393000EF90DF90CF90BF90AF909F908F907F904F
:103940006F9019946F927F928F929F92AF92BF92D5
:10395000CF92DF92EF92FF920F931F93CF93DF935B
:103960005C01EB016A01490138018701DC01ED913D
:10397000FC916217730719F5641675062CF0962DE5
:10398000872D3A01C92ED82E9601261937092F5FA7
:103990003F4F048CF58DE02DA301BE01C5011995A3
:1039A000DF91CF911F910F91FF90EF90DF90CF901B
:1039B000BF90AF909F908F907F906F900895461525
:1039C000570591F42617370724F0892D4B01C22F94
:1039D000D82F9E01281939092F5F3F4F068CF78D8C
:1039E000E02DA601B401DACF0284F385E02D19950C
:1039F000D501ED91FC910488F589E02D83019401B6
:103A0000A601BE01C5011995D501ED91FC9106886D
:103A1000F789E02DC501DF91CF911F910F91FF90A4
:103A2000EF90DF90CF90BF90AF909F908F907F905E
:103A30006F901994EF92FF920F931F93DC011A96E7
:103A40000D911C911B9718962D913C911997ED9112
:103A5000FC9100A0F1A1E02D7B0150E040E070E07E
:103A600060E019951F910F91FF90EF9008954F928C
:103A70005F926F927F928F929F92AF92BF92CF92FE
:103A8000DF92EF92FF920F931F93CF93DF936C011E
:103A90002B015A0139014801DC01ED91FC910284AE
:103AA000F385E02D1995E201640C751CD601ED91AA
:103AB000FC91C615D7055CF40088F189E02D8701DB
:103AC0009401A501BE01C60119952196EFCF068884
:103AD000F789E02DC601DF91CF911F910F91FF90E3
:103AE000EF90DF90CF90BF90AF909F908F907F909E
:103AF0006F905F904F9019948F929F92AF92BF9268
:103B0000CF92DF92EF92FF920F931F93CF93DF93A9
:103B1000EC015B014A016901E881F9810284F385C6
:103B2000E02D199595012C0D3D1D21503109E8819D
:103B3000F9810488F589E02D78018401A401B5019B
:103B4000CE011995E881F9810688F789E02DCE012B
:103B5000DF91CF911F910F91FF90EF90DF90CF9069
:103B6000BF90AF909F908F9019948F929F92AF9239
:103B7000BF92CF92DF92EF92FF920F931F93CF935A
:103B8000DF93EC015B014A0169017801E881F98169
:103B90000284F385E02D1995C80CD91C86010150CB
:103BA0001109E881F9810488F589E02D9501A401C6
:103BB000B501CE011995E881F9810688F789E02DD4
:103BC000CE01DF91CF911F910F91FF90EF90DF9089
:103BD000CF90BF90AF909F908F9019940895EF92DF
:103BE000FF920F931F93DC01ED91FC9100A0F1A1D6
:103BF000E02D19951F910F91FF90EF9008950F936D
:103C00001F93DC01ED91FC91068CF78DE02D199549
:103C10001F910F9108950F931F93DC01ED91FC917B
:103C2000048CF58DE02D19951F910F910895DC01FD
:103C3000ED91FC910084F185E02D19942F923F9233
:103C40004F925F926F927F928F929F92AF92BF92AC
:103C5000CF92DF92EF92FF920F931F93CF93DF9358
:103C600000D000D0CDB7DEB73C016A013E832D8382
:103C7000FC82EB825801A41AB50AB7FE03C0B194C6
:103C8000A194B1088D809E80861A970A97FE03C082
:103C90009194819491088A149B045CF0902F812F59
:103CA0000D811E819D838E839C2D8D2D6B01692F2F
:103CB000782F0C151D055CF09D818E817E836D83B0
:103CC000692F782F902F812F8601C92ED82E1601AB
:103CD000201A310A2B012D813E81421A530A57FEC8
:103CE00003C0519441945108710137FE03C03FEF66
:103CF000E31AF30AF594E7948D819E81861797075E
:103D00005CF5A1E0B0E0BA83A983C016D1064CF1FE
:103D1000D301ED91FC910484F585E02D2B813C814C
:103D2000A8016D817E818A149B041CF04D815E8107
:103D3000B801C3011995E418F508F7FE0AC02D81F2
:103D40003E8189819A81280F391F3E832D83E20CA1
:103D5000F31C0F5F1F4FD9CF2FEF3FEF3A8329831B
:103D6000D4CF26960FB6F894DEBF0FBECDBFDF913D
:103D7000CF911F910F91FF90EF90DF90CF90BF9068
:103D8000AF909F908F907F906F905F904F903F90FB
:103D90002F900895089590E080E00895DC0180E080
:103DA000615090F09D919827E92FEF70F0E0E85F67
:103DB000FD4F2491E92FE295EF70F0E0E85EFD4FB2
:103DC000E491822F8E27ECCF0895FC01138615868F
:103DD0001486128611861086178216821582148226
:103DE00013820895DC012C911196ED91FC91F894C9
:103DF0008181822B81839281322F3095932392830C
:103E000087E090E00197F1F781818323818383E24A
:103E100090E00197F1F790817894EFECF0E0319722
:103E2000F1F7922381E009F480E00895FC0190818C
:103E30000180F281E02D292F209560FF14C0F894B5
:103E40008281822382838181892B8183A3E2B0E0F6
:103E50001197F1F78281982B9283789487ED90E007
:103E60000197F1F70895F8948281822382838181FA
:103E7000892B8183AFEFB0E01197F1F78281982B06
:103E8000928378948FE090E0EBCFDF92EF92FF92F5
:103E90000F931F93CF93DF93EC01D62EE42E08E00F
:103EA00010E0FF24F39461E08D2D8F2109F460E090
:103EB000CE010E94161FFF0C01501109A1F7E1105D
:103EC00010C0F894E981FA819181888180958923D5
:103ED0008183E981FA819281888180958923828317
:103EE0007894DF91CF911F910F91FF90EF90DF9029
:103EF0000895EF92FF920F931F93CF93DF938C015E
:103F00007B0140E065E50E94451FE70188E0E80E7F
:103F1000F11C699140E0C8010E94451FCE15DF05E4
:103F2000C1F7DF91CF911F910F91FF90EF9008950E
:103F3000FC0190810180F281E02DF8948181292F8C
:103F400020958223818378943DE743E050E031500F
:103F500029F1DA011197F1F780818923C1F3F894EF
:103F60008281822382838181892B81837894ABE74C
:103F7000B7E01197F1F7F894818182238183A3E15F
:103F8000B1E01197F1F78081982381E009F080E09A
:103F90007894E3E6F6E03197F1F7089580E008952C
:103FA0008F929F92AF92BF92CF92DF92EF92FF9249
:103FB000CF93DF9300D01F921F92CDB7DEB78091D1
:103FC0009F069091A0060E94981F40E06CEC8091A3
:103FD0009F069091A0060E94451F4091960664E4BA
:103FE00080919F069091A0060E94451F0E94E60CBA
:103FF0006B017C0180919A0681111EC081E089834A
:10400000CA82DB82EC82FD8229813A814B815C810C
:104010006D8170E080E090E00F900F900F900F9016
:104020000F90DF91CF91FF90EF90DF90CF90BF90F6
:10403000AF909F908F90089580919B068823C1F048
:1040400080919606811114C080919F069091A006E0
:104050000E94F21E813091F20E94E60C6C197D09DB
:104060008E099F096E3E72408105910568F3C6CFA7
:10407000E0919906E9508EEE92E0E33038F4F0E0FA
:10408000EE0FFF1FE45FFD4F808191814C01B12C49
:10409000A12C80919706882329F060E080919806F2
:1040A0000E948C08C501B4010E94B30C8091970650
:1040B000882309F4A3CF61E0809198060E948C08C0
:1040C0009DCF6F927F928F929F92AF92BF92CF922D
:1040D000DF92EF92FF920F931F93CF93DF938C01A8
:1040E000EB0180919F069091A0060E94981F882363
:1040F00009F43FC0B80180919F069091A0060E94EC
:10410000791F40E06EEB80919F069091A0060E947F
:10411000451F7E016E0189E0C80ED11C8E01A09062
:104120009F06B090A00688E0882E912C712C662402
:104130006394C5010E94F21E81117628660CE1E0AD
:104140008E1A9108B1F7F80171928F01CE16DF0631
:1041500031F780919F069091A0060E94981F8130B0
:1041600041F4F70181917F01811105C0E017F1074A
:10417000C1F790E008C068E0CE010E94CE1E91E039
:1041800028852813F6CF892FDF91CF911F910F91AA
:10419000FF90EF90DF90CF90BF90AF909F908F9067
:1041A0007F906F900895EF92FF920F931F93DC0121
:1041B0001A960D911C911B9718962D913C91199769
:1041C000ED91FC9100A0F1A1E02D7B0150E040E0D9
:1041D00070E060E019951F910F91FF90EF900895A6
:1041E000FC0101900020E9F73197AF01481B590B02
:1041F000BC0187EE95E00C94F20C8F929F92AF92E7
:10420000BF920F931F93CF93DF93CDB7DEB7A197E4
:104210000FB6F894DEBF0FBECDBF19A2423008F42E
:104220004AE08E010F5D1F4F842E912CB12CA12CE2
:10423000A50194010E94D73BE62FB901CA01EA30DB
:10424000F4F4E05DD801EE938D01232B242B252B74
:1042500079F790E080E0109719F0CD010E94F020EE
:10426000A1960FB6F894DEBF0FBECDBFDF91CF9100
:104270001F910F91BF90AF909F908F900895E95C30
:10428000E1CFCF92DF92EF92FF92CF93DF936B015A
:104290007C016DE287EE95E00E94880DEC016627B7
:1042A0007727CB016C197D098E099F094AE00E948E
:1042B000FD208C0F9D1FDF91CF91FF90EF90DF903D
:1042C000CF900895CF93DF930E94F020EC0188E512
:1042D00092E00E94F0208C0F9D1FDF91CF910895F6
:1042E0000C94F020FF920F931F93CF93DF93F82E3F
:1042F000062FC7E0D0E010E061E0802F0E948C081C
:104300008F2D0E9463080C2E01C0880F0A94EAF7D3
:10431000182B60E0802F0E948C08219768F7812F6E
:10432000DF91CF911F910F91FF900895CF92DF926F
:10433000EF92FF920F931F93CF93DF93EC018B814A
:104340000E946308892B31F060E070E0CB010E948D
:10435000B30CF5CFEFB6F8946A818B810E9472217D
:10436000082F6A818B810E947221182F6A818B81AC
:104370000E947221F82ED12CC12C8C818C151D0429
:1043800069F060F061E08A810E948C0860E08A81B7
:104390000E948C088FEFC81AD80AEFCFEFBE612FAA
:1043A00070E090E080E0982F872F762F6627802B93
:1043B0006F29D02FDD0FDD0B0D2F10E030E020E056
:1043C000302F222711270027602B712B822B932B54
:1043D000DF91CF911F910F91FF90EF90DF90CF90E1
:1043E0000895CF92DF92EF92FF920F931F93CF9396
:1043F0008C01CAE0C12CD12C7601C8010E94962103
:10440000C60ED71EE81EF91E60E070E0CB010E94C8
:10441000B30CC15091F7C701B6012AE030E040E08B
:1044200050E00E94A53BCA01B9010E94543D0E9480
:104430001C3DF8016583768387839087CF911F9118
:104440000F91FF90EF90DF90CF900895CF92DF9281
:10445000EF92FF92CF93DF93EC010E9496216B01C4
:104460007C0160E070E0CB010E94B30C8D819E81E5
:10447000AF81B885A7019601281B390B4A0B5B0B4E
:10448000CA01B9010E94543D29853A854B855C8556
:104490000E94AA3CDF91CF91FF90EF90DF90CF90E8
:1044A0000895BF92CF92DF92EF92FF920F931F93E6
:1044B000CF93DF93EC01B62EC72E8D85811105C0F9
:1044C000CE010E94981F81110EC01B861D861C867E
:1044D00080E0DF91CF911F910F91FF90EF90DF90DF
:1044E000CF90BF90089540E060EFCE010E94451F3D
:1044F00001E0E12CD12C11E0CE010E94F21EF82E39
:10450000CE010E94F21E91E0F91218C0813099F597
:104510001134D8F2DB86D11002C081E08D878B8107
:10452000882399F22396EB2DFC2DCF010896299133
:104530002193E817F907D9F781E0CBCFEE2DF0E012
:10454000F8120FC08B851817A0F4DE01AE0FBF1F45
:1045500013968C91802379F4F12C193008F41C8780
:10456000D12EEC0FFD1F8381902F9095892383839B
:104570000AC08113F1CFFE01EE0DF11D8381802B66
:104580008383FF24F3946F2DCE010E94161F1F5FBB
:10459000000F11F4E39401E087E08E1508F0ACCF32
:1045A000B7CFCF93C091D90761E08C2F0E94CC097F
:1045B00060E08C2F0E948C0860E08091D7070E94F9
:1045C0008C0860E08091D8070E948C081092DB076D
:1045D000CF910895CF93DF93BC01990F880B990B6E
:1045E00097FF0CC00E944121EC0188E592E00E94F7
:1045F000F0208C0F9D1FDF91CF9108954AE00E941B
:10460000FD20F2CF4F925F926F927F928F929F9296
:10461000AF92BF92CF92DF92EF92FF920F931F93D0
:10462000CF936B017C01742EAC019B010E94763EFE
:10463000882399F08BE592E0CF911F910F91FF9025
:10464000EF90DF90CF90BF90AF909F908F907F9032
:104650006F905F904F900C94F02046015701E894C2
:10466000B7F82FEF3FEF4FE75FE7C501B4010E94B6
:10467000763E81110DC02FEF3FEF4FE75FE7C50199
:10468000B4010E94A53C18161CF48FE592E0D4CF2B
:104690002FEF3FEF4FE75FE4C701B6010E94043EF2
:1046A00018161CF483E692E0C7CF2FEF3FEF4FE7D9
:1046B0005FECC701B6010E94A53C87FDF3CF20E067
:1046C00030E0A901C701B6010E94A53C10E000E05E
:1046D00087FF0AC06DE287EE95E00E94880D8C018D
:1046E000F7FAF094F7F8F094C0E060E070E080E052
:1046F0009FE37C1641F020E030E040E251E40E946C
:10470000AA3CCF5FF6CFA70196010E94393C2B014E
:104710003C010E94233D4B015C014AE00E94FD20C8
:104720007C01E00EF11ECC23C1F1C501B4010E9451
:10473000523D9B01AC01C301B2010E94383C4B01C8
:104740005C016EE287EE95E00E94880DE80EF91E8E
:10475000C15018F120E030E040E251E4C501B4015D
:104760000E94093E2B013C010E94233D4B01B12CCC
:10477000A12C4AE0C501B4010E94FD20E80EF91EFB
:10478000C501B4010E94523D9B01AC01C301B201BD
:104790000E94383C4B015C01DBCFC701CF911F91D8
:1047A0000F91FF90EF90DF90CF90BF90AF909F90D0
:1047B0008F907F906F905F904F90089542E00C949F
:1047C0000223CF93DF93EC0197FD46C08091EC0765
:1047D0009091ED072091E0073091E107AC01421B79
:1047E000530B4C175D070CF4EC018091DE079091A0
:1047F000DF078C179D07BCF581E00E94FD098091C1
:10480000DE079091DF072091E0073091E107820FEA
:10481000931F8C179D071CF50E94810B87E692E081
:104820000E9470210E940E0B0E94DE2384E792E01A
:104830000E9470218091DE079091DF070E94EA229A
:104840000E94390B8111DBCF0E94D1228DE792E0CB
:10485000DF91CF910C946221D0E0C0E0C6CFDF9110
:10486000CF910C94D122C817D907CCF780E00E94D1
:10487000FD098091DE079091DF072091E0073091DC
:10488000E107821B930BC817D9074CF70E94810BD5
:1048900080EB92E00E9470210E940E0B0E94DE23AA
:1048A00084E792E00E9470218091DE079091DF07FB
:1048B0000E94EA220E94390B8111DBCFC5CF809183
:1048C0000B08882319F08450823088F50E94390B38
:1048D0008823E1F080E00E94FD098BEB92E00E94CA
:1048E00070210E940E0B0E94DE2384E792E00E945A
:1048F00070218091DE079091DF070E94EA226AE032
:1049000070E080E090E00E94B30CE0CF0E94D122E2
:104910001092DF071092DE0780910B0880930C083D
:1049200083E080930B0888EC92E00C94702108954A
:104930000E94BC3F0C94333F1F920F920FB60F9210
:1049400011242F933F938F939F93AF93BF938091A5
:10495000DE059091DF05A091E005B091E105309171
:10496000DD0523E0230F2D3758F50196A11DB11D5C
:104970002093DD058093DE059093DF05A093E0058D
:10498000B093E1058091E2059091E305A091E405E3
:10499000B091E5050196A11DB11D8093E2059093AC
:1049A000E305A093E405B093E505BF91AF919F9116
:1049B0008F913F912F910F900FBE0F901F901895E0
:1049C00026E8230F0296A11DB11DD2CF1F920F9290
:1049D0000FB60F9211240BB60F922F933F934F9364
:1049E0005F936F937F938F939F93AF93BF93EF9357
:1049F000FF9387EE95E00E94660DFF91EF91BF91C6
:104A0000AF919F918F917F916F915F914F913F9166
:104A10002F910F900BBE0F900FBE0F901F90189507
:104A20001F920F920FB60F9211240BB60F922F9375
:104A30008F939F93EF93FF93E091F705F091F80523
:104A40008081E091FD05F091FE0582FD1DC0908101
:104A5000809100068F5F8F7320910106821741F0CD
:104A6000E0910006F0E0E951FA4F958F809300063F
:104A7000FF91EF919F918F912F910F900BBE0F900F
:104A80000FBE0F901F9018958081F2CF1F920F924A
:104A90000FB60F9211240BB60F922F933F934F93A3
:104AA0005F936F937F938F939F93AF93BF93EF9396
:104AB000FF93F0E0E0E01995FF91EF91BF91AF9186
:104AC0009F918F917F916F915F914F913F912F9126
:104AD0000F900BBE0F900FBE0F901F9018953F9236
:104AE0004F925F926F927F928F929F92AF92BF92FE
:104AF000CF92DF92EF92FF920F931F93CF93DF93AA
:104B00001092EA051092E90588EE93E0A0E0B0E08B
:104B10008093EB059093EC05A093ED05B093EE0523
:104B200086E192E09093E8058093E70585EC90E0BC
:104B30009093F4058093F30584EC90E09093F60550
:104B40008093F50580EC90E09093F8058093F7054D
:104B500081EC90E09093FA058093F90582EC90E067
:104B60009093FC058093FB0586EC90E09093FE0506
:104B70008093FD0510920006109201061092020625
:104B80001092030660E087E10E94CC09EFEFFEE09F
:104B9000E491E0938806EFE5FFE0E491F0E0EE0FAA
:104BA000FF1FE253F14F8591949190938A06809371
:104BB000890688E896E00E94E51E1092AC061092E5
:104BC000AB061092970688E896E09093A006809333
:104BD0009F0610929D0610929E061092960689E0FE
:104BE00080939906C1E0C0939A06C0939B06C09338
:104BF0009C060E94E60C6093B1067093B206809307
:104C0000B3069093B40686E08093B70680E090E008
:104C1000A8E4B2E48093B8069093B906A093BA06CC
:104C2000B093BB061092BD061092BE061092BF064E
:104C30001092C0061092C1061092C2061092C306CE
:104C40001092C4061092C5061092C6061092C706AE
:104C50001092C8061092C90680E297E09093CB06A6
:104C60008093CA068CE197E09093CD068093CC06A2
:104C700084E297E09093CF068093CE061092D00600
:104C80001092D1061092D2061092D30680E090E0E6
:104C9000AFE7B3E48093D4069093D506A093D606ED
:104CA000B093D7061092E8061092E9061092EA0631
:104CB0001092EB061092EC061092ED061092EE06A2
:104CC0001092EF061092F0061092F1061092F20682
:104CD0001092F306C093BC0684E690E0A0E0B0E03A
:104CE0008093D8069093D906A093DA06B093DB069A
:104CF00080911C0790911D07A0911E07B0911F077E
:104D00008093DC069093DD06A093DE06B093DF0669
:104D10001092F506109210071092110710921207C8
:104D2000109213078BE08093F40686E090E0909356
:104D3000FF068093FE0680E090E4ACE9B6E4809341
:104D4000F6069093F706A093F806B093F90680E074
:104D500090E4ACE1B6E48093FA069093FB06A0934E
:104D6000FC06B093FD0681E490E0909301078093E8
:104D7000000780E19BEEA9E0B0E0809302079093EA
:104D80000307A0930407B093050764E070E082E492
:104D900090E00E947B3E80930A0790930B078C0162
:104DA000D0E0C0E0BE0190E080E00E94523D20E0F3
:104DB00030E040E85CE30E94093ED8016D937D93AA
:104DC0008D939D938D012196C234D10559F780E0D2
:104DD00090E0A0EAB1E48093180790931907A0939C
:104DE0001A07B0931B0788E2382EE8E2F7E0DF01EC
:104DF000832D1D928A95E9F780E090E0A0E4B0E46D
:104E00008093500790935107A0935207B093530794
:104E10009AE9892E99E9992E99E1A92E90E4B92E63
:104E20008092540790925507A0925607B092570768
:104E3000109258071092590710925A0710925B0768
:104E400080E090E0A4E3B2E480935C0790935D0778
:104E5000A0935E07B0935F071092600708E212E02C
:104E6000109362070093610710926607109267071C
:104E70001092680710926907C12CD12C20E8E22E0D
:104E80002FE3F22EC0926A07D0926B07E0926C0774
:104E9000F0926D07C0927107D0927207E09273078B
:104EA000F0927407109275071092760710927707A8
:104EB000109278071092790710927A0710927B0768
:104EC00010927C0710927D0734E6432E512C612C02
:104ED000712C40927E0750927F07609280077092FB
:104EE00081070E94E60C609382077093830780938A
:104EF0008407909385078DE08093860786E28093F0
:104F0000870785E28093880710928907109295079A
:104F10001092940710928B0710928A071092A007A4
:104F20001092A1071092A2071092A307C0E0D8E048
:104F3000D0939107C09390078CE290E090939707ED
:104F4000809396078EE290E090939907809398075C
:104F50008DE290E090939B0780939A078FE290E018
:104F600090939D0780939C0761E08CE20E94CC099E
:104F700061E0809198070E94CC0961E080919A07D6
:104F80000E94CC0961E080919C070E94CC0910929C
:104F90009F0710929E0784E090E090939307809380
:104FA00092071093A5070093A4071092A9071092E7
:104FB000AA071092AB071092AC07C092AD07D0922F
:104FC000AE07E092AF07F092B007D093B207C0935C
:104FD000B107C092B707D092B807E092B907F09234
:104FE000BA071092BB071092BC071092BD0710922F
:104FF000BE078EE690E09093C0078093BF071092A3
:10500000C2071092C1071092C3071092C4071092F2
:10501000C5071092C6074092C7075092C807609212
:10502000C9077092CA070E94E60C6093CB07709381
:10503000CC078093CD079093CE078CE08093D30765
:105040001092D607D093B207C093B10781E69BE0D8
:10505000A6EBB0E48093B3079093B407A093B50791
:10506000B093B6078CE28093CF078EE28093D0078F
:105070008DE28093D1078FE28093D20782E2809302
:10508000D40783E28093D50789E28093D7073092D3
:10509000D8078AE28093D90783E48093DC0784E40D
:1050A0008093DD0781E090E09093DF078093DE0737
:1050B00082E090E09093E1078093E0078CE593E035
:1050C0009093EB078093EA0784E491E09093ED07D7
:1050D0008093EC0785E48093EE0780E090E0A4E8FD
:1050E000B2E48093EF079093F007A093F107B09399
:1050F000F20780E090E4ACE1B5E48093F30790938D
:10510000F407A093F507B093F60788E790E0909333
:10511000F8078093F70788EC90E09093FA07809364
:10512000F90786E696E6A6E2B0EC8093FB0790933B
:10513000FC07A093FD07B093FE078092FF079092B3
:105140000008A0920108B092020880E090E0A0E67A
:10515000B0EC8093030890930408A0930508B093E3
:10516000060880E090E0A0E6B0E480930708909302
:105170000808A0930908B0930A0810920B0810922F
:105180000C0880E090E0A8ECB2E480930D089093C6
:105190000E08A0930F08B093100880E090E0A6ECF2
:1051A000B2E48093110890931208A0931308B0936F
:1051B000140880E090E0A0E2B1E480931508909399
:1051C0001608A0931708B0931808109219081092A7
:1051D0001A0810921B0810921C08109225081092B1
:1051E00026080E94E60C6093270870932808809395
:1051F000290890932A0810922B0810922C0886EE0A
:1052000092E00E94622110928C0810928B081092FA
:105210006E0810926D081092500810924F0810926C
:105220003208109231081092400910923F091092F2
:105230002209109221091092040910920309109278
:10524000E6081092E5081092C8081092C70810925C
:10525000AA081092A9081092D6091092D5091092A6
:10526000B8091092B70910929A09109299091092F0
:105270007C0910927B0910925E0910925D091092D0
:105280008A0A1092890A10926C0A10926B0A109284
:105290004E0A10924D0A1092300A10922F0A109264
:1052A000120A1092110A1092F4091092F309109246
:1052B0007A0B1092790B10925C0B10925B0B109290
:1052C0003E0B10923D0B1092200B10921F0B109270
:1052D000020B1092010B1092E40A1092E30A109252
:1052E000C60A1092C50A1092A80A1092A70A89E36A
:1052F0008093CE0B88E38093D00B89E08093CF0B13
:1053000088E08093D10B8CE291E09093D30B809353
:10531000D20BE0E5FFE0E491F0E0EE0FFF1FE25D6D
:10532000F04F859194919093D50B8093D40BE1E845
:10533000FFE0E491F0E0EE0FFF1FE25DF04F85919A
:1053400094919093D70B8093D60BE0E8FFE0E49123
:10535000F0E0EE0FFF1FE25DF04F85919491909386
:10536000D90B8093D80BE1E5FFE0E491F0E0EE0F7C
:10537000FF1FE25DF04F859194919093DB0B80933A
:10538000DA0BE0EFFEE0E491E093DC0BE1E2FFE01A
:10539000E491E093DE0BE0E2FFE0E491E093DD0BCB
:1053A000E1EFFEE0E491E093DF0B8AE090E0909380
:1053B000CD0B8093CC0B10929A0B1092990B20EF8F
:1053C00030E030939C0B20939B0B80E491E0909312
:1053D0009E0B80939D0B3093A00B20939F0B90937B
:1053E000A20B8093A10B1092AD0B1092A40B109204
:1053F000A30B1092A60B1092A50B81E08093AC0B2F
:105400008093AB0B2FEF3FEF3093AA0B2093A90BA8
:105410003093A80B2093A70B8093AE0B1092AF0B89
:105420001092B10B1092B00B80E392E09093980B26
:105430008093970BDF91CF911F910F91FF90EF9089
:10544000DF90CF90BF90AF909F908F907F906F90A4
:105450005F904F903F900895CF93DF93CDB7DEB725
:10546000AF970FB6F894DEBF0FBECDBF789484B56A
:10547000826084BD84B5816084BD85B5826085BD50
:1054800085B5816085BD80916E00816080936E00DE
:1054900010928100809181008260809381008091D0
:1054A0008100816080938100809180008160809381
:1054B00080008091B10084608093B1008091B00041
:1054C00081608093B0008091910082608093910010
:1054D0008091910081608093910080919000816023
:1054E000809390008091A10082608093A1008091C0
:1054F000A10081608093A1008091A00081608093D1
:10550000A00080912101826080932101809121017E
:10551000816080932101809120018160809320012E
:1055200080917A00846080937A0080917A00826012
:1055300080937A0080917A00816080937A008091D4
:105540007A00806880937A001092C100E091F7059C
:10555000F091F80582E08083E091F305F091F40585
:105560001082E091F505F091F60580E180831092BC
:10557000FF05E091FB05F091FC0586E08083E0915A
:10558000F905F091FA05808180618083E091F90549
:10559000F091FA05808188608083E091F905F091AF
:1055A000FA05808180688083E091F905F091FA0521
:1055B00080818F7D808368EE73E080E090E00E94C0
:1055C000B30C60E090E080E00E94A1107C01883084
:1055D00024E5920779F18032944561F189E8E81673
:1055E000F80609F446C160E087E690E00E94A11049
:1055F00037E4E32E33E8F32E87349744D9F08FEE67
:1056000090E00E94B0117B016732734999F081EA02
:1056100090E00E94911123E6E22E29E1F22E613002
:10562000E1E67E0739F06F3F7607C1F596E2E92E95
:1056300095E1F92E0E9472101092B30B1092B20BEA
:10564000F092B70BE092B60BF1E3EF16F0E8FF062D
:1056500009F449C608F0F1C133E5E31630E2F30678
:1056600009F49BC608F078C191E1E91695E1F906C5
:1056700009F4D7C208F028C1B9E9EB16F10409F41E
:1056800042C608F00AC180E091E1EA94EF2809F4EB
:1056900012C110929C0B10929B0BC0C261152FEF90
:1056A000720729F480E2E82E85E1F82EC3CF91EA53
:1056B000E92E95E0F92E6115704F09F4BBCF8FEB01
:1056C00090E00E94B0117B0187E5E81683E8F806B8
:1056D00009F4B0CF91E8E91694E9F90609F4AACFE4
:1056E000A1E1EA16A5E1FA0609F4A4CFB0E2EB16AF
:1056F000B5E1FB06B9F2E6E2EE16E5E1FE0609F4D5
:1057000095CFF1E8EF16F5E1FF0609F493CFE11428
:1057100024E1F20609F4B2C084ED90E00E949111F8
:105720007B016031734509F485CF87ED90E00E94DD
:1057300091117B0181E3E81680E8F80609F47ACF3D
:105740008EEF90E00E949111672F782F892F992773
:105750007B0193E5E91690E2F90609F46BCF84E04A
:1057600090E00E9491117B01833E39F4672B09F090
:105770005DC0E12CB3EEFB2E5DCF811157C06115EA
:10578000704809F053C08091060290910702A091E1
:10579000080289839A83AB83AE014F5F5F4F63E05A
:1057A00089EB90E00E94D30E60E080ED90E00E94D3
:1057B000A110F9E9EF2EF12C893909F43BCFA0E9CA
:1057C000EA2EFE2C803909F435CF83ED90E00E945B
:1057D0009111672F782F892F99277B0163367149A3
:1057E00009F428CF83ED90E00E949111872FE62ED7
:1057F000F72E99E2E91692E3F90609F41BCF8359D3
:10580000823088F1783979F1773769F1763159F159
:10581000A3EDEA16F10409F40DCFB3EDEB16FB0688
:10582000E1F456E8E52E54E9F52E04CFB6E2EB1686
:10583000B5E1FB0609F4FACEE0EFEE16E9E8FE0664
:1058400011F1F2E5EF16F5E8FF0611F121E1E2169C
:105850002CEAF20609F0B9CFEDCE60E090E080E0EE
:105860000E94A1107C01E3EDEE16FE0609F0E2CEE7
:10587000D8CF49E8E42E42E1F42EDCCE84E1E82ED4
:1058800088E6F82ED7CEA5E3EA2EA7E7FA2ED2CEE9
:10589000F9E8EF2EF7E7FF2ECDCE24E5E21621E062
:1058A000F20609F4AFC135E0E31635E1F30609F07D
:1058B000F0CE84E090E19093B50B8093B40B68ED4B
:1058C00070E086ED9BE0A8C181E8E81685E1F80666
:1058D00009F46CC5C8F4A0E2EA16A5E1FA0609F4D9
:1058E000ABC4B6E2EB16B5E1FB0609F0D2CE83E11C
:1058F00094E09093B50B8093B40B0CE010E065E856
:10590000E62E69E0F62EA5C1E2E0EE16E6E1FE061F
:1059100009F436C5F3E6EF16F9E1FF0609F0B9CE52
:1059200081E08093D90583E59AE09093B50B80934D
:10593000B40B80EE91E090939E0B80939D0B80E2E0
:1059400093E090939C0B80939B0B03E510E052E354
:10595000E52E59E0F52E7DC129E0E21628E6F20693
:1059600009F4EAC438F585E3E81685E4F80609F495
:1059700070C498F4A9E2EA16A2E3FA0609F089CE07
:1059800083E096E09093B50B8093B40B00E410E0B5
:1059900042EFE42E48E0F42E5CC1B0E1EB16B3E533
:1059A000FB0609F461C4E8E0EE16E4E5FE0609F43E
:1059B00080CF6FCEF9E8EF16F7E7FF0609F486C44B
:1059C000B8F434E1E31638E6F30609F466C483E874
:1059D000E81687E7F80609F05CCE82E091E1909343
:1059E000B50B8093B40B68E870E08EEA9CE014C1BC
:1059F00093E9E91697E7F90609F40DC5A6E9EA1651
:105A0000A7E7FA0609F045CE83E094E09093B50B42
:105A10008093B40B80EE91E090939E0B80939D0B4E
:105A200080E491E090939C0B80939B0B0DE010E041
:105A300032E6E32E37E0F32E0CC1B8E3EB16B3E900
:105A4000FB0609F4ADC408F05FC0F5E2EF16F3E918
:105A5000FF0609F448C0A0F530E9E316F30609F49F
:105A60004FC4F8F497E5E91693E8F90609F011CE6A
:105A700083E094E19093B50B8093B40B80EE91E0BA
:105A800090939E0B80939D0B80E491E090939C0BF0
:105A900080939B0B02E010E0B8E9EB2EB8E0FB2E00
:105AA000D8C083E094E0A2E0EA16A3E9FA0609F47C
:105AB0009EC0B0E2EB16B3E9FB0609F4FACEE9CDDD
:105AC000E9E2EE16E3E9FE0609F46DC478F427E294
:105AD000E21623E9F20609F43AC438E2E31633E9A0
