:100000000C94DD030C94B0140C9485140C945A14C5
:100010000C942F140C9404140C94D9130C94AE1358
:100020000C9483130C940E040C940E040C940E0484
:100030000C940E040C940E040C940E040C940E04F8
:100040000C940E040C940E040C940E040C940E04E8
:100050000C943B150C940E040C940E040C94391360
:100060000C940E040C9405150C94DB140C940E04E3
:100070000C940E040C940E040C940E040C940E04B8
:100080000C940E040C940E040C940E040C940E04A8
:100090000C940E040C940E040C940E040C940E0498
:1000A0000C940E040C940E040C940E040C940E0488
:1000B0000C940E040C940E040C940E040C940E0478
:1000C0000C940E040C940E040C940E040C940E0468
:1000D0000C940E040C940E040C940E040C940E0458
:1000E0000C940E040C9481040C94AE040C94540AE9
:1000F0000C9456050C9433050C949D110C948C12A1
:100100000C945C120C94A9110C946D040C945D1267
:100110000C947D040C9485040C9460120C94A0043F
:100120000C94B8040C9434100C94BC040C94640526
:100130000C94D9070C94AA040C94A10C0C94680498
:100140000C948C040C9464150C9406050C949C057A
:100150000C9480110C94B2040C94B1080C94B40C5F
:100160000C94A4040C9489040C94E9050C94B0112B
:100170000C949C040C94D50F0C9481110C94280AB7
:100180000C9496040C94030F0C9442050C940505F2
:100190000C9492040C94911100000000003E5B4FFF
:1001A0005B3E3E6B4F6B3E1C3E7C3E1C183C7E3CD7
:1001B000181C577D571C1C5E7F5E1C00183C1800E5
:1001C000FFE7C3E7FF0018241800FFE7DBE7FF3075
:1001D000483A060E2629792926407F050507407FE3
:1001E00005253F5A3CE73C5A7F3E1C1C08081C1C56
:1001F0003E7F14227F22145F5F005F5F06097F014C
:100200007F006689956A606060606094A2FFA29436
:1002100008047E040810207E201008082A1C080804
:100220001C2A08081E101010100C1E0C1E0C303852
:100230003E3830060E3E0E06000000000000005F53
:1002400000000007000700147F147F14242A7F2A6F
:100250001223130864623649562050000807030031
:10026000001C2241000041221C002A1C7F1C2A087D
:10027000083E0808008070300008080808080000E0
:1002800060600020100804023E5149453E00427F54
:10029000400072494949462141494D331814127FA3
:1002A0001027454545393C4A494931412111090743
:1002B0003649494936464949291E000014000000C4
:1002C0004034000000081422411414141414004196
:1002D00022140802015909063E415D594E7C121153
:1002E000127C7F494949363E414141227F4141418B
:1002F0003E7F494949417F090909013E4141517306
:100300007F0808087F00417F41002040413F017F76
:10031000081422417F404040407F021C027F7F043E
:1003200008107F3E4141413E7F090909063E415187
:10033000215E7F09192946264949493203017F0177
:10034000033F4040403F1F2040201F3F4038403F78
:10035000631408146303047804036159494D43008E
:100360007F4141410204081020004141417F0402C5
:10037000010204404040404000030708002054545C
:1003800078407F284444383844444428384444283A
:100390007F385454541800087E090218A4A49C788D
:1003A0007F0804047800447D40002040403D007FE9
:1003B0001028440000417F40007C047804787C08C9
:1003C0000404783844444438FC182424181824249D
:1003D00018FC7C08040408485454542404043F4482
:1003E000243C4040207C1C2040201C3C4030403CB1
:1003F00044281028444C9090907C4464544C440011
:100400000836410000007700000041360800020174
:100410000204023C2623263C1EA1A161123A404060
:10042000207A3854545559215555794122545478DD
:1004300042215554784020545579400C1E52721276
:1004400039555555593954545459395554545800FF
:1004500000457C410002457D420001457C407D1203
:1004600011127DF0282528F07C5455450020545465
:100470007C547C0A097F4932494949323A44444410
:100480003A324A4848303A4141217A3A424020784B
:10049000009DA0A07D3D4242423D3D4040403D3C4C
:1004A00024FF2424487E4943662B2FFC2F2BFF0971
:1004B00029F620C0887E0903205454794100004465
:1004C0007D413048484A32384040227A007A0A0A50
:1004D000727D0D19317D2629292F282629292926C3
:1004E00030484D4020380808080808080808382F08
:1004F00010C8ACBA2F102834FA00007B0000081492
:100500002A142222142A14085500550055AA55AA67
:1005100055AAFF55FF55FF000000FF00101010FF07
:1005200000141414FF001010FF00FF1010F010F062
:10053000141414FC001414F700FF0000FF00FF1453
:1005400014F404FC141417101F10101F101F14149F
:10055000141F00101010F0000000001F10101010E9
:100560001F10101010F010000000FF1010101010DD
:1005700010101010FF10000000FF140000FF00FF1B
:1005800000001F10170000FC04F4141417101714B7
:1005900014F404F40000FF00F714141414141414D9
:1005A000F700F7141414171410101F101F1414144C
:1005B000F4141010F010F000001F101F0000001FB6
:1005C00014000000FC140000F010F01010FF10FFE9
:1005D000141414FF141010101F00000000F010FF7E
:1005E000FFFFFFFFF0F0F0F0F0FFFFFF0000000062
:1005F00000FFFF0F0F0F0F0F3844443844FC4A4AE6
:100600004A347E02020606027E027E02635549419A
:10061000633844443C04407E201E2006027E0202D1
:1006200099A5E7A5991C2A492A1C4C7201724C30E5
:100630004A4D4D303048784830BC625A463D3E49BC
:100640004949007E0101017E2A2A2A2A2A44445F60
:10065000444440514A444040444A51400000FF0154
:1006600003E080FF000008086B6B08361236243662
:10067000060F090F060000181800000010100030C7
:1006800040FF0101001F01011E00191D1712003C4F
:100690003C3C3C000000000000002000230026003D
:1006A00029002C002F003200000100000301060188
:1006B000090100000A0B02090C0D0E0807030401D2
:1006C000000000000000000000000000000000002A
:1006D00000000000000000000000000000001211F7
:1006E00010000000000000000000000000000000FA
:1006F000000000000000000000002100240027008E
:100700002A002D0030003300010100000401070120
:100710000A0101021020200808102040102040800B
:1007200002010201080402010102040810204080B5
:100730008040201008040201800402018040201043
:10074000080402010804020101020408102040808C
:10075000010204081020408000002200250028002B
:100760002B002E00310034000201000005010801B9
:100770000B01050505050705080808080202020225
:100780000A0A08080404040401010101010101012D
:100790000303030303030303040707070C0C0C0CF8
:1007A0000C0C0C0C020202020606060606060606E1
:1007B0000B0B0B0B0B0B0B0B641511241FBECFEF98
:1007C000D1E2DEBFCDBF00E00CBF12E0A0E0B2E09E
:1007D000E6E4F0E300E00BBF02C007900D92AE35F7
:1007E000B107D9F726E0AEE5B2E001C01D92A53C05
:1007F000B207E1F713E0CDEDD3E000E006C02197AA
:100800000109802FFE010E941418CC3DD10780E021
:100810000807A9F70E94A5160C9421180C94000053
:10082000CF93DF9390E0FC01EE5EF84F24918E5859
:10083000984FFC0184918823C1F090E0880F991FA4
:10084000FC01E850F94FC591D491FC01E85AF84FEA
:10085000A591B4919FB7F8948881E22FE0958E23FB
:1008600088838C91E823EC939FBFDF91CF9108950B
:10087000282F30E0F901EE54F94F9491F901EE5E22
:10088000F84F44912E58384FF9012491222309F44E
:1008900077C0992311F191509231F8F4E92FF0E0EB
:1008A0008827EA5AFB4F8F4F0C941418850489044B
:1008B00068047D0481046D048C04920496049C04F5
:1008C000A004A404AA04AE046D04B204B804BC04D9
:1008D000809180008F7780938000E22FF0E0EE0F10
:1008E000FF1FE856F94FA591B491EC91E42381E004
:1008F00090E009F047C080E00895809180008F7DEE
:10090000EACF80918000877FE6CF84B58F7784BD62
:10091000E4CF84B58F7DFBCF8091B0008F7780933B
:10092000B000DBCF8091B0008F7DF9CF8091900037
:100930008F7780939000D1CF809190008F7DF9CFF9
:1009400080919000877FF5CF8091A0008F77809372
:10095000A000C3CF8091A0008F7DF9CF8091A0002F
:10096000877FF5CF809120018F7780932001B5CFCD
:10097000809120018F7DF9CF80912001877FF5CF75
:1009800080E090E00895863308F0865320917B0044
:10099000982F9870277F922B90937B0087708064AC
:1009A00080937C0080917A00806480937A008091AB
:1009B0007A0086FDFCCF80917800909179000895AF
:1009C0003FB7F8948091650290916602A09167020A
:1009D000B091680226B5A89B05C02F3F19F001967B
:1009E000A11DB11D3FBFBA2FA92F982F8827BC0189
:1009F000CD01620F711D811D911D42E0660F771FB1
:100A0000881F991F4A95D1F708950895AF92BF9214
:100A1000CF92DF92EF92FF920F931F93CF93DF93CA
:100A20006C017B018B01040F151FEB015E01AE18F9
:100A3000BF08C017D10759F06991D601ED91FC911B
:100A40000190F081E02DC6011995892B79F7C50138
:100A5000DF91CF911F910F91FF90EF90DF90CF909A
:100A6000BF90AF900895FC01538D448D252F30E049
:100A7000842F90E0821B930B541710F0CF960895AB
:100A800001970895FC01918D828D981761F0A28DD8
:100A9000AE0FBF2FB11D5D968C91928D9F5F9F739E
:100AA000928F90E008958FEF9FEF0895FC01918D54
:100AB000828D981731F0828DE80FF11D858D90E0C1
:100AC00008958FEF9FEF0895FC01918D228D892F5E
:100AD00090E0805C9F4F821B91098F739927089546
:100AE00089E692E00E94640521E0892B09F420E068
:100AF000822F0895FC01A48DA80FB92FB11DA35A10
:100B0000BF4F2C91848D90E001968F739927848F2D
:100B1000A689B7892C93A089B1898C918370806450
:100B20008C93938D848D981306C00288F389E02DF1
:100B300080818F7D80830895EF92FF920F931F93A2
:100B4000CF93DF93EC0181E0888F9B8D8C8D981380
:100B50001AC0E889F989808185FF15C09FB7F8948C
:100B6000EE89FF896083E889F989808183708064D8
:100B700080839FBF81E090E0DF91CF911F910F9123
:100B8000FF90EF900895F62E0B8D10E00F5F1F4F32
:100B90000F731127E02E8C8D8E110CC00FB607FC41
:100BA000FACFE889F989808185FFF5CFCE010E94CF
:100BB0007A05F1CFEB8DEC0FFD2FF11DE35AFF4FBE
:100BC000F0829FB7F8940B8FEA89FB89808180625D
:100BD000CFCFCF93DF93EC01888D8823B9F0AA891A
:100BE000BB89E889F9898C9185FD03C0808186FDE8
:100BF0000DC00FB607FCF7CF8C9185FFF2CF808137
:100C000085FFEDCFCE010E947A05E9CFDF91CF912C
:100C1000089580E090E0892B29F00E9470058111F1
:100C20000E94000080E090E0892B49F080E090E095
:100C3000892B29F00E94000081110E94000080E0B1
:100C400090E0892B49F080E090E0892B29F00E9408
:100C5000000081110E94000080E090E0892B49F0A3
:100C600080E090E0892B29F00E94000081110C9413
:100C7000000008958B988A9820910201277820938C
:100C80000201A5982EB1277C2EB970910201292F5F
:100C900030E0F901A5E0EE0FFF1FAA95E1F7E0763D
:100CA000E72BE09302017EB1F901EE0FFF1FEE0F7B
:100CB000FF1FE073E72BEEB974B3F901EE0FFF1FCE
:100CC000E072E72BE4BB7EB1F901F595E795F59568
:100CD000E795E870E72BEEB970910201E3E03595F6
:100CE0002795EA95E1F72871272B2093020189982F
:100CF000899A20910201277820930201A5982EB1AC
:100D0000277C2EB9709102019C01F5E0880F991F94
:100D1000FA95E1F78076872B809302017EB1C901B5
:100D2000880F991F880F991F8073872B8EB974B312
:100D3000C901880F991F8072872B84BB7EB1C901BE
:100D400095958795959587958870872B8EB9809115
:100D50000201F3E035952795FA95E1F72871282BE4
:100D6000209302018998899A8A9AFA01615008F4BD
:100D70003EC0819190910201977890930201A598CD
:100D80009EB1977C9EB94091020190E09C0155E094
:100D9000220F331F5A95E1F72076242B209302016E
:100DA0004EB19C01220F331F220F331F2073242BBF
:100DB0002EB944B39C01220F331F2072242B24BB75
:100DC0004EB19C0135952795359527952870242B94
:100DD0002EB92091020133E0959587953A95E1F778
:100DE0008871822B809302018998899ABFCF8B9A50
:100DF00008958B988A98E2E0F1E02081277820839B
:100E0000A5982EB1277C2EB9A081292F30E0A90109
:100E1000B5E0440F551FBA95E1F740764A2B408361
:100E2000AEB1A901440F551F440F551F40734A2B03
:100E30004EB9A4B3A901440F551F40724A2B44BBBD
:100E4000AEB1A901559547955595479548704A2BE0
:100E50004EB9408153E0359527955A95E1F72871B1
:100E6000242B20838998899A208127782083A5982C
:100E70002EB1277C2EB940819C01A5E0880F991FD7
:100E8000AA95E1F78076842B80834EB1C901880F43
:100E9000991F880F991F8073842B8EB944B3C901A1
:100EA000880F991F8072842B84BB4EB1C901959520
:100EB0008795959587958870842B8EB98081B3E04E
:100EC00035952795BA95E1F72871282B20838998C5
:100ED000899A8A9A808187788083A5988EB1877C49
:100EE0008EB94081872F90E09C0155E0220F331F7F
:100EF0005A95E1F72076242B20834EB19C01220FD6
:100F0000331F220F331F2073242B2EB944B39C01AF
:100F1000220F331F2072242B24BB4EB19C01359528
:100F20002795359527952870242B2EB92081A3E08D
:100F300095958795AA95E1F78871822B808389988A
:100F4000899A808187788083A5988EB1877C8EB9B5
:100F50004081CB019B01B5E0220F331FBA95E1F729
:100F60002076242B20834EB19B01220F331F220FAA
:100F7000331F2073242B2EB944B39B01220F331F40
:100F80002072242B24BB4EB19C01359527953595B5
:100F900027952870242B2EB92081A3E0959587955D
:100FA000AA95E1F78871822B80838998899A8B9A18
:100FB0000895FC01262F358D868D82958170982F9E
:100FC0009627692F70E072A361A330FF0CC08213D3
:100FD00007C080E290E050E040E060E00C943A0608
:100FE00081E290E0F8CF878D90A1833927E79207BF
:100FF00041F058F4843521E0920791F08032944515
:10100000C1F4626081E094E012C0863223E9920765
:10101000C1F3893025EB9207A1F38532924949F457
:10102000660F771F660F771F636187E090E00C946F
:10103000F90681E690E0FBCF8F929F92AF92BF922C
:10104000CF92DF92EF92FF920F931F93CF93DF9394
:1010500000D01F92CDB7DEB77C014B015A01690168
:10106000FC01878D90A18632954151F4F701868964
:1010700080FF06C0C801841B950B81F50F5F1F4FD1
:10108000F701858D80FF31C085A599828A82DB8238
:10109000CC82AE014F5F5F4F64E090E00E943A0661
:1010A000F70181A9B982AA821B830C83AE014F5F2D
:1010B0005F4F64E090E00E943A060F900F900F900F
:1010C0000F90DF91CF911F910F91FF90EF90DF90E4
:1010D000CF90BF90AF909F908F90089526173707BD
:1010E00079F6C80ED91E8A01CBCFB40187A190A58D
:1010F0000E94F906B501F70181A592A50E94F906A3
:10110000C814D90419F40A151B05B9F2F701858D25
:1011100085FF08C0868980FF1EC0102F0027A02AE7
:10112000B12A8501B401F70185A596A50E94F906AB
:10113000B501F70181A992A90E94F906B601F7014C
:1011400087A590A90E94F906B801F70183A994A97F
:101150000E94F906B2CFDC2CCC248C289D28640197
:10116000E1CFAF92BF92CF92DF92EF92FF920F93B7
:101170001F93CF93DF93EC0137FF05C0620F731FFE
:10118000319521953109260F371F77FF02C070E096
:1011900060E088859985281739070CF4C9016C012E
:1011A000C61AD70A17FF05C0400F511F11950195A8
:1011B0001109040F151F57FF02C050E040E02A85B7
:1011C0003B85021713070CF498015901A41AB50ABC
:1011D0008901015011099C0121503109CE010E9461
:1011E0001C088B988A985BA54CA580910201877892
:1011F00080930201A5988EB1877C8EB9609102011F
:10120000842F90E09C0175E0220F331F7A95E1F75F
:101210002076262B209302016EB19C01220F331FF2
:10122000220F331F2073262B2EB964B39C01220F8B
:10123000331F2072262B24BB6EB19C013595279558
:10124000359527952870262B2EB920910201B3E001
:1012500095958795BA95E1F78871822B8093020165
:101260008998899A80910201877880930201A598D4
:101270008EB1877C8EB960910201852F942F9C01DD
:1012800015E0220F331F1A95E1F72076262B2093C5
:1012900002014EB19C01220F331F220F331F207316
:1012A000242B2EB944B39C01220F331F2072242B10
:1012B00024BB4EB19C01359527953595279528700F
:1012C000242B2EB92091020173E0959587957A958C
:1012D000E1F78871822B809302018998899A8A9A12
:1012E000CA14DB042CF09A2D8B2D5601C92ED82E52
:1012F0008F2D90E09C0145E0220F331F4A95E1F7C6
:10130000322F3076AC01440F551F440F551F4073E8
:10131000BC01660F771F562F5072BC0175956795FB
:10132000759567956870A3E095958795AA95E1F7FF
:10133000282F2871C701F701B5E0EE0FFF1FBA95FE
:10134000E1F77E2F7076F701EE0FFF1FEE0FFF1F04
:10135000E073D701AA0FBB1FFA2FF072D701B59522
:10136000A795B595A7951A2F187003E095958795C1
:101370000A95E1F788711C141D040CF043C0D501D7
:1013800090910201977890930201A5989EB1977C65
:101390009EB990910201932B909302019EB1942BE0
:1013A0009EB994B3952B94BB9EB1962B9EB9909108
:1013B0000201922B909302018998899A90910201DF
:1013C000977890930201A5989EB1977C9EB99091D1
:1013D0000201972B909302019EB19E2B9EB994B36C
:1013E0009F2B94BB9EB1912B9EB990910201982B9B
:1013F000909302018998899A119711F691E0C91A80
:10140000D108B9CF8B9A8D8D80FF08C08F8D98A1A0
:101410008632954191F48E8980FF0FC00A851B8525
:1014200001501109288539852150310950E040E0EB
:1014300070E060E0CE010E941C08DF91CF911F9107
:101440000F91FF90EF90DF90CF90BF90AF900895F5
:10145000EF92FF920F931F93CF93DF93EC0177FDF1
:101460001CC057FD1AC0E885F9856E177F07ACF4DC
:10147000EA85FB854E175F0784F479018A019B0199
:101480000E941C08B7018BA59CA5DF91CF911F91ED
:101490000F91FF90EF900C94F906DF91CF911F917F
:1014A0000F91FF90EF900895EF92FF920F931F938B
:1014B000CF93DF9300D000D000D01F92CDB7DEB71E
:1014C0007C01862F8370F701868B962F917060FFC9
:1014D000E3C026813781F70131872087992309F4FA
:1014E000DEC024813581F70133872287823009F4F9
:1014F000DBC0833009F4DAC0813009F4D3C088E45A
:101500008A87F701858D968D90FF03C02A85205824
:101510002A8791FF04C02A8530E423272A8793FF76
:1015200004C02A8538E023272A87F701278D30A1B8
:1015300080FF00C12431F8E63F0709F0B9C09A8561
:10154000892F88728A871F82892F85958074282F1A
:101550002260892F90E09595879580729927822B3C
:1015600088878BE38987AE01495F5F4F63E086EB35
:1015700090E00E943A062AE230E0F70130A727A364
:101580008BE290E092A781A74CE250E054A743A7DA
:1015900036A725A730AB27A792AB81AB94AB83AB23
:1015A000AE01465F5F4F61E086E390E00E943A063D
:1015B0008A8590E0F70194A383A3F701868980FFD1
:1015C0001CC0858D968D92FD18C087A190A521A580
:1015D00032A530A727A392A781A785A596A521A903
:1015E00032A936A725A792AB81AB87A590A923A9DD
:1015F00034A930AB27A794AB83ABF70102851385E1
:1016000001501109208531852150310950E040E019
:1016100070E060E0C7010E941C08F70166817781D5
:10162000878D90A120E08732F3E99F0709F420E23B
:10163000F701358D30FF39C119821A827B836C83A3
:101640001D822E83AE014F5F5F4F66E083E390E023
:101650000E943A0619821A82AE014F5F5F4F62E024
:1016600087E390E00E943A06F701858D80FF07C06E
:1016700050E040E060E083E190E00E943A062A9664
:101680000FB6F894DEBF0FBECDBFDF91CF911F9193
:101690000F91FF90EF900895248135811CCF268112
:1016A000378121CF88E22CCF88E92ACF88EF28CF55
:1016B000273243E9340789F41F8281E388878A85CA
:1016C000859585958595859588708987AE01495F53
:1016D0005F4F63E080EC90E04CCF233689E1380720
:1016E00049F02138E4E93E0729F02131F5E13F07CF
:1016F00009F041CF8A8587FF02C081608A878A8589
:1017000086FF02C082608A878A858F73233649E10B
:10171000340731F0213884E9380721F48A858F7243
:101720008A8729CF2131354109F025CF8A858F7EDF
:10173000806CF6CF6A85862F062E000C990B233914
:10174000F7E73F0751F0A8F52435E1E03E0709F43B
:101750005CC02032F4E53F07A1F540E052E0F7011C
:1017600050A747A341E052E052A741A742E052E010
:1017700054A743A740E152E056A745A741E152E0F4
:1017800050AB47A742E152E052AB41AB43E152E0DC
:1017900054AB43AB882790782632F3E93F0721F01A
:1017A0002032344509F071C067FD846060E071E368
:1017B0006EC0263243E9340781F22930E5EB3E075B
:1017C00061F220E230E0F70130A727A321E230E008
:1017D00032A721A722E230E034A723A720E530E09A
:1017E00036A725A721E530E030AB27A722E530E07A
:1017F00032AB21AB23E530E034AB23ABBC01662731
:101800007078776280E690E046C027E330E0F70129
:1018100036A725A726E330E030AB27A729E330E041
:1018200032AB21AB28E330E034AB23AB20E230E035
:1018300030A727A321E230E032A721A722E230E03F
:1018400034A723A7F4E06F9FB001112466277170BD
:10185000882792708862682B792B81E090E00E9443
:10186000F9068A85682F70E0759567957595679577
:101870006870772783FD70616063F70174A363A3C9
:1018800083E090E00E94F90698CE60E072E6682B53
:10189000792B80E094E00E94F9066A85F4E06F9F5E
:1018A000B001112466277170D8CF8339F7E79F07FD
:1018B000D9F1F0F4803244E59407B1F18338E7E7D9
:1018C0009E0731F184359140F1F46150710981E353
:1018D00090E00E94F90670E060E082E390E00E94F0
:1018E000F90670E060E083E390E00E94F906C7CE5D
:1018F000863223E99207C1F0893045EB9407A1F0C5
:101900008532924911F3F70161A172A1626003C0AF
:10191000F70161A172A181E690E00E94F90670E0F2
:1019200060E08AE690E0E1CFF70161A172A1626018
:1019300081E094E00E94F90670E060E084E094E0C9
:10194000D4CFEF92FF920F931F93DC01ED91FC91A6
:1019500000A0F1A1E02D780101E010E019951F91A0
:101960000F91FF90EF900895EF92FF920F931F93C6
:10197000DC01ED91FC9100A0F1A1E02D780189013D
:1019800021E030E019951F910F91FF90EF9008959D
:101990000895FC016370668B84819581268137816F
:1019A000613039F0633029F091878087338722874F
:1019B0000895318720879387828708952F923F92D9
:1019C0004F925F926F927F928F929F92AF92BF924F
:1019D000CF92DF92EF92FF920F931F93CF93DF93FB
:1019E000CDB7DEB76A970FB6F894DEBF0FBECDBF96
:1019F0009A8F898F7A8369834A01D22E18870F8341
:101A00003701BC2CDC0159962D913C915A97211538
:101A1000310509F015C118968D919C911997681799
:101A200079070CF0D7C11A968D919C9148175907E8
:101A30000CF0D0C14C2C512CB6E0CB9E600D711D2A
:101A400011247C876B87161617060CF0C3C1EA2D8C
:101A5000F0E0FA87E98793E0EE0FFF1F9A95E1F730
:101A6000F88BEF87CF01840F951F181619060CF01D
:101A7000B1C1A98DBA8D58968C91811104C0BFEA6D
:101A8000BD1508F4D394A98DBA8DED91FC911197F1
:101A90000284F385E02DCD011995B5E0DB9EC001F0
:101AA0001124E981FA81FC83EB83312C212C9C01E8
:101AB00028563E4F388F2F8B4A2D50E05E8B4D8B32
:101AC000EF89F88DE20DF31D44919E828D82D12C19
:101AD000C12C69817A81620D731D7A8B698B842F89
:101AE00090E09C8B8B8BE98DFA8DA081B18140FFBA
:101AF00082C0F1E0BF126FC0AF126DC01C96ED91B5
:101B0000FC912F813885A4014C0D5D1D69897A896E
:101B1000898D9A8D1995EB89FC89F595E7954E2F5E
:101B20005FEFC51AD50A6D817E818D899E89680F08
:101B3000791F7E836D8398E0C916D10481F6AFEFDB
:101B40002A1A3A0AEB81FC81E40DF51DFC83EB8334
:101B5000F5E02F16310409F0B3CF2F813885261513
:101B60003705B9F0A98DBA8DED91FC91B1E0BB12AA
:101B700057C0AB1255C069817A816B5F7F4F008877
:101B8000F189E02D830128E030E0A401898D9A8D50
:101B90001995A98DBA8DED91FC9111970688F78959
:101BA000E02DCD016A960FB6F894DEBF0FBECDBF13
:101BB000DF91CF911F910F91FF90EF90DF90CF9029
:101BC000BF90AF909F908F907F906F905F904F905D
:101BD0003F902F9019941E96ED91FC91EF80F88420
:101BE00009851A8592014D815E816B817C81898D89
:101BF0009A8D199590CF2F8138852615370509F4D0
:101C00008ACF31E0B31207C0A31205C01C96ED9134
:101C1000FC91930178CF1E96ED91FC917301E0CF7A
:101C20006B857C85641975090684F785E02D730141
:101C30000F8518899201A401898D9A8D1995A9CFD4
:101C4000F90134969491329745915491D91AB7E09D
:101C5000DB9E400D511D1124F901259134913C8BDF
:101C60002B8BFA0125903490FA01329674903196BC
:101C70003491398B329664903196449041E04C1502
:101C800018F04A1508F07FC0662D062C000C770B63
:101C90007C836B83842D042C000C990B9E838D8395
:101CA000A98DBA8DED91FC9111970284F385E02DF9
:101CB000CD011995512CD12CC12CEA2DF0E0FA87D9
:101CC000E9872B2D30E03C872B87A401440D511D63
:101CD00047FC5A95588F4F8B69817A81660D711D2B
:101CE00067FC7A957E876D877989C71608F051CF92
:101CF0002C2D30E04D815E81420F531FA985BA859E
:101D00004A9FC0014B9F900D5A9F900D1124FC01DA
:101D1000E80DF91DF88BEF87852D612C4F89588DC3
:101D2000420F531F5E8B4D8B671408F050C0442444
:101D30004394480E877041F4C1010196EB89FC89F8
:101D4000E20DF31DD4901C01D7FE19C0A98DBA8DE8
:101D5000ED91FC91662D70E0B1E0BB1219C0AB12A1
:101D600017C02D853E85620F731F0484F585E02D15
:101D70002F8138854D895E89898D9A8D1995DD0C65
:101D80006394842DD1CF1E821D821C821B8288CF3A
:101D90004B815C81640F751FAB85BC856A9FC00158
:101DA0006B9F900D7A9F900D112469817A81680F45
:101DB000791F0684F785E02DEF80F88409851A8560
:101DC0009D014F855889898D9A8D1995D8CF570CCB
:101DD000C3948ACF6A960FB6F894DEBF0FBECDBF0C
:101DE000DF91CF911F910F91FF90EF90DF90CF90F7
:101DF000BF90AF909F908F907F906F905F904F902B
:101E00003F902F9008958F929F92AF92CF92EF9232
:101E1000FF920F931F93CF93DF93EC01262F898DB1
:101E20009A8D009709F051C06A30D1F41D861C8646
:101E30008D8948E0849F900111248E859F85820FB3
:101E4000931F9F878E8781E090E0DF91CF911F9154
:101E50000F91FF90EF90CF90AF909F908F9008954B
:101E60006D3089F3CC88AD888F898823C1F08C854B
:101E70009D8536E0C39E800D911D112448855985AE
:101E80004817590764F44E855F851D861C8638E027
:101E9000A39EC0011124840F951F9F878E87EA8817
:101EA000FB88088919894E855F856C857D85CE0103
:101EB0000E94DE0C2C898C859D8546E0249F800D38
:101EC000911D11249D878C87BECF6A3069F41D86D1
:101ED0001C86FC013896E4912D898E859F85E29FB2
:101EE000800D911D1124ADCF6D3009F4ACCFFC01F4
:101EF00034963491631708F4A6CF3296E491E6172E
:101F000008F4A1CFFC01329685909490462F431B94
:101F1000342F47E0349F800C911C1124F401329639
:101F200034913196E4913323A9F1EE2399F1CC88D1
:101F3000F4013596E491AD884F89442301F10E2ECA
:101F4000000CFF0BE30FF11DCE9EA001CF9E500DA4
:101F500011246C857D85460F571F68857985641728
:101F600075076CF44E855F851D861C86FC013896CE
:101F7000E491AE9E400D511D11245F874E87EA8883
:101F8000FB88088919894E855F856C857D85CE0122
:101F90000E94DE0CF4013496E4912C898C859D8599
:101FA000E29F800D911D11248DCF6F927F928F92B1
:101FB0009F92AF92BF92CF92DF92EF92FF920F93D8
:101FC0001F93CF93DF93EC016B015A013901480154
:101FD000E881F9810284F385E02D1995E881F98182
:101FE0000288F389E02D87019301A501B601CE0196
:101FF0001995A501480D591D41505109E881F981F4
:102000000288F389E02D9301B601CE011995E8818C
:10201000F9810088F189E02D9401A501B601CE0176
:102020001995C60CD71CB60161507109E881F98178
:102030000088F189E02D9401A501CE011995E88170
:10204000F9810688F789E02DCE01DF91CF911F91AC
:102050000F91FF90EF90DF90CF90BF90AF909F9047
:102060008F907F906F9019946F927F928F929F9232
:10207000AF92BF92CF92DF92EF92FF920F931F9396
:10208000CF93DF935C01EB016A01490138018701BD
:10209000DC01ED91FC916217730719F56416750662
:1020A0002CF0962D872D3A01C92ED82E960126198F
:1020B00037092F5F3F4F048CF58DE02DA301BE0142
:1020C000C5011995DF91CF911F910F91FF90EF906E
:1020D000DF90CF90BF90AF909F908F907F906F9048
:1020E00008954615570591F42617370724F0892DD2
:1020F0004B01C22FD82F9E01281939092F5F3F4F5E
:10210000068CF78DE02DA601B401DACF0284F385A9
:10211000E02D1995D501ED91FC910488F589E02D0C
:1021200083019401A601BE01C5011995D501ED9168
:10213000FC910688F789E02DC501DF91CF911F91B1
:102140000F91FF90EF90DF90CF90BF90AF909F9056
:102150008F907F906F901994EF92FF920F931F933F
:10216000DC011A960D911C911B9718962D913C91AC
:102170001997ED91FC9100A0F1A1E02D7B0150E0B9
:1021800040E070E060E019951F910F91FF90EF9093
:1021900008954F925F926F927F928F929F92AF922B
:1021A000BF92CF92DF92EF92FF920F931F93CF9344
:1021B000DF936C012B015A0139014801DC01ED91DB
:1021C000FC910284F385E02D1995E201640C751CE5
:1021D000D601ED91FC91C615D7055CF40088F18914
:1021E000E02D87019401A501BE01C6011995219634
:1021F000EFCF0688F789E02DC601DF91CF911F91BF
:102200000F91FF90EF90DF90CF90BF90AF909F9095
:102210008F907F906F905F904F9019948F929F92C4
:10222000AF92BF92CF92DF92EF92FF920F931F93E4
:10223000CF93DF93EC015B014A016901E881F981E9
:102240000284F385E02D199595012C0D3D1D21503B
:102250003109E881F9810488F589E02D780184014C
:10226000A401B501CE011995E881F9810688F789A5
:10227000E02DCE01DF91CF911F910F91FF90EF9054
:10228000DF90CF90BF90AF909F908F9019948F92D6
:102290009F92AF92BF92CF92DF92EF92FF920F93F5
:1022A0001F93CF93DF93EC015B014A016901780131
:1022B000E881F9810284F385E02D1995C80CD91CB9
:1022C000860101501109E881F9810488F589E02D22
:1022D0009501A401B501CE011995E881F98106881F
:1022E000F789E02DCE01DF91CF911F910F91FF90E3
:1022F000EF90DF90CF90BF90AF909F908F90199408
:102300000895EF92FF920F931F93DC01ED91FC91E2
:1023100000A0F1A1E02D19951F910F91FF90EF9072
:1023200008950F931F93DC01ED91FC91068CF78DBE
:10233000E02D19951F910F9108950F931F93DC01C4
:10234000ED91FC91048CF58DE02D19951F910F9165
:102350000895DC01ED91FC910084F185E02D199444
:102360002F923F924F925F926F927F928F929F92A5
:10237000AF92BF92CF92DF92EF92FF920F931F9393
:10238000CF93DF9300D000D0CDB7DEB73C016A0118
:102390003E832D83FC82EB825801A41AB50AB7FE56
:1023A00003C0B194A194B1088D809E80861A970ACB
:1023B00097FE03C09194819491088A149B045CF069
:1023C000902F812F0D811E819D838E839C2D8D2DBD
:1023D0006B01692F782F0C151D055CF09D818E8196
:1023E0007E836D83692F782F902F812F8601C92ED0
:1023F000D82E1601201A310A2B012D813E81421A56
:10240000530A57FE03C0519441945108710137FE9D
:1024100003C03FEFE31AF30AF594E7948D819E81A0
:10242000861797075CF5A1E0B0E0BA83A983C016D0
:10243000D1064CF1D301ED91FC910484F585E02D9A
:102440002B813C81A8016D817E818A149B041CF044
:102450004D815E81B801C3011995E418F508F7FEB6
:102460000AC02D813E8189819A81280F391F3E83C0
:102470002D83E20CF31C0F5F1F4FD9CF2FEF3FEFDF
:102480003A832983D4CF26960FB6F894DEBF0FBEC9
:10249000CDBFDF91CF911F910F91FF90EF90DF9013
:1024A000CF90BF90AF909F908F907F906F905F90F4
:1024B0004F903F902F900895089590E080E0089508
:1024C000EF92FF920F931F93DC011A960D911C91CE
:1024D0001B9718962D913C911997ED91FC9100A0B6
:1024E000F1A1E02D7B0150E040E070E060E0199543
:1024F0001F910F91FF90EF900895FC010190002033
:10250000E9F73197AF01481B590BBC0189E692E00E
:102510000C9406050E941C188F929F92AF92BF9256
:10252000CF92DF92EF92FF92CF93DF93CDB7DEB7DA
:10253000A1970FB6F894DEBF0FBECDBFE0905E024C
:10254000F0905F02F70180810E943804F7019583C3
:10255000848381810E94C30421E030E0F701448537
:1025600055854817590714F030E020E0F70137830C
:10257000268384819581408551858417950751F084
:102580008217930709F455C02685378521503109F4
:1025900037872687F701918780878EE492E00E9433
:1025A0007D12F701C684D7840D2C000CEE08FF08BD
:1025B000F7FE44C06DE289E692E00E949C05222766
:1025C0003327A9012C193D094E095F0919A2CE0133
:1025D00081967C019AE0892E912CA12CB12CCA0104
:1025E000B901A50194010E94F217605DF7016293A1
:1025F0007F01211531054105510589F7E114F104E9
:1026000019F0C7010E947D128AE592E00E947D12B6
:10261000A1960FB6F894DEBF0FBECDBFDF91CF916C
:10262000FF90EF90DF90CF90BF90AF909F908F90F2
:102630000895268537852F5F3F4FAACFA7019601C2
:1026400019A2CE0181967C018AE0882E912CA12CC2
:10265000B12CCA01B901A50194010E94F217605D75
:10266000F70162937F01211531054105510589F775
:10267000C5CF1F920F920FB60F9211242F933F9345
:102680008F939F93AF93BF93809161029091620269
:10269000A0916302B09164023091600223E0230FA5
:1026A0002D3758F50196A11DB11D2093600280932E
:1026B000610290936202A0936302B09364028091DE
:1026C000650290916602A0916702B091680201963E
:1026D000A11DB11D8093650290936602A0936702CD
:1026E000B0936802BF91AF919F918F913F912F91CD
:1026F0000F900FBE0F901F90189526E8230F02969B
:10270000A11DB11DD2CF1F920F920FB60F921124AF
:102710000BB60F922F933F934F935F936F937F93DB
:102720008F939F93AF93BF93EF93FF93E0910E022C
:10273000F0910F021995FF91EF91BF91AF919F9189
:102740008F917F916F915F914F913F912F910F905A
:102750000BBE0F900FBE0F901F9018951F920F92F7
:102760000FB60F9211240BB60F922F933F934F93F6
:102770005F936F937F938F939F93AF93BF93EF93E9
:10278000FF93E0910C02F0910D021995FF91EF91EA
:10279000BF91AF919F918F917F916F915F914F9179
:1027A0003F912F910F900BBE0F900FBE0F901F9077
:1027B00018951F920F920FB60F9211240BB60F921D
:1027C0002F933F934F935F936F937F938F939F9339
:1027D000AF93BF93EF93FF93E0910202F091030256
:1027E0001995FF91EF91BF91AF919F918F917F913B
:1027F0006F915F914F913F912F910F900BBE0F9072
:102800000FBE0F901F9018951F920F920FB60F9248
:1028100011240BB60F922F933F934F935F936F93B7
:102820007F938F939F93AF93BF93EF93FF93E09129
:102830000002F09101021995FF91EF91BF91AF91C4
:102840009F918F917F916F915F914F913F912F91C8
:102850000F900BBE0F900FBE0F901F9018951F92F8
:102860000F920FB60F9211240BB60F922F933F9336
:102870004F935F936F937F938F939F93AF93BF9388
:10288000EF93FF93E0910A02F0910B021995FF91EB
:10289000EF91BF91AF919F918F917F916F915F91D8
:1028A0004F913F912F910F900BBE0F900FBE0F9045
:1028B0001F9018951F920F920FB60F9211240BB60E
:1028C0000F922F933F934F935F936F937F938F93C9
:1028D0009F93AF93BF93EF93FF93E0910802F09122
:1028E00009021995FF91EF91BF91AF919F918F913F
:1028F0007F916F915F914F913F912F910F900BBE00
:102900000F900FBE0F901F9018951F920F920FB649
:102910000F9211240BB60F922F933F934F935F9317
:102920006F937F938F939F93AF93BF93EF93FF9397
:10293000E0910602F09107021995FF91EF91BF9186
:10294000AF919F918F917F916F915F914F913F9147
:102950002F910F900BBE0F900FBE0F901F901895E8
:102960001F920F920FB60F9211240BB60F922F9356
:102970003F934F935F936F937F938F939F93AF9307
:10298000BF93EF93FF93E0910402F0910502199534
:10299000FF91EF91BF91AF919F918F917F916F9137
:1029A0005F914F913F912F910F900BBE0F900FBEF3
:1029B0000F901F9018951F920F920FB60F9211242F
:1029C0000BB60F922F933F934F935F936F937F9329
:1029D0008F939F93AF93BF93EF93FF9389E692E01A
:1029E0000E947A05FF91EF91BF91AF919F918F91D6
:1029F0007F916F915F914F913F912F910F900BBEFF
:102A00000F900FBE0F901F9018951F920F920FB648
:102A10000F9211240BB60F922F938F939F93EF93E6
:102A2000FF93E0917902F0917A028081E0917F0238
:102A3000F091800282FD1DC09081809182028F5FA3
:102A40008F7320918302821741F0E0918202F0E0BF
:102A5000E759FD4F958F80938202FF91EF919F91EF
:102A60008F912F910F900BBE0F900FBE0F901F9064
:102A700018958081F2CF1F920F920FB60F921124FA
:102A80000BB60F922F933F934F935F936F937F9368
:102A90008F939F93AF93BF93EF93FF93F0E0E0E0AA
:102AA0001995FF91EF91BF91AF919F918F917F9178
:102AB0006F915F914F913F912F910F900BBE0F90AF
:102AC0000FBE0F901F901895E9E6F2E01382128274
:102AD00088EE93E0A0E0B0E084839583A683B7837B
:102AE00084E192E09183808385EC90E095878487F0
:102AF00084EC90E09787868780EC90E0918B808BC8
:102B000081EC90E0938B828B82EC90E0958B848BB0
:102B100086EC90E0978B868B118E128E138E148E1E
:102B2000E6E0F3E085E1808384E4818382E090E065
:102B3000938382838CE593E0958784871092710359
:102B400010927003109253031092520310923503A7
:102B5000109234031092170310921603109225045A
:102B60001092240410920704109206041092E903B4
:102B70001092E8031092CB031092CA031092AD0397
:102B80001092AC0310928F0310928E031092BB042C
:102B90001092BA0410929D0410929C0410927F042B
:102BA00010927E041092610410926004109243040B
:102BB0001092420410926F0510926E05109251050A
:102BC000109250051092330510923205109215059F
:102BD000109214051092F7041092F6041092D90482
:102BE0001092D80410925F0610925E061092410671
:102BF00010924006109223061092220610920506AB
:102C0000109204061092E7051092E6051092C9058D
:102C10001092C8051092AB051092AA0510928D056E
:102C200010928C05A1EBB6E089E312968C93129773
:102C300088E314968C93149789E013968C931397DA
:102C400088E015968C9315978CE291E017969C93EB
:102C50008E931697EAE7F7E0E491F0E0EE0FFF1F9E
:102C6000E85AF84F8591949119969C938E931897F2
:102C7000EBEAF7E0E491F0E0EE0FFF1FE85AF84FBF
:102C8000859194911B969C938E931A97EAEAF7E0AC
:102C9000E491F0E0EE0FFF1FE85AF84F8591949110
:102CA0001D969C938E931C97EBE7F7E0E491F0E080
:102CB000EE0FFF1FE85AF84F859194911F969C9351
:102CC0008E931E97EAE1F7E0E4915096EC935097CB
:102CD000EBE4F7E0E4915296EC935297EAE4F7E0E4
:102CE000E4915196EC935197EBE1F7E0E491539620
:102CF000EC9353978AE090E08D939C93ECE7F6E099
:102D00001382128220EF30E03583248380E491E047
:102D1000978386833187208793878287168A1586D3
:102D200014861786168681E0858B848B2FEF3FEF04
:102D3000338B228B318B208B878B108E128E118ED2
:102D400086E292E0918380830895789484B58260CE
:102D500084BD84B5816084BD85B5826085BD85B53F
:102D6000816085BD80916E00816080936E001092BD
:102D70008100809181008260809381008091810038
:102D800081608093810080918000816080938000C9
:102D90008091B10084608093B1008091B000816027
:102DA0008093B00080919100826080939100809127
:102DB0009100816080939100809190008160809368
:102DC00090008091A10082608093A1008091A10079
:102DD00081608093A1008091A00081608093A00019
:102DE0008091210182608093210180912101816085
:102DF0008093210180912001816080932001809146
:102E00007A00846080937A0080917A008260809357
:102E10007A0080917A00816080937A0080917A00B4
:102E2000806880937A001092C100E0917902F0915D
:102E30007A0282E08083E0917502F091760210823E
:102E4000E0917702F091780280E180831092810214
:102E5000E0917D02F0917E0286E08083E0917B022A
:102E6000F0917C02808180618083E0917B02F0910F
:102E70007C02808188608083E0917B02F0917C02FB
:102E8000808180688083E0917B02F0917C02808168
:102E90008F7D8083809106030E9410048091070338
:102EA0000E941004809106030E94380490930F033F
:102EB00080930E03809107030E94C30421E030E059
:102EC00040911203509113034817590714F030E052
:102ED00020E0309311032093100390910603923069
:102EE000D1F58CE892E190930102809300028091E9
:102EF0006A008C7F816080936A00EC9A86E093E0A0
:102F000090935F0280935E020E94E0046B017C015B
:102F10008AE0882E912CA12CB12C0E94E0046C191F
:102F20007D098E099F09683E734081059105A8F3CC
:102F300021E0821A9108A108B10888EEC80E83E04A
:102F4000D81EE11CF11C81149104A104B10429F7DD
:102F50000E940906D9CF933071F48CE892E19093E6
:102F600003028093020280916A00837F84608093D1
:102F70006A00ED9AC3CF8EEE890F843008F0BECF81
:102F800087E1891BE82FF0E0EE0FFF1FE050FE4FB6
:102F90002CE832E1318320838430A1F08530D1F0F8
:102FA000833041F0809169008C7F8160809369005B
:102FB000E89AA4CF80916900837F84608093690040
:102FC000E99A9CCF809169008F7C80618093690031
:102FD000EA9A94CF809169008F738064809369002E
:102FE000EB9A8CCFA1E21A2EAA1BBB1BFD010DC0D0
:102FF000AA1FBB1FEE1FFF1FA217B307E407F507A9
:1030000020F0A21BB30BE40BF50B661F771F881F84
:10301000991F1A9469F760957095809590959B011A
:10302000AC01BD01CF010895EE0FFF1F881F8BBFBC
:103030000790F691E02D199481E090E0F8940C94BB
:063040002118F894FFCFF7
:10304600050505050505050505050505050505052A
:10305600000000009C0506053305E90564054205E8
:10306600560500000000030F06055D125C12280AD3
:103076008011A91181119D119111B0118011540A6D
:10308600D907B40CA10CB10860123410D50F506FDB
:0E309600736974696F6E203A20000D0A000005
:00000001FF
