:100000000C94DB070C940C080C940C080C940C0852
:100010000C940C080C940C080C940C080C940C0810
:100020000C940C080C940C080C940C080C940C0800
:100030000C940C080C940C080C940C080C940C08F0
:100040000C940C080C940C080C940C080C940C08E0
:100050000C94BC3E0C940C080C940C080C94123EAE
:100060000C940C080C94863E0C945C3E0C940C088A
:100070000C940C080C940C080C940C080C940C08B0
:100080000C940C080C940C080C940C080C940C08A0
:100090000C940C080C940C080C940C080C940C0890
:1000A0000C940C080C940C080C940C080C940C0880
:1000B0000C940C080C940C080C940C080C940C0870
:1000C0000C940C080C940C080C940C080C940C0860
:1000D0000C940C080C940C080C940C080C940C0850
:1000E0000C940C080C94CC200C94184B0C94EE0A35
:1000F0000C940D200C945E090C94610A0C94510828
:100100000C94A30A0C948F0A0C94D0160C94E40A55
:100110000C94EC120C94AD0A0C947B090C94012005
:100120000C94384A0C94960D0C94CD200C945508E0
:100130000C9428450C941D190C94704B0C945B2462
:100140000C94E53E0C94814A0C9491090C94AE09F0
:100150000C94870A0C945E0D0C943E080C943C0D94
:100160000C94F01F0C94000D0C94750A0C94630809
:100170000C9466150C94990A0C94540A0C94C109B9
:100180000C94E30D0C94C60A0C94874B0C94AB1B97
:100190000C94CE4A0C9420200C9447530C941920B4
:1001A0000C94B5090C9430190C94DA0A0C94500D87
:1001B0000C9467080C946A090C9436080C942C086B
:1001C0000C942D0D0C943A080C946B0A0C94410875
:1001D0000C94D2090C94AC090C94D00A0C945F08CE
:1001E0000C94A41E0C9414120C9432080C94F11F5D
:1001F0000C947D1C0C944B080C94D9090C94590850
:100200000C94340E0C9471080C94103E0C94084A13
:100210000C947F0A0C946C080C946D080C94BC0A26
:100220000C9447080C94C2490C945C0A11007F9608
:10023000290001007F9628003A0155C0021010C124
:100240000141C50400228040360168B00100B102BE
:10025000B011B40102B60302023BB701C63A015520
:10026000F704A9512C82B701C6E808408A0000298A
:1002700019A533C0020D0DC1024300C20100C5041F
:1002800000480048B40100B60302023BE00F0F2112
:100290001C0B0E08499838091103141000E10F0FC8
:1002A0002F2B0C0E06477637071104231E00B001D2
:1002B00000B30402000000B40100D003074218D1CB
:1002C00003000710D2020102D3020102D40201028C
:1002D000C005123B000211C103101088C50103C6FE
:1002E0000102C80C003236450616377577540C00EB
:1002F000CC0100F603010100CF03008130ED04645E
:10030000031281E803851078CB05392C003402F7FD
:100310000120EA020000B00100B102001BB401009C
:10032000C00121C10111C5023F3CC701B5360148DA
:10033000F20100260101E00F0F26240B0E0954A83C
:10034000460C17090F0700E10F00191B0410072ABC
:10035000473903060630380F360100B80101C001E5
:100360000EB00100C10410100202C00600350000EA
:100370000102C50104D2020104CA0100EA0180B9E8
:1003800003FF83577F967F96B60125C00650500124
:100390003C1E08B4070240002A2A0D787F01F20BA8
:1003A0001616030808080810041616FD0311023576
:1003B000B2050C0C003333B70135BB012BC001046F
:1003C000C20201FFC30111C40120C6010FD002A463
:1003D000A1E00ED000050E150D3743470915121682
:1003E00019E10ED000050D0C062D44400E1C181608
:1003F000193A01557F0A06000700B1020012B40144
:1004000002B60400202700CA0101CB0103C001137A
:100410007F14C501CCC60100C70104C80103CC018B
:1004200006CD011CF9021515F3030A020AF60301B1
:100430001000FA00FB00E2031E0254E001017F0AF3
:10044000E001037F0A01007F64E60303FFFFB007BA
:100450002400031F01DF00B40803A0002E30000FAA
:1004600000B607020D0010100008BA010FB802070D
:1004700001F001007F01280011007F642900BE0601
:1004800006F001F00000D0010DB00103E2013FC011
:100490000122E20100B00100C0010AB00100000029
:1004A0000000000000000000000000000000FFFF4E
:1004B0000F0000040062080008080003000C01039C
:1004C0000B5A020306090303171004030023050354
:1004D0000017060309630703090C08030C1009033E
:1004E000322210001600110001011200000013005A
:1004F000010000013003010137020301000D8002F9
:1005000000610201B0C1FFFF3200010000010200E2
:10051000000103003010090001000C0000009000F1
:1005200000800F000000100200001102EF00120214
:10053000000013028F010005000001050000020504
:100540005F000104010004040000FFFF3200070007
:100550000001FFFF32000002000001020000000065
:100560000000000000000000000000000100A400E6
:100570000100FFFF0A0060000027080008083000A3
:10058000140231001537320004063300160E340011
:100590001122350000153600078537000714380092
:1005A0000314390020009000150010001004110001
:1005B0003702290046002A0046000700000012000A
:1005C000890113000011FFFF96001200B90101001C
:1005D00000010200000203003010090001000A00BF
:1005E00000000D0000000E003000610001006A00F4
:1005F0000000800000008100000082005F00920087
:10060000000193000107FFFF500007000001E50013
:10061000F078010000010200000203003010040025
:1006200000000500000008000702090000000A00A1
:1006300000000C0000000D0000000F000000100082
:100640000000110007001200000013000000070066
:100650000100FFFFC8001000901611002702FFFFE5
:10066000320012000D00FFFF3200130000122900BB
:100670000A002B000D00FFFF3200200000002100C7
:100680000000300000003100040432000300350097
:100690000504360008083700070438000303390052
:1006A00007073C0004053D000808600000276100C2
:1006B00001006A000000800000008100000082004C
:1006C000000083000000840000008500000090000E
:1006D00010009200000007003301E50000800000D8
:1006E00001000100000102000007030030100400B7
:1006F000000008000202090000000A0000000C00CF
:1007000000000D0000000F000000100000001100AC
:1007100007001200000013000000FFFF320010006D
:10072000B01711000700FFFF0A0012003A01FFFF97
:100730000A001300001A29000C00FFFF0A00300015
:1007400000003100050532000400350006003600C7
:1007500007073700050138000200390007073C0091
:1007600004073D000708600000A7610001006A005F
:100770000000210000002000000080000000810037
:10078000000082000000830000008400000085005B
:1007900000009000100092000000930003009500FC
:1007A0001001970000009800000007007301FFFF90
:1007B00032000100000102000007030030100800B1
:1007C0000203090000000A000800100000001100E8
:1007D00005001200000013000000FFFF640010007D
:1007E000B012FFFF320011000700FFFF32001200BD
:1007F0008C001300001729002000FFFF320030009A
:10080000000031000601320001013500060136000A
:1008100003023700000038000707390004023C00DB
:1008200006013D000301600000A761000100900087
:10083000300007003301FFFF3200150030009A003E
:1008400010001100200010002834120002001300D4
:100850003810FFFF280012001200FFFF28001000D0
:10086000203413004530FFFF460030000000310007
:10087000020432000703330004033400040035008F
:100880000104360007073700050338001006390059
:1008900010060100000102000003030030100800F0
:1008A00008080A00080060000027610001009000AD
:1008B0003E019200000193000001A0000030A3005F
:1008C00010000700010007002100070023000700B7
:1008D00033000700330111001A0012002131130008
:1008E0006C001400494210000008FFFF0A001100CC
:1008F0001A01FFFF0A0011001A03FFFF0A0011008E
:100900001A07FFFF0A0011001A0FFFFF0A0011006B
:100910003A0FFFFF1E000100280102000001030042
:10092000301007001210080003030B0000110C0028
:1009300000000F00011815002000500001015100B7
:100940000306520008045300000054000506550039
:100950000604560003035700030358001000590013
:10096000001007001200FFFF280007001300070017
:100970001700005EBCE2613FDD83C29C7E20A3FDC8
:100980001F41009D23BE46DB65F88C11AF32CA576C
:10099000E97400000000003E5B4F5B3E3E6B4F6B16
:1009A0003E1C3E7C3E1C183C7E3C181C577D571C50
:1009B0001C5E7F5E1C00183C1800FFE7C3E7FF00C9
:1009C00018241800FFE7DBE7FF30483A060E262917
:1009D000792926407F050507407F05253F5A3CE7DA
:1009E0003C5A7F3E1C1C08081C1C3E7F14227F22A0
:1009F000145F5F005F5F06097F017F006689956A6B
:100A0000606060606094A2FFA29408047E040810F5
:100A1000207E201008082A1C08081C2A08081E101E
:100A20001010100C1E0C1E0C30383E3830060E3ED6
:100A30000E06000000000000005F00000007000735
:100A400000147F147F14242A7F2A1223130864625F
:100A500036495620500008070300001C22410000C0
:100A600041221C002A1C7F1C2A08083E080800801E
:100A700070300008080808080000606000201008B6
:100A800004023E5149453E00427F400072494949B7
:100A9000462141494D331814127F102745454539E9
:100AA0003C4A4949314121110907364949493646ED
:100AB0004949291E000014000000403400000008CD
:100AC0001422411414141414004122140802015970
:100AD00009063E415D594E7C1211127C7F494949FD
:100AE000363E414141227F4141413E7F4949494192
:100AF0007F090909013E414151737F0808087F00C1
:100B0000417F41002040413F017F081422417F4046
:100B10004040407F021C027F7F0408107F3E41411D
:100B2000413E7F090909063E4151215E7F0919298D
:100B300046264949493203017F01033F4040403F77
:100B40001F2040201F3F4038403F631408146303B8
:100B5000047804036159494D43007F414141020437
:100B6000081020004141417F04020102044040403E
:100B70004040000307080020545478407F28444434
:100B8000383844444428384444287F38545454184E
:100B900000087E090218A4A49C787F080404780049
:100BA000447D40002040403D007F1028440000412B
:100BB0007F40007C047804787C080404783844443E
:100BC0004438FC1824241818242418FC7C08040435
:100BD00008485454542404043F44243C4040207C9E
:100BE0001C2040201C3C4030403C44281028444CF1
:100BF0009090907C4464544C4400083641000000BE
:100C0000770000004136080002010204023C26235E
:100C1000263C1EA1A161123A4040207A3854545516
:100C200059215555794122545478422155547840E0
:100C300020545579400C1E52721239555555593968
:100C40005454545939555454580000457C410002BD
:100C5000457D420001457C407D1211127DF0282522
:100C600028F07C545545002054547C547C0A097F5C
:100C70004932494949323A4444443A324A48483070
:100C80003A4141217A3A42402078009DA0A07D3D22
:100C90004242423D3D4040403D3C24FF2424487EAA
:100CA0004943662B2FFC2F2BFF0929F620C0887E95
:100CB000090320545479410000447D413048484A9A
:100CC00032384040227A007A0A0A727D0D19317D4D
:100CD0002629292F28262929292630484D40203821
:100CE0000808080808080808382F10C8ACBA2F10E0
:100CF0002834FA00007B000008142A142222142A47
:100D000014085500550055AA55AA55AAFF55FF5578
:100D1000FF000000FF00101010FF00141414FF006B
:100D20001010FF00FF1010F010F0141414FC001449
:100D300014F700FF0000FF00FF1414F404FC141467
:100D400017101F10101F101F1414141F0010101064
:100D5000F0000000001F101010101F10101010F0F5
:100D600010000000FF101010101010101010FF10D5
:100D7000000000FF140000FF00FF00001F1017001C
:100D800000FC04F414141710171414F404F40000F5
:100D9000FF00F714141414141414F700F7141414A7
:100DA000171410101F101F141414F4141010F01046
:100DB000F000001F101F0000001F14000000FC14B2
:100DC0000000F010F01010FF10FF141414FF1410A6
:100DD00010101F00000000F010FFFFFFFFFFF0F0F9
:100DE000F0F0F0FFFFFF0000000000FFFF0F0F0F0B
:100DF0000F0F3844443844FC4A4A4A347E02020603
:100E000006027E027E0263554941633844443C0435
:100E1000407E201E2006027E020299A5E7A5991CAD
:100E20002A492A1C4C7201724C304A4D4D303048D0
:100E3000784830BC625A463D3E494949007E01012E
:100E4000017E2A2A2A2A2A44445F444440514A44C3
:100E50004040444A51400000FF0103E080FF000091
:100E600008086B6B083612362436060F090F060089
:100E70000018180000001010003040FF0101001F92
:100E800001011E00191D1712003C3C3C3C000000F3
:100E9000000000002100240027002A002D0030005F
:100EA000330001010000040107010A0100000A0BE0
:100EB00002090C0D0E0807030401000000000000E9
:100EC0000000000000000000000000000000000022
:100ED00000000000000000001211100000000000DF
:100EE0000000000000000000000000000000000002
:100EF0000000000020002300260029002C002F0005
:100F00003200000100000301060109010102102066
:100F1000200808102040102040800201020108042F
:100F200002010102040810204080804020100804C3
:100F3000020180040201804020100804020108041C
:100F40000201010204081020408001020408102060
:100F5000408000002200250028002B002E003100D8
:100F6000340002010000050108010B01050505051B
:100F7000070508080808020202020A0A0808040411
:100F8000040401010101010101010303030303033F
:100F90000303040707070C0C0C0C0C0C0C0C0202CE
:100FA000020206060606060606060B0B0B0B0B0BCB
:100FB0000B0BE53E475311241FBECFEFD1E2DEBF3E
:100FC000CDBF00E00CBF16E0A0E0B2E0E2E2FFEA35
:100FD00000E00BBF02C007900D92A833B107D9F70C
:100FE0002CE0A8E3B6E001C01D92A135B207E1F7FD
:100FF00017E0CAEDD7E000E006C021970109802F75
:10100000FE010E94C453C93DD10780E00807A9F73B
:101010000E94A2430C947F570C94000081508231AF
:1010200008F05AC0E82FF0E08827E65EF74F8F4FB0
:101030000C94C4533A083E082C08320836086C0851
:10104000410847084B085108550859085F086308CC
:101050006C0867086D087108809180008F77809315
:1010600080000895809180008F7DF9CF809180006D
:10107000877FF5CF84B58F7784BD089584B58F7D44
:10108000FBCF8091B0008F778093B000089580915E
:10109000B0008F7DF9CF809190008F778093900082
:1010A0000895809190008F7DF9CF80919000877F87
:1010B000F5CF8091A0008F778093A0000895809154
:1010C000A0008F7DF9CF8091A000877FF5CF809120
:1010D00020018F77809320010895809120018F7DDA
:1010E000F9CF80912001877FF5CFCF93DF93282F11
:1010F00030E0F901E455F14F8491F901E45FF04FDC
:10110000D491F901E459F04FC491CC23A1F081119D
:101110000E940E08EC2FF0E0EE0FFF1FEE50F14F93
:10112000A591B491EC91ED2381E090E009F480E089
:10113000DF91CF91089580E090E0FACF1F93CF9395
:10114000DF93282F30E0F901E455F14F8491F90144
:10115000E45FF04FD491F901E459F04FC491CC23EE
:10116000A9F0162F81110E940E08EC2FF0E0EE0F6F
:10117000FF1FEE5AF04FA591B4918FB7F894EC9100
:10118000111108C0D095DE23DC938FBFDF91CF9182
:101190001F910895DE2BF8CFCF93DF93EC01809160
:1011A000FA079091FB07029749F4C130D10509F481
:1011B0003DC07CF560E0209709F439C08091FA07C2
:1011C0009091FB07049749F4C130D10509F45EC042
:1011D0000CF039C0209709F444C08091FA0790912F
:1011E000FB07059709F0E7C0CA30D10508F0E3C056
:1011F000FE018827E150F74F8F4F0C94C4535E09CE
:101200006A097B099109AC09AE09B509C109D2097E
:10121000D909C230D105A9F060E0C330D10571F61B
:101220008091FE070E949E0860E006C061E0809108
:10123000FE070E949E0861E0809100080E949E08BF
:10124000BDCF61E0EDCFC230D10539F1C330D1055A
:1012500009F0C3CF61E08091FE070E949E0860E024
:1012600022C061E08091FE070E949E0860E08091AC
:1012700000080E949E0861E0809102080E949E087A
:1012800060E0809104080E949E08A7CF60E08091F2
:10129000FE070E949E0861E0EACF60E08091FE07B1
:1012A0000E949E0861E0809100080E949E0860E014
:1012B000809102080E949E0861E0E3CF60E0809187
:1012C000FE070E949E0861E0809100080E949E082F
:1012D00061E00BC060E08091FE070E949E0861E023
:1012E000809100080E949E0860E0809102080E94A0
:1012F0009E0860E010C060E08091FE070E949E089A
:1013000061E0809100080E949E0860E080910208E0
:101310000E949E0861E0809104080E949E0861E09E
:1013200015C060E08091FE070E949E0861E08091F8
:1013300000080E949E0860E0809102080E949E08BA
:1013400061E0809104080E949E0860E08091060898
:10135000DF91CF910C949E0861E0E4CF61E0809131
:10136000FE070E949E0860E0E2CF61E08091FE07E8
:101370000E949E0860E0809100080E949E0861E043
:10138000DBCF61E08091FE070E949E0860E08091C3
:1013900000080E949E0861E0809102080E949E0859
:1013A00060E0CFCF61E08091FE070E949E0860E080
:1013B0008BCF60E0F8CFDF91CF91089580913E0808
:1013C000833041F460E080913B080E949E0884E0F5
:1013D00080933E080895CF93DF9390E0FC01E45F93
:1013E000F04F24918459904FFC0184918823D1F0CF
:1013F00090E0880F991FFC01EE56F14FA591B49132
:10140000FC01EE5AF04FC591D49161110EC09FB707
:10141000F8948C91E22FE0958E238C932881E2231F
:10142000E8839FBFDF91CF9108958FB7F894EC9137
:10143000E22BEC938FBFF6CF1F93CF93DF93182F40
:10144000EB0161E00E94EB09209739F460E0812F05
:10145000DF91CF911F910C949E08CF3FD10511F4DD
:1014600061E0F5CFE12FF0E0E455F14FE491E15078
:10147000E23108F0B3C0F0E08827EE5BF54F8F4F04
:101480000C94C453540A5C0A610A6B0A750AEE0A8A
:101490007F0A870A8F0A990AA30AAD0ABC0AC60AFC
:1014A000EE0AD00ADA0AE40A84B5806884BDC7BDB2
:1014B000DF91CF911F91089584B5806284BDC8BD2E
:1014C000F7CF80918000806880938000D09389005E
:1014D000C0938800EDCF809180008062809380006F
:1014E000D0938B00C0938A00E3CF80918000886006
:1014F00080938000D0938D00C0938C00D9CF8091D1
:10150000B00080688093B000C093B300D1CF8091C9
:10151000B00080628093B000C093B400C9CF8091C6
:101520009000806880939000D0939900C0939800B9
:10153000BFCF80919000806280939000D0939B00F9
:10154000C0939A00B5CF80919000886080939000FE
:10155000D0939D00C0939C00ABCF8091A000806889
:101560008093A0008091A0008F7B8093A000D093F7
:10157000A900C093A8009CCF8091A00080628093B6
:10158000A000D093AB00C093AA0092CF8091A0009E
:1015900088608093A000D093AD00C093AC0088CF4A
:1015A00080912001806880932001D0932901C0930D
:1015B00028017ECF80912001806280932001D0930A
:1015C0002B01C0932A0174CF809120018860809301
:1015D0002001D0932D01C0932C016ACFC038D105D2
:1015E0000CF03ECF33CF70E060E0809141080E9464
:1015F0001C0A60E080913F080E949E0860E0809194
:1016000040080E949E081092430808958091730834
:10161000823011F580915F089091600840914808F0
:10162000509149082091460830914708BC01641B3D
:10163000750B2617370784F0840F951F82179307C1
:101640005CF00E94F30A809173088093740884E030
:101650008093730881E0089580E00895863308F050
:10166000865320917B00982F9870277F922B909320
:101670007B008770806480937C0080917A00806416
:1016800080937A0080917A0086FDFCCF809178006B
:10169000909179000895809144080E947508909374
:1016A0004B0880934A08809145080E942E0B41E028
:1016B00050E020915208309153082817390714F050
:1016C00050E040E050934D0840934C0820914A0868
:1016D00030914B0880914E0890914F082817390798
:1016E00061F080914608909147082417350751F022
:1016F0000197909347088093460830934F082093B2
:101700004E0808950196F5CFCF92DF92EF92FF92A7
:10171000CF93809156080E942E0BBC01990F880B25
:10172000990B0E94FC5420E030E040E85AE30E940C
:10173000B15520E030E44CE955E40E94B1552091C8
:101740005B0830915C0840915D0850915E080E94F2
:10175000E053209157083091580840915908509112
:101760005A080E9452546B017C0180917308815089
:10177000A7019601823018F160916B0870916C0896
:1017800080916D0890916E080E944D5418167CF05F
:10179000C1E0A701960160916F0870917008809177
:1017A0007108909172080E94AC5518160CF0C0E0B8
:1017B0008C2FCF91FF90EF90DF90CF9008956091A4
:1017C00063087091640880916508909166080E9492
:1017D0004D54181664F3C1E0A701960160916708A3
:1017E000709168088091690890916A08DCCF3FB7D2
:1017F000F8948091440690914506A0914606B091D8
:10180000470626B5A89B05C02F3F19F00196A11DDC
:10181000B11D3FBFBA2FA92F982F8827BC01CD013A
:10182000620F711D811D911D42E0660F771F881F99
:10183000991F4A95D1F708954F925F926F927F92C8
:101840008F929F92AF92BF92EF92FF920F931F934E
:10185000CF93DF93EC0197FF04C0CC27DD27C81B93
:10186000D90B181619060CF061C081E090E0909336
:10187000F3078093F20704E010E08AE0E82EF12CF1
:10188000209709F46FC00E94F70B80900808909091
:101890000908A0900A08B0900B082B013C014818D9
:1018A00059086A087B088090F4079090F507A0908B
:1018B000F607B090F707481459046A047B0400F354
:1018C000609308087093090880930A0890930B08A6
:1018D0008091FC079091FD072091F2073091F3076A
:1018E0002130310559F501969093FD078093FC074F
:1018F0002091F8073091F9078217930721F410928D
:10190000FD071092FC0721978091FC079091FD073D
:101910002091FA073091FB07B7012530310509F016
:10192000B8010E94B0530E94CC08AACF892B09F4B9
:10193000A2CF1092F3071092F2079DCF892B41F4AA
:101940008091F8079091F9079093FD078093FC0729
:101950008091FC079091FD0701979093FD0780937C
:10196000FC07D1CFDF91CF911F910F91FF90EF90A6
:10197000BF90AF909F908F907F906F905F904F90AF
:1019800008958F929F92AF92BF92CF92DF92EF9283
:10199000FF926B017C010E94F70B4B015C01C114AB
:1019A000D104E104F104B9F00E94F70B6819790938
:1019B0008A099B09683E73408105910580F321E007
:1019C000C21AD108E108F10888EE880E83E0981E5B
:1019D000A11CB11CE4CFFF90EF90DF90CF90BF909F
:1019E000AF909F908F9008952FB7F8946091400624
:1019F0007091410680914206909143062FBF089551
:101A0000AF92BF92CF92DF92EF92FF920F931F930C
:101A1000CF93DF936C017B018B01040F151FEB014A
:101A20005E01AE18BF08C017D10759F06991D60101
:101A3000ED91FC910190F081E02DC6011995892B63
:101A400079F7C501DF91CF911F910F91FF90EF9032
:101A5000DF90CF90BF90AF900895FC01538D448DDF
:101A6000252F30E0842F90E0821B930B541710F049
:101A7000CF96089501970895FC01918D828D981756
:101A800061F0A28DAE0FBF2FB11D5D968C91928D2E
:101A90009F5F9F73928F90E008958FEF9FEF08955F
:101AA000FC01918D828D981731F0828DE80FF11D28
:101AB000858D90E008958FEF9FEF0895FC01918D43
:101AC000228D892F90E0805C9F4F821B91098F733C
:101AD000992708958BE496E00E945E0D21E0892B02
:101AE00009F420E0822F0895FC01A48DA80FB92FDE
:101AF000B11DA35ABF4F2C91848D90E001968F7336
:101B00009927848FA689B7892C93A089B1898C9154
:101B1000837080648C93938D848D981306C00288A3
:101B2000F389E02D80818F7D80830895EF92FF926D
:101B30000F931F93CF93DF93EC0181E0888F9B8DF0
:101B40008C8D98131AC0E889F989808185FF15C0AA
:101B50009FB7F894EE89FF896083E889F9898081CD
:101B60008370806480839FBF81E090E0DF91CF919C
:101B70001F910F91FF90EF900895F62E0B8D10E0BE
:101B80000F5F1F4F0F731127E02E8C8D8E110CC02D
:101B90000FB607FCFACFE889F989808185FFF5CF78
:101BA000CE010E94740DF1CFEB8DEC0FFD2FF11DD6
:101BB000E35AFF4FF0829FB7F8940B8FEA89FB89B5
:101BC00080818062CFCFCF93DF93EC01888D882313
:101BD000B9F0AA89BB89E889F9898C9185FD03C090
:101BE000808186FD0DC00FB607FCF7CF8C9185FF75
:101BF000F2CF808185FFEDCFCE010E94740DE9CF39
:101C0000DF91CF91089580E090E0892B29F00E9428
:101C10006A0D81110E94000080E090E0892B49F05C
:101C200080E090E0892B29F00E94000081110E9441
:101C3000000080E090E0892B49F080E090E0892B63
:101C400029F00E94000081110E94000080E090E0D5
:101C5000892B49F080E090E0892B29F00E94000058
:101C600081110C940000089508950F931F93CF9352
:101C7000DF93EC018B01FE018491319664912296F1
:101C80008F3799F470E090E080E00E94C10C60E032
:101C900070E06E5F7F4F061B170B101611065CF38A
:101CA000DF91CF911F910F9108958B988A98909111
:101CB0000201977890930201A5989EB1977C9EB9F6
:101CC0004091020190E09C0155E0220F331F5A958C
:101CD000E1F72076242B209302014EB19C01220FC4
:101CE000331F220F331F2073242B2EB944B39C01C2
:101CF000220F331F2072242B24BB4EB19C0135953B
:101D00002795359527952870242B2EB9209102010F
:101D1000A3E095958795AA95E1F78871822B80932A
:101D200002018998899A50E040E0461708F045C0C2
:101D3000FE01E40FF51FE4918A9A809102018778F1
:101D400080930201A5988EB1877C8EB970910201B3
:101D50008E2F90E09C01E5E0220F331FEA95E1F71A
:101D60002076272B209302017EB19C01220F331F86
:101D7000220F331F2073272B2EB974B39C01220F1F
:101D8000331F2072272B24BB7EB19C0135952795EC
:101D9000359527952870272B2EB9E091020123E075
:101DA000959587952A95E1F788718E2B809302018E
:101DB0008998899A4F5F5F4FB8CFC60FD11D8B9A14
:101DC00067CF8B988A98209102012778209302018F
:101DD000A5982EB1277C2EB970910201292F30E0F1
:101DE000F901A5E0EE0FFF1FAA95E1F7E076E72BDA
:101DF000E09302017EB1F901EE0FFF1FEE0FFF1F0E
:101E0000E073E72BEEB974B3F901EE0FFF1FE07238
:101E1000E72BE4BB7EB1F901F595E795F595E795DC
:101E2000E870E72BEEB970910201E3E03595279554
:101E3000EA95E1F72871272B209302018998899A66
:101E400020910201277820930201A5982EB1277CCA
:101E50002EB9709102019C01F5E0880F991FFA9547
:101E6000E1F78076872B809302017EB1C901880F4C
:101E7000991F880F991F8073872B8EB974B3C9017E
:101E8000880F991F8072872B84BB7EB1C9019595FD
:101E90008795959587958870872B8EB980910201DB
:101EA000F3E035952795FA95E1F72871282B2093D3
:101EB00002018998899A8A9AFA01615008F43EC011
:101EC000819190910201977890930201A5989EB11B
:101ED000977C9EB94091020190E09C0155E0220F51
:101EE000331F5A95E1F72076242B209302014EB13F
:101EF0009C01220F331F220F331F2073242B2EB976
:101F000044B39C01220F331F2072242B24BB4EB1FB
:101F10009C0135952795359527952870242B2EB94A
:101F20002091020133E0959587953A95E1F7887104
:101F3000822B809302018998899ABFCF8B9A08954A
:101F40008B988A98E2E0F1E0208127782083A59899
:101F50002EB1277C2EB9A081292F30E0A901B5E050
:101F6000440F551FBA95E1F740764A2B4083AEB136
:101F7000A901440F551F440F551F40734A2B4EB9FA
:101F8000A4B3A901440F551F40724A2B44BBAEB104
:101F9000A901559547955595479548704A2B4EB9D7
:101FA000408153E0359527955A95E1F72871242B08
:101FB00020838998899A208127782083A5982EB13B
:101FC000277C2EB940819C01A5E0880F991FAA9516
:101FD000E1F78076842B80834EB1C901880F991F69
:101FE000880F991F8073842B8EB944B3C901880F61
:101FF000991F8072842B84BB4EB1C901959587953A
:10200000959587958870842B8EB98081B3E035953E
:102010002795BA95E1F72871282B20838998899A0A
:102020008A9A808187788083A5988EB1877C8EB9C3
:102030004081872F90E09C0155E0220F331F5A9575
:10204000E1F72076242B20834EB19C01220F331F11
:10205000220F331F2073242B2EB944B39C01220F6F
:10206000331F2072242B24BB4EB19C01359527953C
:10207000359527952870242B2EB92081A3E09595BE
:102080008795AA95E1F78871822B80838998899A30
:10209000808187788083A5988EB1877C8EB94081B6
:1020A000CB019B01B5E0220F331FBA95E1F72076F3
:1020B000242B20834EB19B01220F331F220F331F8D
:1020C0002073242B2EB944B39B01220F331F20729F
:1020D000242B24BB4EB19C0135952795359527952A
:1020E0002870242B2EB92081A3E095958795AA9579
:1020F000E1F78871822B80838998899A8B9A089559
:1021000081E080934A06E1E0F1E080818867808386
:102110009D9A8DB188638DB9809A819A829A839AAB
:10212000849A8B9A889A899A8C9A62E370E080E00C
:1021300090E00E94C10C8C9864E670E080E090E032
:102140000E94C10C8C9A64E670E080E090E00E94EE
:10215000C10C70E060E080EB90E00C94A00FEF9277
:10216000FF920F931F93CF93DF93EC01E62E8091A4
:102170004A06811102C00E9480108B988A98809133
:102180000201877880930201A5988EB1877C8EB971
:1021900080910201809302018EB18EB984B384BB19
:1021A0008EB18EB980910201809302018998899A3B
:1021B00080910201877880930201A5988EB1877C77
:1021C0008EB920910201CE0115E0880F991F1A9552
:1021D000E1F78076822B809302012EB1CE01880F29
:1021E000991F880F991F8073822B8EB924B3CE015B
:1021F000880F991F8072822B84BB2EB1CE019595DA
:102200008795959587958870822B8EB9809102016C
:1022100053E0D595C7955A95E1F7C871C82BC0937F
:1022200002018998899A8A9A80910101877880931E
:1022300001019D988DB1877C8DB961E070E080E0EF
:1022400090E00E94C10C61E070E080E090E00E94AC
:10225000C10C889A889888988898D09100011CB100
:1022600002B3CCB1F0900001889A61E070E080E0A8
:1022700090E00E94C10C889A88988898889840912C
:1022800000015CB1E2B39CB1F0910001889AEA943C
:102290006FEFE612D8CF889A8B9A809101018867F8
:1022A000809301019D9A8DB188638DB984E0C89FA8
:1022B000900111242072332788E0F89EB001112488
:1022C000607C7727262B602F70E07595679560718D
:1022D0007727262B612F70E0759567957595679523
:1022E0006C707727262B6D2F70E0B5E0759567959C
:1022F000BA95E1F763707727262B64E0969FC001BB
:102300001124807298E0F99FB0011124607C862B23
:10231000E695E0718E2B569556955C70852B50E0B6
:10232000C5E055954795CA95E1F74370842B922FE8
:10233000DF91CF911F910F91FF90EF9008950F9330
:102340001F93CF93DF938C0160E00E94AF10EC01EC
:1023500061E0C8010E94AF108C01BE0190E080E0F6
:10236000CB017727662730E020E0602B712B822B92
:10237000932BDF91CF911F910F910895FF920F93AF
:102380001F93CF93DF938C0160E00E94AF10EC01AC
:1023900061E0C8010E94AF10F82E62E0C8010E94FF
:1023A000AF10AE0170E060E0742F66275527442718
:1023B00000E030E020E0402B5F29622B732B292FB7
:1023C00030E0C901B0E0A0E08A019B01082B192B85
:1023D0002A2B3B2BC901B801DF91CF911F910F919F
:1023E000FF9008950F931F93CF93DF93EC018B0120
:1023F000FE0185919491FE01329624966591749127
:102400008F3F980771F490E080E00E94C10C045067
:1024100011091016110664F3DF91CF911F910F91EE
:1024200008950E94A00FF3CFFC01262F358D868DD5
:1024300082958170982F9627692F70E072A361A30F
:1024400030FF0CC0821307C080E290E050E040E013
:1024500060E00C94E10E81E290E0F8CF878D90A1CE
:10246000833927E7920741F058F4843521E0920739
:1024700091F080329445C1F4626081E094E012C032
:10248000863223E99207C1F3893025EB9207A1F345
:102490008532924949F4660F771F660F771F636193
:1024A00087E090E00C94A00F81E690E0FBCF8F9244
:1024B0009F92AF92BF92CF92DF92EF92FF920F93D3
:1024C0001F93CF93DF9300D01F92CDB7DEB77C016F
:1024D0004B015A016901FC01878D90A1863295411B
:1024E00051F4F701868980FF06C0C801841B950B53
:1024F00081F50F5F1F4FF701858D80FF31C085A5E6
:1025000099828A82DB82CC82AE014F5F5F4F64E0AA
:1025100090E00E94E10EF70181A9B982AA821B8393
:102520000C83AE014F5F5F4F64E090E00E94E10ECC
:102530000F900F900F900F90DF91CF911F910F91FF
:10254000FF90EF90DF90CF90BF90AF909F908F90D3
:1025500008952617370779F6C80ED91E8A01CBCF02
:10256000B40187A190A50E94A00FB501F70181A534
:1025700092A50E94A00FC814D90419F40A151B05CE
:10258000B9F2F701858D85FF08C0868980FF1EC0DE
:10259000102F0027A02AB12A8501B401F70185A5D3
:1025A00096A50E94A00FB501F70181A992A90E94EA
:1025B000A00FB601F70187A590A90E94A00FB8014E
:1025C000F70183A994A90E94A00FB2CFDC2CCC24E0
:1025D0008C289D286401E1CF2F923F924F925F9209
:1025E0006F927F928F929F92AF92BF92CF92DF9223
:1025F000EF92FF920F931F93CF93DF9300D01F9220
:102600001F92CDB7DEB79D838C8380913A068823D5
:1026100049F0C701880F991F8E739927E1ECEE22CC
:10262000E82AF92A37FF05C0620F731F31952195FB
:102630003109260F371F77FF02C070E060E0EC81A0
:10264000FD8180859185281739070CF4C9016C013B
:10265000C61AD70A17FF05C0400F511F11950195E3
:102660001109040F151F57FF02C050E040E0EC8134
:10267000FD8122853385021713070CF49801590157
:10268000A41AB50A8901015011099C012150310990
:102690008C819D810E9457128B988A98EC81FD81D4
:1026A00053A544A580910201877880930201A598E3
:1026B0008EB1877C8EB960910201842F90E09C01DD
:1026C000A5E0220F331FAA95E1F72076262B209351
:1026D00002016EB19C01220F331F220F331F2073A2
:1026E000262B2EB964B39C01220F331F2072262B98
:1026F00024BB6EB19C01359527953595279528709B
:10270000262B2EB92091020133E0959587953A95B5
:10271000E1F78871822B809302018998899A8091D0
:102720000201877880930201A5988EB1877C8EB9CB
:1027300060910201852F942F9C0145E0220F331FE9
:102740004A95E1F72076262B209302014EB19C0199
:10275000220F331F220F331F2073242B2EB944B3B3
:102760009C01220F331F2072242B24BB4EB19C01ED
:1027700035952795359527952870242B2EB92091CE
:102780000201E3E095958795EA95E1F78871822B40
:10279000809302018998899A8A9ACA14DB042CF0E2
:1027A0009A2D8B2D5601C92ED82E2F2D30E0890160
:1027B00085E0000F111F8A95E1F70076C901880FA7
:1027C000991F880F991F182F1073C901880F991F1F
:1027D000B82FB072C9019595879595958795982FD3
:1027E000987073E0359527957A95E1F7822F887177
:1027F000A701E5E0440F551FEA95E1F74076970100
:10280000220F331F220F331F522F5073B701660F51
:10281000771F607297013595279535952795722F0B
:1028200078709701E3E035952795EA95E1F7A22FB7
:10283000A8712F2D287F30E04901880C991C880C45
:10284000991CF82DF073F9834901880C991CE82D27
:10285000E072EA8349019594879495948794F82DC2
:10286000F870FB83E3E035952795EA95E1F7E22FD1
:10287000E8712E2E9701F3E036952795FA95E1F74A
:102880002C7F30E04901880C991C880C991CF82D8C
:10289000F0733F2E2901440C551CE42DE0724E2E9E
:1028A00049019594879495948794F82DF8705F2E3C
:1028B000F3E035952795FA95E1F7E22FE8716E2E52
:1028C000EE0CEE0CEE0CF12C9701220F331F220FB1
:1028D000331FF22FF0737F2E9701220F331F2072C8
:1028E000F701F595E795F595E795E870F3E0F59430
:1028F000E794FA95E1F73E2D3871E32E1C141D0480
:102900000CF0ABC0309139064501332309F463C0A4
:1029100030910201377830930201A5983EB1377C9F
:102920003EB930910201309302013EB1F9813F2B53
:102930003EB934B3FA813F2B34BB3EB1FB813F2B10
:102940003EB9309102013229309302018998899A67
:1029500030910201377830930201A5983EB1377C5F
:102960003EB930910201309302013EB133293EB9A4
:1029700034B3342934BB3EB135293EB9309102011C
:102980003629309302018998899A3091020137786B
:1029900030930201A5983EB1377C3EB930910201D7
:1029A000309302013EB137293EB934B3322B34BBE8
:1029B0003EB13E2B3EB9309102013E2930930201D7
:1029C0008998899A31E0831A910809F0A1CFF1E042
:1029D000CF1AD10893CF309102013778309302019A
:1029E000A5983EB1377C3EB930910201302B30932F
:1029F00002013EB1312B3EB934B33B2B34BB3EB167
:102A0000392B3EB930910201382B3093020189985D
:102A1000899A30910201377830930201A5983EB12E
:102A2000377C3EB930910201342B309302013EB124
:102A3000352B3EB934B3362B34BB3EB1372B3EB9C0
:102A4000309102013A2B309302018998899AF1E082
:102A50008F1A910809F0BFCFBACF8B9AEC81FD8114
:102A6000858D80FF0AC0878D90A186329541B1F493
:102A7000EC81FD81868980FF11C0EC81FD8102859A
:102A8000138501501109208531852150310950E00D
:102A900040E070E060E0CF010E9457120F900F906D
:102AA0000F900F900F90DF91CF911F910F91FF909A
:102AB000EF90DF90CF90BF90AF909F908F907F90DE
:102AC0006F905F904F903F902F900895EF92FF92FC
:102AD0000F931F93CF93DF937C01E90177FD4DC1E5
:102AE00057FD4BC1FC0180859185681779070CF073
:102AF00044C182859385481759070CF03EC18091E7
:102B00003A06882341F0C901880F991F8E739927CF
:102B1000C17CC82BD92B8A019B01C7010E94571287
:102B200080913906882309F42FC18B988A98F70180
:102B300043A554A580910201877880930201A5984E
:102B40008EB1877C8EB960910201852F90E09C0147
:102B500075E0220F331F7A95E1F72076262B20931C
:102B600002016EB19C01220F331F220F331F20730D
:102B7000262B2EB964B39C01220F331F2072262B03
:102B800024BB6EB19C013595279535952795287006
:102B9000262B2EB920910201B3E095958795BA9521
:102BA000E1F78871822B809302018998899A80913C
:102BB0000201877880930201A5988EB1877C8EB937
:102BC00060910201CA019C0115E0220F331F1A9582
:102BD000E1F72076262B209302014EB19C01220FB3
:102BE000331F220F331F2073242B2EB944B39C01B3
:102BF000220F331F2072242B24BB4EB19C0135952C
:102C00002795359527952870242B2EB92091020100
:102C100073E0959587957A95E1F78871822B80937B
:102C200002018998899A8A9A809102018778809313
:102C30000201A5988EB1877C8EB9209102018D2F5B
:102C4000887F90E0209302014EB19C01220F331F38
:102C5000220F331F2073242B2EB944B39C01220F63
:102C6000331F2072242B24BB4EB19C013595279530
:102C7000359527952870242B2EB920910201B3E0B9
:102C800095958795BA95E1F78871822B809302011B
:102C90008998899A80910201877880930201A5988A
:102CA0008EB1877C8EB920910201CE01D3E096953A
:102CB0008795DA95E1F78C7F90E0209302014EB181
:102CC0009C01220F331F220F331F2073242B2EB998
:102CD00044B39C01220F331F2072242B24BB4EB11E
:102CE0009C0135952795359527952870242B2EB96D
:102CF0002091020163E0959587956A95E1F78871C7
:102D0000822B809302018998899A809102018778A9
:102D100080930201A5988EB1877C8EB980910201C3
:102D2000CC0FCC0FCC0FD0E0809302012EB1CE019E
:102D3000880F991F880F991F8073822B8EB924B337
:102D4000CE01880F991F8072822B84BB2EB1CE01D9
:102D500095958795959587958870822B8EB98091EA
:102D60000201A3E0D595C795AA95E1F7C871C82BD4
:102D7000C09302018998899A8B9ADF91CF911F9114
:102D80000F91FF90EF900895BE01F70183A594A5E0
:102D9000DF91CF911F910F91FF90EF900C94A00FB6
:102DA000EF92FF920F931F93CF93DF9300D000D049
:102DB00000D01F92CDB7DEB77C01862F8370F7015C
:102DC000868B962F917060FFE3C026813781F701D3
:102DD00031872087992309F4DEC024813581F701EA
:102DE00033872287823009F4DBC0833009F4DAC0EC
:102DF000813009F4D3C088E48A87F701858D968DE8
:102E000090FF03C02A8520582A8791FF04C02A8595
:102E100030E423272A8793FF04C02A8538E023273C
:102E20002A87F701278D30A180FF00C12431F8E601
:102E30003F0709F0B9C09A85892F88728A871F8257
:102E4000892F85958074282F2260892F90E0959591
:102E5000879580729927822B88878BE38987AE01BB
:102E6000495F5F4F63E086EB90E00E94E10E2AE24B
:102E700030E0F70130A727A38BE290E092A781A76B
:102E80004CE250E054A743A736A725A730AB27A7AD
:102E900092AB81AB94AB83ABAE01465F5F4F61E019
:102EA00086E390E00E94E10E8A8590E0F70194A30A
:102EB00083A3F701868980FF1CC0858D968D92FDC6
:102EC00018C087A190A521A532A530A727A392A756
:102ED00081A785A596A521A932A936A725A792ABDA
:102EE00081AB87A590A923A934A930AB27A794ABC0
:102EF00083ABF701028513850150110920853185C7
:102F00002150310950E040E070E060E0C7010E94CC
:102F10005712F70166817781878D90A120E0873273
:102F2000F3E99F0709F420E2F701358D30FF39C13D
:102F300019821A827B836C831D822E83AE014F5FC0
:102F40005F4F66E083E390E00E94E10E19821A82EF
:102F5000AE014F5F5F4F62E087E390E00E94E10EB9
:102F6000F701858D80FF07C050E040E060E083E11D
:102F700090E00E94E10E2A960FB6F894DEBF0FBED5
:102F8000CDBFDF91CF911F910F91FF90EF900895EA
:102F9000248135811CCF2681378121CF88E22CCF37
:102FA00088E92ACF88EF28CF273243E9340789F40C
:102FB0001F8281E388878A85859585958595859586
:102FC00088708987AE01495F5F4F63E080EC90E0D5
:102FD0004CCF233689E1380749F02138E4E93E0730
:102FE00029F02131F5E13F0709F041CF8A8587FFBC
:102FF00002C081608A878A8586FF02C082608A87D4
:103000008A858F73233649E1340731F0213884E90A
:10301000380721F48A858F728A8729CF213135417B
:1030200009F025CF8A858F7E806CF6CF6A85862F42
:10303000062E000C990B2339F7E73F0751F0A8F54E
:103040002435E1E03E0709F45CC02032F4E53F0797
:10305000A1F540E052E0F70150A747A341E052E05C
:1030600052A741A742E052E054A743A740E152E0F3
:1030700056A745A741E152E050AB47A742E152E0D5
:1030800052AB41AB43E152E054AB43AB882790785D
:103090002632F3E93F0721F02032344509F071C0B0
:1030A00067FD846060E071E36EC0263243E9340757
:1030B00081F22930E5EB3E0761F220E230E0F701D2
:1030C00030A727A321E230E032A721A722E230E097
:1030D00034A723A720E530E036A725A721E530E077
:1030E00030AB27A722E530E032AB21AB23E530E05F
:1030F00034AB23ABBC0166277078776280E690E042
:1031000046C027E330E0F70136A725A726E330E0E5
:1031100030AB27A729E330E032AB21AB28E330E026
:1031200034AB23AB20E230E030A727A321E230E02C
:1031300032A721A722E230E034A723A7F4E06F9F53
:10314000B001112466277170882792708862682BFD
:10315000792B81E090E00E94A00F8A85682F70E0B3
:1031600075956795759567956870772783FD70618C
:103170006063F70174A363A383E090E00E94A00F53
:1031800098CE60E072E6682B792B80E094E00E9494
:10319000A00F6A85F4E06F9FB0011124662771705B
:1031A000D8CF8339F7E79F07D9F1F0F4803244E5AF
:1031B0009407B1F18338E7E79E0731F184359140F8
:1031C000F1F46150710981E390E00E94A00F70E07A
:1031D00060E082E390E00E94A00F70E060E083E393
:1031E00090E00E94A00FC7CE863223E99207C1F07B
:1031F000893045EB9407A1F08532924911F3F7012C
:1032000061A172A1626003C0F70161A172A181E6B0
:1032100090E00E94A00F70E060E08AE690E0E1CFCD
:10322000F70161A172A1626081E094E00E94A00FA9
:1032300070E060E084E094E0D4CFEF92FF920F93CF
:103240001F93DC01ED91FC9100A0F1A1E02D78012C
:1032500001E010E019951F910F91FF90EF900895F4
:10326000EF92FF920F931F93DC01ED91FC9100A070
:10327000F1A1E02D7801890121E030E019951F913D
:103280000F91FF90EF900895FC01248D211102C051
:10329000858D089580E00895FC01848D882319F0C0
:1032A000858D91E089270895FC01828193816817BB
:1032B0007907A4F026813781820F931F6817790759
:1032C0006CF4248135814217530744F08085918541
:1032D000280F391F81E0421753070CF080E0089552
:1032E0000895FC016370668B848195812681378106
:1032F000613039F0633029F09187808733872287E6
:103300000895318720879387828708952F923F926F
:103310004F925F926F927F928F929F92AF92BF92E5
:10332000CF92DF92EF92FF920F931F93CF93DF9391
:10333000CDB7DEB76A970FB6F894DEBF0FBECDBF2C
:103340009A8F898F7A8369834A01D22E18870F83D7
:103350003701BC2CDC0159962D913C915A972115CF
:10336000310509F015C118968D919C911997681730
:1033700079070CF0D7C11A968D919C91481759077F
:103380000CF0D0C14C2C512CB6E0CB9E600D711DC1
:1033900011247C876B87161617060CF0C3C1EA2D23
:1033A000F0E0FA87E98793E0EE0FFF1F9A95E1F7C7
:1033B000F88BEF87CF01840F951F181619060CF0B4
:1033C000B1C1A98DBA8D58968C91811104C0BFEA04
:1033D000BD1508F4D394A98DBA8DED91FC91119788
:1033E0000284F385E02DCD011995B5E0DB9EC00187
:1033F0001124E981FA81FC83EB83312C212C9C017F
:103400002E56364F388F2F8B4A2D50E05E8B4D8BCA
:10341000EF89F88DE20DF31D44919E828D82D12CAF
:10342000C12C69817A81620D731D7A8B698B842F1F
:1034300090E09C8B8B8BE98DFA8DA081B18140FF50
:1034400082C0F1E0BF126FC0AF126DC01C96ED914B
:10345000FC912F813885A4014C0D5D1D69897A8905
:10346000898D9A8D1995EB89FC89F595E7954E2FF5
:103470005FEFC51AD50A6D817E818D899E89680F9F
:10348000791F7E836D8398E0C916D10481F6AFEF72
:103490002A1A3A0AEB81FC81E40DF51DFC83EB83CB
:1034A000F5E02F16310409F0B3CF2F8138852615AA
:1034B0003705B9F0A98DBA8DED91FC91B1E0BB1241
:1034C00057C0AB1255C069817A816B5F7F4F00880E
:1034D000F189E02D830128E030E0A401898D9A8DE7
:1034E0001995A98DBA8DED91FC9111970688F789F0
:1034F000E02DCD016A960FB6F894DEBF0FBECDBFAA
:10350000DF91CF911F910F91FF90EF90DF90CF90BF
:10351000BF90AF909F908F907F906F905F904F90F3
:103520003F902F9019941E96ED91FC91EF80F884B6
:1035300009851A8592014D815E816B817C81898D1F
:103540009A8D199590CF2F8138852615370509F466
:103550008ACF31E0B31207C0A31205C01C96ED91CB
:10356000FC91930178CF1E96ED91FC917301E0CF11
:103570006B857C85641975090684F785E02D7301D8
:103580000F8518899201A401898D9A8D1995A9CF6B
:10359000F90134969491329745915491D91AB7E034
:1035A000DB9E400D511D1124F901259134913C8B76
:1035B0002B8BFA0125903490FA0132967490319653
:1035C0003491398B329664903196449041E04C1599
:1035D00018F04A1508F07FC0662D062C000C770BFA
:1035E0007C836B83842D042C000C990B9E838D832C
:1035F000A98DBA8DED91FC9111970284F385E02D90
:10360000CD011995512CD12CC12CEA2DF0E0FA876F
:10361000E9872B2D30E03C872B87A401440D511DF9
:1036200047FC5A95588F4F8B69817A81660D711DC1
:1036300067FC7A957E876D877989C71608F051CF28
:103640002C2D30E04D815E81420F531FA985BA8534
:103650004A9FC0014B9F900D5A9F900D1124FC0171
:10366000E80DF91DF88BEF87852D612C4F89588D5A
:10367000420F531F5E8B4D8B671408F050C04424DB
:103680004394480E877041F4C1010196EB89FC898F
:10369000E20DF31DD4901C01D7FE19C0A98DBA8D7F
:1036A000ED91FC91662D70E0B1E0BB1219C0AB1238
:1036B00017C02D853E85620F731F0484F585E02DAC
:1036C0002F8138854D895E89898D9A8D1995DD0CFC
:1036D0006394842DD1CF1E821D821C821B8288CFD1
:1036E0004B815C81640F751FAB85BC856A9FC001EF
:1036F0006B9F900D7A9F900D112469817A81680FDC
:10370000791F0684F785E02DEF80F88409851A85F6
:103710009D014F855889898D9A8D1995D8CF570C61
:10372000C3948ACF6A960FB6F894DEBF0FBECDBFA2
:10373000DF91CF911F910F91FF90EF90DF90CF908D
:10374000BF90AF909F908F907F906F905F904F90C1
:103750003F902F9008958F929F92AF92CF92EF92C9
:10376000FF920F931F93CF93DF93EC01262F898D48
:103770009A8D009709F051C06A30D1F41D861C86DD
:103780008D8948E0849F900111248E859F85820F4A
:10379000931F9F878E8781E090E0DF91CF911F91EB
:1037A0000F91FF90EF90CF90AF909F908F900895E2
:1037B0006D3089F3CC88AD888F898823C1F08C85E2
:1037C0009D8536E0C39E800D911D11244885598545
:1037D0004817590764F44E855F851D861C8638E0BE
:1037E000A39EC0011124840F951F9F878E87EA88AE
:1037F000FB88088919894E855F856C857D85CE019A
:103800000E9486192C898C859D8546E0249F800D19
:10381000911D11249D878C87BECF6A3069F41D8667
:103820001C86FC013896E4912D898E859F85E29F48
:10383000800D911D1124ADCF6D3009F4ACCFFC018A
:1038400034963491631708F4A6CF3296E491E617C4
:1038500008F4A1CFFC01329685909490462F431B2B
:10386000342F47E0349F800C911C1124F4013296D0
:1038700034913196E4913323A9F1EE2399F1CC8868
:10388000F4013596E491AD884F89442301F10E2E61
:10389000000CFF0BE30FF11DCE9EA001CF9E500D3B
:1038A00011246C857D85460F571F688579856417BF
:1038B00075076CF44E855F851D861C86FC01389665
:1038C000E491AE9E400D511D11245F874E87EA881A
:1038D000FB88088919894E855F856C857D85CE01B9
:1038E0000E948619F4013496E4912C898C859D857B
:1038F000E29F800D911D11248DCF6F927F928F9248
:103900009F92AF92BF92CF92DF92EF92FF920F936E
:103910001F93CF93DF93EC016B015A0139014801EA
:10392000E881F9810284F385E02D1995E881F98118
:103930000288F389E02D87019301A501B601CE012C
:103940001995A501480D591D41505109E881F9818A
:103950000288F389E02D9301B601CE011995E88123
:10396000F9810088F189E02D9401A501B601CE010D
:103970001995C60CD71CB60161507109E881F9810F
:103980000088F189E02D9401A501CE011995E88107
:10399000F9810688F789E02DCE01DF91CF911F9143
:1039A0000F91FF90EF90DF90CF90BF90AF909F90DE
:1039B0008F907F906F9019942F923F924F925F92C9
:1039C0006F927F928F929F92AF92BF92CF92DF922F
:1039D000EF92FF920F931F93CF93DF93CDB7DEB794
:1039E0002D970FB6F894DEBF0FBECDBF5C011B0153
:1039F00058874F833D872C870987FC82EB823601ED
:103A000081E090E06C01C21AD30AC90191958195B9
:103A100091099C01220F331F3A832983C701019624
:103A20009E838D83F12CE12C44244394512CDA01A4
:103A30001196BB87AA872C853D85E216F3060CF00C
:103A400070C08C849D84D7FC0BC0490131E0831A7F
:103A5000910889819A8102969A838983C80ED91E1A
:103A60009FEFE91AF90AA2E04A0E511CC40CD51CBA
:103A70008E149F0444F42C853D8528153905F1F4F6
:103A80009D868C86D8CF9401220F331F4F81588595
:103A900048195909D501ED91FC91B9858D819E8117
:103AA000280F391F0088F189E02D8301B101B13061
:103AB00009F56E0D7F1DC5011995DDCF99859130F2
:103AC00019F5920122503109AB81BC812A0F3B1FAD
:103AD0006C857D85620D731DD501ED91FC9100888B
:103AE000F189E02D83014A855B854E195F09C50187
:103AF0001995C6CF6E197F09C5011995AC85BD858D
:103B0000A815B90509F4BCCF9201225031098B8167
:103B10009C81280F391FB101AC85BD856A1B7B0BC9
:103B2000DBCF2D960FB6F894DEBF0FBECDBFDF9171
:103B3000CF911F910F91FF90EF90DF90CF90BF90AA
:103B4000AF909F908F907F906F905F904F903F903D
:103B50002F9008952F923F924F925F926F927F9293
:103B60008F929F92AF92BF92CF92DF92EF92FF928D
:103B70000F931F93CF93DF9300D000D0CDB7DEB764
:103B80009E838D834B013A016901802F21E030E053
:103B900029014C185D08222433242C183D08220CDE
:103BA000331CB12CA12C01E010E0982F9470998364
:103BB000A82FA270AA83B82FB870BB8381708C83A2
:103BC000AC14BD040CF0A7C057FC08C081E0C81AB3
:103BD000D10892E0290E311C420C531CAFEFAA1AF7
:103BE000BA0A0E5F1F4F400E511EB981BB2311F15F
:103BF000AD81BE81ED91FC9111970484F585E02D96
:103C00009701A601460D571DB4016A0D7B1DCD011C
:103C10001995AD81BE81ED91FC9111970484F585D4
:103C2000E02D9701A3014A0D5B1DB601680D791DBA
:103C3000CD011995BA81BB2311F1AD81BE81ED9102
:103C4000FC9111970484F585E02D9701A3014C198F
:103C50005D09B4016A0D7B1DCD011995AD81BE8151
:103C6000ED91FC9111970484F585E02D9701A30156
:103C70004A195B09B601680D791DCD011995BB8103
:103C8000BB2311F1AD81BE81ED91FC9111970484AC
:103C9000F585E02D9701A3014A0D5B1DB4016C1958
:103CA0007D09CD011995AD81BE81ED91FC911197F2
:103CB0000484F585E02D9701A601460D571DB4013A
:103CC0006A197B09CD011995BC81BB2309F478CF12
:103CD000AD81BE81ED91FC9111970484F585E02DB5
:103CE0009701A3014A195B09B4016C197D09CD0143
:103CF0001995AD81BE81ED91FC9111970484F585F4
:103D0000E02D9701A3014C195D09B4016A197B09E3
:103D1000CD01199555CF26960FB6F894DEBF0FBE8C
:103D2000CDBFDF91CF911F910F91FF90EF90DF906A
:103D3000CF90BF90AF909F908F907F906F905F904B
:103D40004F903F902F9008956F927F928F929F9205
:103D5000AF92BF92CF92DF92EF92FF920F931F9399
:103D6000CF93DF935C01EB016A01490138018701C0
:103D7000DC01ED91FC916217730719F56416750665
:103D80002CF0962D872D3A01C92ED82E9601261992
:103D900037092F5F3F4F048CF58DE02DA301BE0145
:103DA000C5011995DF91CF911F910F91FF90EF9071
:103DB000DF90CF90BF90AF909F908F907F906F904B
:103DC00008954615570591F42617370724F0892DD5
:103DD0004B01C22FD82F9E01281939092F5F3F4F61
:103DE000068CF78DE02DA601B401DACF0284F385AD
:103DF000E02D1995D501ED91FC910488F589E02D10
:103E000083019401A601BE01C5011995D501ED916B
:103E1000FC910688F789E02DC501DF91CF911F91B4
:103E20000F91FF90EF90DF90CF90BF90AF909F9059
:103E30008F907F906F901994EF92FF920F931F9342
:103E4000DC011A960D911C911B9718962D913C91AF
:103E50001997ED91FC9100A0F1A1E02D7B0150E0BC
:103E600040E070E060E019951F910F91FF90EF9096
:103E700008954F925F926F927F928F929F92AF922E
:103E8000BF92CF92DF92EF92FF920F931F93CF9347
:103E9000DF936C012B015A0139014801DC01ED91DE
:103EA000FC910284F385E02D1995E201640C751CE8
:103EB000D601ED91FC91C615D7055CF40088F18917
:103EC000E02D87019401A501BE01C6011995219637
:103ED000EFCF0688F789E02DC601DF91CF911F91C2
:103EE0000F91FF90EF90DF90CF90BF90AF909F9099
:103EF0008F907F906F905F904F9019948F929F92C8
:103F0000AF92BF92CF92DF92EF92FF920F931F93E7
:103F1000CF93DF93EC015B014A016901E881F981EC
:103F20000284F385E02D199595012C0D3D1D21503E
:103F30003109E881F9810488F589E02D780184014F
:103F4000A401B501CE011995E881F9810688F789A8
:103F5000E02DCE01DF91CF911F910F91FF90EF9057
:103F6000DF90CF90BF90AF909F908F9019948F92D9
:103F70009F92AF92BF92CF92DF92EF92FF920F93F8
:103F80001F93CF93DF93EC015B014A016901780134
:103F9000E881F9810284F385E02D1995C80CD91CBC
:103FA000860101501109E881F9810488F589E02D25
:103FB0009501A401B501CE011995E881F981068822
:103FC000F789E02DCE01DF91CF911F910F91FF90E6
:103FD000EF90DF90CF90BF90AF909F908F9019940B
:103FE0000895EF92FF920F931F93DC01ED91FC91E6
:103FF00000A0F1A1E02D19951F910F91FF90EF9076
:1040000008950F931F93DC01ED91FC91068CF78DC1
:10401000E02D19951F910F9108950F931F93DC01C7
:10402000ED91FC91048CF58DE02D19951F910F9168
:104030000895DC01ED91FC910084F185E02D199447
:104040002F923F924F925F926F927F928F929F92A8
:10405000AF92BF92CF92DF92EF92FF920F931F9396
:10406000CF93DF9300D000D0CDB7DEB73C016A011B
:104070003E832D83FC82EB825801A41AB50AB7FE59
:1040800003C0B194A194B1088D809E80861A970ACE
:1040900097FE03C09194819491088A149B045CF06C
:1040A000902F812F0D811E819D838E839C2D8D2DC0
:1040B0006B01692F782F0C151D055CF09D818E8199
:1040C0007E836D83692F782F902F812F8601C92ED3
:1040D000D82E1601201A310A2B012D813E81421A59
:1040E000530A57FE03C0519441945108710137FEA1
:1040F00003C03FEFE31AF30AF594E7948D819E81A4
:10410000861797075CF5A1E0B0E0BA83A983C016D3
:10411000D1064CF1D301ED91FC910484F585E02D9D
:104120002B813C81A8016D817E818A149B041CF047
:104130004D815E81B801C3011995E418F508F7FEB9
:104140000AC02D813E8189819A81280F391F3E83C3
:104150002D83E20CF31C0F5F1F4FD9CF2FEF3FEFE2
:104160003A832983D4CF26960FB6F894DEBF0FBECC
:10417000CDBFDF91CF911F910F91FF90EF90DF9016
:10418000CF90BF90AF909F908F907F906F905F90F7
:104190004F903F902F900895089590E080E008950B
:1041A000DC0180E0615090F09D919827E92FEF703D
:1041B000F0E0EE58F64F2491E92FE295EF70F0E031
:1041C000EE57F64FE491822F8E27ECCF0895FC0135
:1041D000138615861486128611861086178216821B
:1041E0001582148213820895DC012C911196ED91B1
:1041F000FC91F8948181822B81839281322F3095BA
:104200009323928387E090E00197F1F781818323E4
:10421000818383E290E00197F1F790817894EFEC4D
:10422000F0E03197F1F7922381E009F480E00895FE
:10423000FC0190810180F281E02D292F209560FF03
:1042400014C0F8948281822382838181892B8183A7
:10425000A3E2B0E01197F1F78281982B92837894D2
:1042600087ED90E00197F1F70895F8948281822319
:1042700082838181892B8183AFEFB0E01197F1F7C1
:104280008281982B928378948FE090E0EBCFDF923D
:10429000EF92FF920F931F93CF93DF93EC01D62EF3
:1042A000E42E08E010E0FF24F39461E08D2D8F21CF
:1042B00009F460E0CE010E941821FF0C01501109A1
:1042C000A1F7E11010C0F894E981FA819181888109
:1042D000809589238183E981FA8192818881809503
:1042E000892382837894DF91CF911F910F91FF9062
:1042F000EF90DF900895EF92FF920F931F93CF936B
:10430000DF938C017B0140E065E50E944721E701D6
:1043100088E0E80EF11C699140E0C8010E94472145
:10432000CE15DF05C1F7DF91CF911F910F91FF905F
:10433000EF900895FC0190810180F281E02DF894C6
:104340008181292F20958223818378943DE743E062
:1043500050E0315029F1DA011197F1F7808189237A
:10436000C1F3F8948281822382838181892B8183A6
:104370007894ABE7B7E01197F1F7F8948181822345
:104380008183A3E1B1E01197F1F78081982381E067
:1043900009F080E07894E3E6F6E03197F1F70895CC
:1043A00080E008958F929F92AF92BF92CF92DF925A
:1043B000EF92FF92CF93DF9300D01F921F92CDB761
:1043C000DEB780910307909104070E949A2140E094
:1043D0006CEC80910307909104070E944721409163
:1043E000FA0664E480910307909104070E94472134
:1043F0000E94F40C6B017C018091FE0681111EC0AD
:1044000081E08983CA82DB82EC82FD8229813A8144
:104410004B815C816D8170E080E090E00F900F90A7
:104420000F900F900F90DF91CF91FF90EF90DF9062
:10443000CF90BF90AF909F908F9008958091FF068E
:104440008823C1F08091FA06811114C0809103077E
:10445000909104070E94F420813091F20E94F40CA4
:104460006C197D098E099F096E3E72408105910588
:1044700068F3C6CFE091FD06E9508EEE92E0E3309E
:1044800038F4F0E0EE0FFF1FE153FD4F8081918182
:104490004C01B12CA12C8091FB06882329F060E00F
:1044A0008091FC060E949E08C501B4010E94C10CC7
:1044B0008091FB06882309F4A3CF61E08091FC067C
:1044C0000E949E089DCF6F927F928F929F92AF9293
:1044D000BF92CF92DF92EF92FF920F931F93CF93F1
:1044E000DF938C01EB0180910307909104070E94F8
:1044F0009A21882309F43FC0B80180910307909165
:1045000004070E947B2140E06EEB809103079091AD
:1045100004070E9447217E016E0189E0C80ED11C6C
:104520008E01A0900307B090040788E0882E912C9C
:10453000712C66246394C5010E94F42081117628B1
:10454000660CE1E08E1A9108B1F7F80171928F01C3
:10455000CE16DF0631F780910307909104070E9481
:104560009A21813041F4F70181917F01811105C0C9
:10457000E017F107C1F790E008C068E0CE010E94A3
:10458000D02091E028852813F6CF892FDF91CF9195
:104590001F910F91FF90EF90DF90CF90BF90AF9061
:1045A0009F908F907F906F9008954F925F926F923F
:1045B0007F92AF92BF92DF92EF92FF920F931F9381
:1045C000CF93DF9360E080913B0C0E94EB0960E0A9
:1045D00080913C0C0E94EB0961E080913E0C0E94AE
:1045E000EB0961E080913D0C0E94EB098091490C40
:1045F000E091410CF091420C9081892B8083809155
:104600004A0CE091450CF091460C908180958923ED
:10461000808380913B0C0E942E0BEC0180913B0C1F
:104620000E942E0B9E01281B390B2C5F3F4FD12C73
:104630002930310530F48C0F9D1F95958795DD2429
:10464000D3940FEF13E0081B190B60E080913E0C30
:104650000E94EB0960E080913D0C0E94EB0961E053
:1046600080913B0C0E94EB0961E080913C0C0E9420
:10467000EB0980914C0CE091470CF091480C908133
:1046800080958923808380914B0CE091430CF091BD
:10469000440C9081892B808380913D0C0E942E0BCD
:1046A000EC0180913D0C0E942E0B7C01CE018E19F5
:1046B0009F090496099708F0D2C0EC0EFD1EF594F0
:1046C000E79461E080913E0C0E94EB0960E08091EC
:1046D0003B0C0E94EB098091490CE091410CF09158
:1046E000420C908180958923808380914C0CE091CD
:1046F000470CF091480C9081892B808380913D0C70
:104700000E942E0BEC0180913B0C0E942E0BA0907E
:104710003F0CB090400CA114B10409F4A2C0BC013C
:10472000990F880B990B0E94FC542B013C01BE0190
:10473000DD0F880B990B0E94FC549B01AC01C30157
:10474000B2010E94525420E030E040E85FE30E9452
:10475000E0532B013C01B801012E000C880B990B92
:104760000E94FC54A30192010E94B1552B013C010F
:10477000B50190E080E00E94FA54A30192010E94EA
:10478000B15520E030E040E85AE30E94B1550E9464
:10479000C454EB01D11002C0D0E0C0E061E089E375
:1047A0000E94EB0961E088E30E94EB0961E089E384
:1047B0000E949E0861E088E30E949E08BE01695C39
:1047C0007109C1E06F3183E0780708F0C0E06F3114
:1047D0007340B0F52FEF33E02E193F09032E000C84
:1047E000440B550B2B5B334041095109A0910C0C34
:1047F000B0910D0C0E9477532EE93CEF4FEF5FEF25
:104800000E944D5330933C0620933B06A0910E0C22
:10481000B0910F0C012E000C220B330BA901980153
:1048200021593340410951090E9477532DED3CEF46
:104830004FEF5FEF0E944D5330933E0620933D06AD
:104840008C2FDF91CF911F910F91FF90EF90DF9010
:10485000BF90AF907F906F905F904F900895D12C54
:1048600030CFC81BD90BC150DC4F94CFEF92FF92D1
:104870000F931F9387EBE82E84E2F82E0CE410E0F0
:1048800020ED31E048E050E068E070E084E09CE03A
:104890000E947D1C0AE410E02EEC31E049E050E07B
:1048A00069E070E084E09CE00E947D1C1F910F9104
:1048B000FF90EF900895EF92FF920F931F93DC010A
:1048C0001A960D911C911B9718962D913C91199752
:1048D000ED91FC9100A0F1A1E02D7B0150E040E0C2
:1048E00070E060E019951F910F91FF90EF9008958F
:1048F000EF92FF920F931F9366E479E284E09CE0CD
:104900000E945B2487EBE82E84E2F82E0EE311E090
:104910002EED31E041E050E061E070E084E09CE0A9
:104920000E947D1C0CE311E02CED31E042E050E0F0
:1049300062E070E084E09CE00E947D1C1F910F917A
:10494000FF90EF900895EF92FF920F931F930E94B4
:1049500078240E94362487EBE82E84E2F82E0EEDB0
:1049600010E020ED31E04AE550E068E070E084E0DE
:104970009CE00E947D1C0CED10E02EEC31E04BE53C
:1049800050E069E070E084E09CE00E947D1C1F9193
:104990000F91FF90EF900895FF920F931F93CF9385
:1049A000DF93F82E062FC7E0D0E010E061E0802F03
:1049B0000E949E088F2D0E9475080C2E01C0880F42
:1049C0000A94EAF7182B60E0802F0E949E08219736
:1049D00068F7812FDF91CF911F910F91FF9008957C
:1049E0006F927F928F929F92AF92BF92CF92DF92FF
:1049F000EF92FF920F931F93CF93DF93EC01162F4B
:104A000000E0C12CD12C76018B810E947508892B86
:104A100031F060E070E0CB010E94C10CF5CF6FB6C1
:104A2000F8946A818B810E94CC24982E6A818B81B4
:104A30000E94CC24782E6A818B810E94CC24882EFF
:104A4000B12CA12C8C818A151B0469F060F061E007
:104A50008A810E949E0860E08A810E949E088FEFF2
:104A6000A81AB80AEFCF6FBE872D90E0B0E0A0E0A3
:104A7000BA2FA92F982F8827A9298829990C990836
:104A8000492D50E070E060E0742F662755274427D9
:104A9000842B952BA62BB72BC80ED91EEA1EFB1E06
:104AA00060E070E0CB010E94C10C0F5F1013ACCF2F
:104AB000212F30E050E040E0C701B6010E944D5385
:104AC000CA01B901DF91CF911F910F91FF90EF9033
:104AD000DF90CF90BF90AF909F908F907F906F901E
:104AE0000895CF93DF93EC016AE00E94F0240E94C6
:104AF000FC540E94C4546D837E838F839887DF911A
:104B0000CF9108950F931F9361E089EC97E00E9485
:104B1000F0240091CE071091CF072091D00730915B
:104B2000D107601B710B820B930B0E94FC542091E8
:104B3000D2073091D3074091D4075091D5070E94F6
:104B400052546093DD077093DE078093DF079093E4
:104B5000E0070E94F40C6093EA077093EB078093E0
:104B6000EC079093ED071F910F910895BF92CF929C
:104B7000DF92EF92FF920F931F93CF93DF93EC019D
:104B8000B62EC72E8D85811105C0CE010E949A21B7
:104B900081110EC01B861D861C8680E0DF91CF919F
:104BA0001F910F91FF90EF90DF90CF90BF900895ED
:104BB00040E060EFCE010E94472101E0E12CD12CC2
:104BC00011E0CE010E94F420F82ECE010E94F420C4
:104BD00091E0F91218C0813099F51134D8F2DB86D2
:104BE000D11002C081E08D878B81882399F22396B2
:104BF000EB2DFC2DCF01089629912193E817F90799
:104C0000D9F781E0CBCFEE2DF0E0F8120FC08B8505
:104C10001817A0F4DE01AE0FBF1F13968C918023EE
:104C200079F4F12C193008F41C87D12EEC0FFD1FFC
:104C30008381902F9095892383830AC08113F1CFBC
:104C4000FE01EE0DF11D8381802B8383FF24F394FD
:104C50006F2DCE010E9418211F5F000F11F4E39405
:104C600001E087E08E1508F0ACCFB7CF6091420825
:104C700070E0809141080E941C0A61E080913F0829
:104C80000E949E0860E0809140080E949E0881E09A
:104C9000809343088093730808956091420870E000
:104CA000809141080E941C0A60E080913F080E94A8
:104CB0009E0861E0809140080E949E0881E08093F8
:104CC000430882E08093730808950E946457FB01B3
:104CD00001900020E9F73197AF01461B570BDC012B
:104CE000ED91FC910280F381E02D19948F929F92B7
:104CF000AF92BF92EF92FF920F931F93CF93DF93E8
:104D0000CDB7DEB7A1970FB6F894DEBF0FBECDBF0B
:104D10007C01FA01CB0119A2223008F42AE08E01AD
:104D20000F5D1F4F822E912CB12CA12CBF01A5012C
:104D300094010E947F53F901CA016A300CF5605D4D
:104D4000D8016E938D01232B242B252B79F790E02E
:104D500080E0109721F0BD01C7010E946726A1964F
:104D60000FB6F894DEBF0FBECDBFDF91CF911F917C
:104D70000F91FF90EF90BF90AF909F908F9008950C
:104D8000695CDECFCF92DF92EF92FF920F931F9379
:104D9000CF93DF936B01770FEE08FF08F7FE1FC07C
:104DA000EC01E881F9810190F081E02D6DE2199527
:104DB0008C0144275527BA014C195D096E097F09FA
:104DC0002AE0CE010E947626800F911FDF91CF91BD
:104DD0001F910F91FF90EF90DF90CF9008952AE000
:104DE000B701A601DF91CF911F910F91FF90EF9036
:104DF000DF90CF900C947626CF93DF93BC018BE4A9
:104E000096E00E946726EC016BE173E08BE496E08C
:104E10000E9467268C0F9D1FDF91CF9108952F92DE
:104E20003F924F925F926F927F928F929F92AF923A
:104E3000BF92CF92DF92EF92FF920F931F93CF9387
:104E4000DF93CDB7DEB7AF970FB6F894DEBF0FBED6
:104E5000CDBF0E94F40C0091150710911607209108
:104E6000170730911807AB01BC01401B510B620BB7
:104E7000730B8091190790911A07B0E0A0E0841796
:104E80009507A607B70708F0A1C080910307909186
:104E900004070E94E720BE01665F7F4F80910307F1
:104EA000909104070E94B625882309F464C067E046
:104EB000CE010A960E94D020998989135CC0BE0158
:104EC0006F5F7F4FCE010A960E946322882309F408
:104ED00052C02A8160E070E0CB0127FF04C060E08F
:104EE00070E088EF9FEF4A85C9804B3309F04AC2D2
:104EF0003D8137FF47C2C0FC3EC0D12CF12CE12CD4
:104F0000A3E0CC0CDD1CEE1CFF1CAA95D1F74601DA
:104F1000570130EE832237E09322AA24BB24C22E0D
:104F2000D12CF12CE12CBBE0CC0CDD1CEE1CFF1CC9
:104F3000BA95D1F7C828D928EA28FB286C297D29F9
:104F40008E299F296138B4EE7B07BFEF8B079B0743
:104F500094F00E94FC5420E030E040E05CE30E94CA
:104F6000B1556B017C0120E030E04EEF52EC0E9425
:104F70004D5481114AC28EE193E00E94FC260E94AA
:104F8000D22129833A834B835C836D83211104C032
:104F90008CE393E00E94FC260E94F40C60931507BA
:104FA0007093160780931707909318078091110745
:104FB00090911207A0911307B09114078093840772
:104FC00090938507A0938607B09387078091C807C1
:104FD000813009F0B8C280912107882309F443C1C8
:104FE0000E94F40C0E94FA5468A379A38AA39BA39D
:104FF00060913C0770913D0780913E0790913F077B
:105000000E94FA544B015C012091480730914907F6
:1050100040914A0750914B0768A179A18AA19BA1B1
:105020000E94E053A50194010E94AC5587FD1BC16D
:10503000E0913007F0913107208131814281538125
:105040002C8F3D8F4E8F5F8F80914007909141074D
:10505000A0914207B091430788A799A7AAA7BBA729
:10506000E0913207F09133076081718182819381F1
:105070000E94E0536B017C01209144073091450769
:1050800040914607509147072CA73DA74EA75FA721
:105090002091220730912307409124075091250742
:1050A0000E94B1556CA37DA38EA39FA360934C0770
:1050B00070934D0780934E0790934F0720912607DA
:1050C000309127074091280750912907C701B60161
:1050D0000E94B155A50194010E94B155209150073D
:1050E0003091510740915207509153070E94E1536C
:1050F0002B01782E692E00913407109135072090EE
:105100003607309037079801A1010E944D5487FD62
:1051100085C1309138073A8B409139074E8B5091B9
:105120003A07588F80913B078A8F232F342F452FC2
:10513000582FB201872D962D0E94AC55181624F0D9
:105140004A8A5E8A788E6A8E8A899E89A88DBA8DEF
:105150008093500790935107A0935207B093530741
:1051600040902A0750902B0760902C0770902D07D5
:1051700080912007882309F456C128A539A54AA59E
:105180005BA56C8D7D8D8E8D9F8D0E94E053A3015C
:10519000920150580E94B155A50194010E945254A9
:1051A0006093540770935507809356079093570761
:1051B0002A893E89488D5A8D6CA17DA18EA19FA11F
:1051C0000E94E153209154073091550740915607B2
:1051D000509157070E94E1534B015C0160902E07EC
:1051E00070902F079B01AC01B801C1010E94AC5522
:1051F000181694F0009138071091390720903A075B
:1052000030903B079801A101B401C5010E94AC5543
:10521000181614F084011501C801D101F30180832F
:105220009183A283B38328A139A14AA15BA12093D2
:1052300048073093490740934A0750934B07C09261
:105240004407D0924507E0924607F09247078C8DBD
:105250009D8DAE8DBF8D8093400790934107A093A5
:105260004207B093430720E030E04FE753E46091FA
:1052700088077091890780918A0790918B070E9417
:1052800052542B013C0120E030E040E85FE30E94F3
:10529000AC5518160CF0D2C088E693E00E94FC26AC
:1052A000412C512C30E8632E3FE3732EA0906E0703
:1052B000B0906F07A3019201D5016D917D918D9101
:1052C0009C910E94E0536B017C0120E030E0A90139
:1052D0000E94AC55181624F0F7FAF094F7F8F09401
:1052E000E0916407F0916507FB8FEA8FB98EA88E75
:1052F0001F8A1E8A212C312C00E010E02A8D3B8D64
:105300004E895F892417350709F4A9C0E88DF98D06
:1053100081919191A191B191F98FE88F8A8B9B8BAB
:10532000AC8BBD8BA3019201BC01CD010E94E05367
:105330004B015C0120E030E0A9010E94AC55181639
:1053400024F0B7FAB094B7F8B094A5019401C7015E
:10535000B6010E94AC55181644F0C101D8018A8BE1
:105360009B8BAC8BBD8B460157012E893F892F5FEC
:105370003F4F3F8B2E8B2A883B880C891D897501F6
:105380006401BCCF022F10E0102F0027110F110F66
:10539000110F58E0C59E600111240C291D29012E12
:1053A000000C220B330B602B712B822B932B403183
:1053B00009F0C8CD4885442309F4C4CD8B019C0174
:1053C00053E0000F111F221F331F5A95D1F70078A9
:1053D000277033270052110921093109642F70E029
:1053E0008F81DB01A81BB109CD019695982F8827E5
:1053F000979587950E94B053072E000C880B990B48
:10540000600F711F821F931F9DCDC0921107D09214
:105410001207E0921307F0921407B1CD0A8B1E8B8E
:10542000288E3A8E91CE2CA53DA54EA55FA5C7012D
:10543000B6010E94E053A3019201ACCE20E030E01F
:10544000A901C301B2010E944D5487FF2FCF8EEAFC
:1054500093E00E94FC26412C512C320127CFC10140
:10546000D8018093700790937107A0937207B0934F
:105470007307B101C8010E94C4542091660730919E
:1054800067074091680750916907DB010E947753D5
:1054900060936A0770936B0780936C0790936D0716
:1054A000F090580720E030EC4FE754E4B101C80118
:1054B0000E94B1550E94CB54A0914806B091490674
:1054C0009B010E94A153DC01CB012AE0B695A79570
:1054D000979587952A95D1F73BE0F3124DC09093AD
:1054E000890080938800209184073091850740913E
:1054F00086075091870760918C0770918D07809186
:105500008E0790918F070E94E0536B017C0120E091
:1055100030E0A9010E94AC55181624F0F7FAF09477
:10552000F7F8F094A70196016091B8077091B90758
:105530008091BA079091BB070E94AC5587FD2CC0A3
:1055400082E08093C807AF960FB6F894DEBF0FBE17
:10555000CDBFDF91CF911F910F91FF90EF90DF9022
:10556000CF90BF90AF909F908F907F906F905F9003
:105570004F903F902F9008954CE0F41205C0909307
:105580008B0080938A00AFCF5DE0F512ACCF909393
:105590008D0080938C00A7CF81E0D3CF4F925F9294
:1055A0006F927F928F929F92AF92BF92CF92DF9233
:1055B000EF92FF926B017C01AC019B010E941E5691
:1055C00064EF73E0811126C046015701E894B7F8F3
:1055D0002FEF3FEF4FE75FE7C501B4010E941E5672
:1055E00081110CC02FEF3FEF4FE75FE7C501B4011A
:1055F0000E944D5468EF73E0181664F02FEF3FEFF0
:105600004FE75FE4C701B6010E94AC55181694F449
:105610006CEF73E08BE496E0FF90EF90DF90CF901B
:10562000BF90AF909F908F907F906F905F904F90C2
:105630000C9467262FEF3FEF4FE75FECC701B601F1
:105640000E944D5487FDE4CF20E030E0A901C7015E
:10565000B6010E944D54B12CA12C87FF0AC06DE207
:105660008BE496E00E94960D5C01F7FAF094F7F84F
:10567000F0942AE037ED43EA5BE3C701B6010E94EC
:10568000E1532B013C010E94CB546B017C010E9431
:10569000FA549B01AC01C301B2010E94E0532B01FB
:1056A0003C012AE0B701A6018BE496E00E94762631
:1056B0007C01EA0CFB1C6EE28BE496E00E94960DE6
:1056C000E80EF91E20E030E040E251E4C301B201EF
:1056D0000E94B1552B013C010E94CB544B01B12CCF
:1056E000A12C2AE0B501A4018BE496E00E94762665
:1056F000E80EF91EC501B4010E94FA549B01AC01E9
:10570000C301B2010E94E05320E030E040E251E4E6
:105710000E94B1550E94CB54AB0170E060E02AE0DA
:105720008BE496E00E9476268E0D9F1DFF90EF90F1
:10573000DF90CF90BF90AF909F908F907F906F90B1
:105740005F904F9008956115710511F00C946726D4
:1057500090E080E0089580917308813011F080E03E
:1057600008950E94840B8111FACF0E94F30A83E00E
:1057700080937308109247081092460880914A0857
:1057800090914B0890934F0880934E0880914C085D
:1057900090914D08909351088093500860E074E018
:1057A0008BE496E00E94A32B81E00895CF92DF92D4
:1057B000EF92FF92CF93DF936B017C01EA0184E0CB
:1057C0008093180C8093190C87EB94E29093150C3E
:1057D0008093140C86E499E29093170C8093160C36
:1057E0008EE391E09093110C8093100C85E790E08C
:1057F0009093130C8093120C20E030E040E251E4CF
:10580000C7010E944D541816A4F520E030E048E48A
:1058100053E4C701B6010E94AC5587FD06C0C12CF8
:10582000D12C98E4E92E93E4F92EC882D982EA8239
:10583000FB82C701B6010E94C45484E09CE00E9430
:10584000C22620E030E048EC52E4688179818A8108
:105850009B810E944D5487FF13C065EC75E084E086
:105860009CE0DF91CF91FF90EF90DF90CF900C9470
:10587000A32BC12CD12C80E2E82E81E4F82ED5CFC9
:10588000DF91CF91FF90EF90DF90CF900895CF926E
:10589000DF92EF92FF926B017C0184E08093180C01
:1058A0008093190C87EB94E29093150C8093140C61
:1058B00086E499E29093170C8093160C80E491E0B3
:1058C0009093110C8093100C8BEA90E09093130C42
:1058D0008093120C20E030E040E251E4C7010E94C6
:1058E0004D54181664F520E030E048E453E4C70155
:1058F000B6010E94AC5587FD06C0C12CD12C98E49E
:10590000E92E93E4F92EC701B6010E94C45484E045
:105910009CE00E94C22620E030E048EC52E4C7013F
:10592000B6010E944D5487FF11C065EC75E084E01C
:105930009CE0FF90EF90DF90CF900C94A32BC12CB4
:10594000D12C80E2E82E81E4F82EDDCFFF90EF909D
:10595000DF90CF900895CF92DF92EF92FF92CF9396
:10596000DF936B017C01EA0184E08093180C809343
:10597000190C87EB94E29093150C8093140C86E439
:1059800099E29093170C8093160C8EE391E090931C
:10599000110C8093100C8FEF90E09093130C809378
:1059A000120C20E030E040EA50E4C7010E944D5460
:1059B000181644F520E030E040EA51E4C701B60192
:1059C0000E94AC5587FD06C0C12CD12C90EAE92E6F
:1059D00091E4F92EC882D982EA82FB82C701B6011E
:1059E0000E94C45484E09CE00E94C22665EC75E0ED
:1059F00084E09CE0DF91CF91FF90EF90DF90CF901B
:105A00000C94A32BC12CD12C80EAE82E80E4F82E34
:105A1000E1CFCF92DF92EF92FF92CF93DF936B01B2
:105A20007C01EA0184E08093180C8093190C87EBC9
:105A300094E29093150C8093140C86E499E2909371
:105A4000170C8093160C8EE391E09093110C8093C9
:105A5000100C8AEB90E09093130C8093120C20E0D2
:105A600030E048E452E4C7010E944D541816A4F5F2
:105A700020E030E040EF52E4C701B6010E94AC558F
:105A800087FD06C0C12CD12C90EFE92E92E4F92EAF
:105A9000C882D982EA82FB82C701B6010E94C4543F
:105AA00084E09CE00E94C22620E030E048EC52E412
:105AB000688179818A819B810E944D5487FF13C040
:105AC00065EC75E084E09CE0DF91CF91FF90EF9072
:105AD000DF90CF900C94A32BC12CD12C88E4E82E1E
